:100000000C9455000C9474000C9474000C947400BF
:100010000C9474000C9474000C9474000C94740090
:100020000C9474000C9474000C9474000C94740080
:100030000C9474000C9474000C944F0A0C9474008B
:100040000C9474000C9474000C94900F0C94740035
:100050000C9474000C9474000C9474000C94740050
:100060000C9474000C9474000C9474000C94740040
:100070000C9474000C9474000C9485000C9474001F
:100080000C9474000C9474000C94740005A84CCD6E
:10009000B2D44EB93836A9020C50B9918688083CC2
:1000A000A6AAAA2ABE000000803F11241FBECFEFDF
:1000B000D0E1DEBFCDBF12E0A0E0B1E0E0E9F0E3C7
:1000C00000E00BBF02C007900D92A433B107D9F72F
:1000D00012E0A4E3B2E001C01D92A238B107E1F73B
:1000E0000E9439080C9446180C94000010929B0052
:1000F00088E980939A0086E080939D001092980092
:100100008FE580939900789408951F920F920FB60F
:100110000F9211248F939F9390919C0080919B004C
:10012000887BE1F381E080933402909335029F91C4
:100130008F910F900FBE0F901F90189580913502F0
:1001400010923502F89410923402789408959091A8
:100150009B0095FFFCCF80939C0008958FEF8093C8
:10016000730088E480937000089594EA909374007B
:100170009091740097FFFCCF9EE09093730094E8F9
:10018000909374009091740097FFFCCF809373005C
:1001900084E8809374008091740087FFFCCF84E929
:1001A000809374000895EF92FF920F931F93DF9353
:1001B000CF9300D0CDB7DEB7082F162F843070F55F
:1001C000643160F58BE149835A830E94B5008CE469
:1001D0000E94B500812F0E94B500802F0E94B500BB
:1001E00080E791E00197F1F700C0E12EFF244981FB
:1001F0005A81042F152F06C00E94B50094EC9A95E1
:10020000F1F700C0E4E1EE16F10444F4F801819145
:100210008F010894E11CF11C882371F70F900F9057
:10022000CF91DF911F910F91FF90EF9008951F9351
:10023000DF93CF9300D0CDB7DEB7182F8430F0F422
:100240006431E0F48BE12A8369830E94B5008CE479
:100250000E94B5006981862F0E94B500812F0E94FF
:10026000B50080E791E00197F1F700C02A81822F65
:100270000E94B50094EC9A95F1F700C00F900F9092
:10028000CF91DF911F9108958BE10E94B50083E427
:100290000E94B50086E696EEA0E081509040A04016
:1002A000E1F70895EF92FF920F931F93182FF62E08
:1002B000E42E842F64E60E947116082F282F30E068
:1002C000205D3F4F442737FD4095542F812F6F2DE0
:1002D0000E9417018CE9089F002D11240E0D802F1C
:1002E0006AE00E947116E82E6F2D6F5F282F30E0B4
:1002F000205D3F4F442737FD4095542F812F0E94AA
:1003000017016F2D6E5F26EFE29E202D1124200F26
:1003100030E0205D3F4F442737FD4095542F812F1B
:100320000E9417011F910F91FF90EF900895409147
:10033000780280E063E00E9452014091790281E0FE
:1003400061E00E94520140917A0282E061E00E94E5
:10035000520140917B0283E061E00E945201409192
:100360007C0283E065E00E94520140917D0283E0BF
:100370006AE00E945201DBCF2F923F924F925F9230
:100380006F927F928F929F92AF92BF92CF92DF92A5
:10039000EF92FF920F931F93DF93CF93CDB7DEB70A
:1003A00060970FB6F894DEBF0FBECDBF8C017B0106
:1003B0001A01853B91051CF464EB70E002C06CE10E
:1003C00072E0601B710B882777FD8095982F0E9443
:1003D0005D135B016C0160E070E084E393E4A601CF
:1003E00095010E94721128E939EF4EE85CE30E9402
:1003F000A3110E94B4163B014C0160E070E084EB55
:1004000092E4A60195010E94721128E939EF4EE8A5
:100410005CE30E94A3110E94B4165B016C0181E0B1
:100420000836180728F5B701882777FD8095982F9B
:100430000E945D137B018C01A40193010E94A31112
:100440000E94BD13662E772E882E992EC801B70103
:10045000A60195010E94A3110E94BD13E62EF72E5E
:10046000082F192F5101CC24B7FCC094DC2C11C0EB
:1004700017FF04C0F094E194F108F3945701CC24E1
:10048000B7FCC094DC2CEE24FF248701662477247B
:100490004301C401B3010E945D136D877E878F877E
:1004A000988BC801B7010E945D131B012C0122E04B
:1004B0003BE247E05DE30E94A311162FF72E982E32
:1004C000892EC601B5010E945D132EE432E640E19B
:1004D0005EE30E94A311A62EE72E082F692E6D85DC
:1004E0007E858F85988925ED38E749E65DE30E9492
:1004F000A311F401212F3F2D4F2F5E2F0E94451194
:100500002A2D3E2D402F562D0E94451169837A8356
:100510008B839C83C201B10128EB3EE145E85DEB92
:100520000E94A3112A2D3E2D402F562D0E944511C9
:100530006D837E838F8398876D857E858F8598896F
:1005400025ED38E749E65DEB0E94A311F401212F68
:100550003F2D4F2F5E2F0E9445112A2D3E2D402FFB
:10056000562D0E94451169877A878B879C878E015B
:100570000F5F1F4FEE245801F80160817181828165
:10058000938120E030E040E252E40E94CD1287FDEA
:1005900009C080E090E0A0E2B2E4F801808391839A
:1005A000A283B383F801608171818281938120E00D
:1005B00030E040E252EC0E942D1318164CF080E01F
:1005C00090E0A0E2B2ECF80180839183A283B38330
:1005D0000C5F1F4FF501608171818281938120E062
:1005E00030E040E857E40E94A3110E94BD13AB0124
:1005F000BC018E2D0E94710DE394FE2DF33009F0A5
:10060000BACF0E949F0E60960FB6F894DEBF0FBE61
:10061000CDBFCF91DF911F910F91FF90EF90DF90B1
:10062000CF90BF90AF909F908F907F906F905F9092
:100630004F903F902F900895EF92FF920F931F934A
:10064000CF93DF9301E010E0C7E8D0E082E0E82E2E
:10065000F12C809178028B3508F05BC08091790293
:10066000823328F480917A02823308F455C0809155
:10067000630081B190E08095909583FF18C010933E
:100680006502009364020BC080918002AE01481B9A
:10069000510980E090E068EC70E00E94BC0180911C
:1006A000630081B190E08095909583FDEDCF8091BE
:1006B000630091B186958695869590E0809590959A
:1006C00080FF1BC0F0926502E09264020BC0809133
:1006D0008002AE01481B510980E090E068EC70E0B8
:1006E0000E94BC018091630091B1869586958695A4
:1006F00090E08095909580FDEACF80918002AE01D8
:10070000481B510980E090E068EC70E00E94BC0159
:10071000A0CF21E030E002C022E030E0C901DF914B
:10072000CF911F910F91FF90EF9008952F923F92DC
:100730004F925F926F927F928F929F92AF92BF92F1
:10074000CF92DF92EF92FF920F931F93DF93CF939D
:1007500000D0CDB7DEB79A8389831A017901882743
:1007600077FD8095982F0E945D1360933C027093F3
:100770003D0280933E0290933F0280E090E0A0EA29
:10078000B0E48093000190930101A0930201B09323
:1007900003018FEF8DBD80E78CBD10923702109260
:1007A000360280E090E0DC01809354029093550281
:1007B000A0935602B0935702442455245701CC24E9
:1007C000DD240F2EF0E06F2EF0E07F2EF8E48F2E68
:1007D000F2E49F2EF02D60913802709139028091E1
:1007E0003A0290913B020E94BD139B01AC018981AA
:1007F0009A81B90140E050E00E94BC01E0905402AF
:10080000F09055020091560210915702C201B101B9
:100810000E940F149B01AC01C801B7010E94CD12C8
:1008200087FF1DC0E0905402F090550200915602DF
:1008300010915702C601B5010E940F149B01AC0133
:10084000C801B7010E94CD1287FDC5CF60923C025E
:1008500070923D0280923E0290923F02BCCF0F9078
:100860000F90CF91DF911F910F91FF90EF90DF904C
:10087000CF90BF90AF909F908F907F906F905F9040
:100880004F903F902F9008952F923F924F925F92FA
:100890006F927F928F929F92AF92BF92CF92DF9290
:1008A000EF92FF920F931F93DF93CF93CDB7DEB7F5
:1008B000A6970FB6F894DEBF0FBECDBF962E872E3B
:1008C000782E692E2901DC86CB86BE86AD868FEF19
:1008D0008DBD80E78CBD81E090E0909337028093DE
:1008E000360280E090E0A0EAB0E4809300019093AB
:1008F0000101A0930201B093030180E090E0A0E425
:10090000B0E48093040190930501A0930601B09395
:100910000701BA01882777FD8095982F0E945D1303
:1009200060933C0270933D0280933E0290933F029D
:10093000B201882777FD8095982F0E945D13609300
:1009400044027093450280934602909347021A86B0
:10095000198680E090E0DC018D839E83AF83B887A9
:1009600089839A83AB83BC83AB85BC85CD01A0E032
:10097000B0E08F8B988FA98FBA8FAD85BE85CD01E2
:10098000A0E0B0E08B8F9C8FAD8FBE8FC801A0E040
:10099000B0E08F8F98A3A9A3BAA3C701AA2797FD98
:1009A000A095BA2F8BA39CA3ADA3BEA380913602C2
:1009B00090913702009709F482C110923702109289
:1009C0003602609138027091390280913A0290911A
:1009D0003B022AE037ED43E25CE30E94A3116B8BFC
:1009E0007C8B8D8B9E8B6091400270914102809137
:1009F0004202909143022AE037ED43E25CE30E9419
:100A0000A311562E472E382E292EA4019301652FAF
:100A1000782D832F962DD201F1012B2F3A2F4F2FB6
:100A20005E2F0E947211962E872E782E692EA401B9
:100A30009301652F742F832F922F20E030E0A901BE
:100A40000E94FD1287FF0DC0A4019301652F742F32
:100A5000832F922F20E030E044EB53E40E944511B5
:100A60001AC0A4019301652F742F832F922F20E0C9
:100A700030E044EB53E40E94CD1287FD10C0A40186
:100A80009301652F742F832F922F20E030E044EBE9
:100A900053E40E947211962E872E782E692EE090D4
:100AA0003802F090390200913A0210913B02A09076
:100AB0004002B0904102C0904202D0904302A40193
:100AC0009301652F782D832F962D0E94BD136F877C
:100AD000788B898B9A8BC801B7010E94BD137B016B
:100AE0008C01C601B5010E94BD139B01AC018F852D
:100AF0009889B701A9010E94BC0169817A818B8123
:100B00009C81BB89AC891D890E892B2F3A2F412FDF
:100B1000502F0E944511162F072FE82EA92E862F41
:100B2000902FAE2DBA2D89839A83AB83BC836D81C0
:100B30007E818F819885D201F1012B2F342D4F2F8B
:100B4000522D0E944511262F372F482F592F2D83C4
:100B50003E834F8358876F89788D898D9A8D0E9447
:100B60000F149B01AC01612F702F8E2D9A2D0E94C6
:100B7000CD1287FD10C0AB85BC85109761F080E079
:100B800090E0A8ECB2E480933C0290933D02A093E5
:100B90003E02B0933F02AD80BE80CF80D884E894FF
:100BA000D7F86B8D7C8D8D8D9E8D0E940F149B01CF
:100BB000AC01C601B5010E94CD1287FD2BC0AD85E9
:100BC000BE85109739F180E090E0A0EAB1E480930F
:100BD000440290934502A0934602B093470260916D
:100BE000400270914102809142029091430220E0C4
:100BF00030E0A9010E942D13181664F080E090E007
:100C0000A0EAB1EC8093440290934502A09346027F
:100C1000B09347026F8D78A189A19AA10E940F1409
:100C20007B018C0169817A818B819C81A80197016C
:100C30000E94CD1287FF0BC069817A818B819C81D4
:100C40009058A80197010E94CD1287FD15C080E041
:100C500090E0DC0180933C0290933D02A0933E0221
:100C6000B0933F028093380290933902A0933A02E6
:100C7000B0933B0291E099876BA17CA18DA19EA1CD
:100C80000E945D139B01AC01C601B5010E94CD120B
:100C900087FD15C080E090E0DC01809344029093D2
:100CA0004502A0934602B09347028093400290937E
:100CB0004102A0934202B0934302A1E0AA87B98502
:100CC000BB2309F473CEEA85EE2309F46FCEA69612
:100CD0000FB6F894DEBF0FBECDBFCF91DF911F914D
:100CE0000F91FF90EF90DF90CF90BF90AF909F90CB
:100CF0008F907F906F905F904F903F902F900895CE
:100D00002F923F924F925F926F927F928F929F921B
:100D1000AF92BF92CF92DF92EF92FF920F931F9309
:100D2000DF93CF93CDB7DEB72D970FB6F894DEBF24
:100D30000FBECDBF3B014C0159016A0180E090E03C
:100D4000DC0189839A83AB83BC838D839E83AF83CD
:100D5000B88789879A87AB87BC876114710481043F
:100D6000910471F4211531054105510549F4E1144F
:100D7000F1040105110521F489E090E00E94AC0E18
:100D8000C401B3010E945D131B012C01C601B50112
:100D90000E945D133B014C0122E03BE247E05DE332
:100DA0000E94A311D62EC72EB82E9D87C801B70169
:100DB0000E945D1329E23CE54FE05EE30E94A3112F
:100DC000A62EE72E8C01C201B10122E430E645E6F1
:100DD0005DE30E94A311D601ED852B2F3A2F4B2DF9
:100DE0005E2F0E9445112A2D3E2D402F512F0E942B
:100DF000451169837A838B839C83C401B30128EBFB
:100E00003EE145E85DEB0E94A3112A2D3E2D402FC7
:100E1000512F0E9445116D837E838F839887C20175
:100E2000B10122E430E645E65DEB0E94A311D60154
:100E3000ED852B2F3A2F4B2D5E2F0E9445112A2D29
:100E40003E2D402F512F0E94451169877A878B874D
:100E50009C878E010F5F1F4FEE245801F8016081BF
:100E600071818281938120E030E040E252E40E946F
:100E7000CD1287FD09C080E090E0A0E2B2E4F80165
:100E800080839183A283B383F80160817181828121
:100E9000938120E030E040E252EC0E942D131816BE
:100EA0004CF080E090E0A0E2B2ECF8018083918306
:100EB000A283B3830C5F1F4FF50160817181828132
:100EC000938120E030E040E857E40E94A3110E94A3
:100ED000BD13AB01BC018E2D0E94710DE394FE2D5C
:100EE000F33009F0BACF0E949F0E2D960FB6F894FA
:100EF000DEBF0FBECDBFCF91DF911F910F91FF904D
:100F0000EF90DF90CF90BF90AF909F908F907F90A9
:100F10006F905F904F903F902F900895EF92FF92C7
:100F20000F931F93CF93DF931092370210923602E4
:100F3000CEEBD0E022C060917D0220917F02E09153
:100F40007C02A0917D0270E0685C7040882777FD8C
:100F50008095982FAE01421B51099A01442737FD15
:100F60004095542FF0E07E97EA1BF1097F0100279E
:100F7000F7FC0095102F0E94800680913602909118
:100F8000370251E0843F9507B1F6DF91CF911F9171
:100F90000F91FF90EF900895EF92FF920F931F93A0
:100FA000109237021092360221C060917D0220918A
:100FB0007B02E0917C02A0917D0270E06A5A704051
:100FC000882777FD8095982F30E0275D30404427B3
:100FD00037FD4095542FF0E07E97EA1BF1097F0121
:100FE0000027F7FC0095102F0E94800680913602A2
:100FF0009091370221E0843F9207B9F660E070E0FB
:10100000CB0120E030E0A901EE24FF2487010E94FB
:1010100080061F910F91FF90EF900895EF92FF923D
:101020000F931F930CC064E670E080E090E020E036
:1010300030E0A901EE24FF2487010E948006809100
:101040007802863980F30CC06CE97FEF8FEF9FEF59
:1010500020E030E0A901EE24FF2487010E948006F1
:1010600080917D02813E80F31F910F91FF90EF9060
:101070000895AF92BF92CF92DF92EF92FF920F93BB
:101080001F930E94AE000E94E10D0E9476000E9414
:10109000400D0E947C0F8FE087BB1FBC85E08EBD9A
:1010A0008FEF8DBD80E78CBD84E087BF7894B499C5
:1010B00064C00E941C0360E070E0CB0120E030E0DF
:1010C000A901EE24FF2487010E948006809164021A
:1010D000909165028130910509F04FC060E070E0A9
:1010E000CB0146E950E02EEC3FEF01EE10E0EAE5DF
:1010F000EE2EF12CCC24DD24AA24BB240E9444042F
:1011000060E070E0CB014AEF50E022EE3FEF0CEBE5
:1011100012E0BFE5EB2EF12C0E9444040CC06AE6FD
:101120007FEF8FEF9FEF20E030E0A901EE24FF2456
:1011300087010E94800680917D02883780F30E949B
:10114000CC070CC06AEF70E080E090E020E030E077
:10115000A901EE24FF2487010E9480068091780275
:101160008A3580F360E070E0CB0120E030E0A90137
:10117000EE24FF2487010E948006B59962C10E9477
:101180001C0360E070E0CB0144E650E024EC3FEF4C
:1011900001EE10E0AAE5EA2EF12CCC24DD24AA24ED
:1011A000BB240E94440480E060E0409164020E94FD
:1011B000520160E070E0CB0148EC50E020E030E00C
:1011C00004EF11E0EE24FF240E94440480916402A5
:1011D000909165028130910509F0D8C060E070E01F
:1011E000CB0146E950E022E330E006E910E0FAE501
:1011F000EF2EF12C0E9444040CC068E37FEF8FEFC8
:101200009FEF20E030E0A901EE24FF2487010E9437
:10121000800680917D02883C80F30CC068EC70E011
:1012200080E090E020E030E0A901EE24FF24870177
:101230000E94800680917802863480F360E070E03E
:10124000CB0146E950E02EEC3FEF0BEE10E0EAE573
:10125000EE2EF12CCC24DD24AA24BB240E944404CD
:10126000C39A8FEF9FE3A2E081509040A040E1F746
:1012700000C00000C39810923702109236021CC0C2
:1012800082E066E60E945E0FD82E95E0899F90016D
:10129000112424543240442737FD4095542F60E0F8
:1012A00070E0CB01EE24FF2487010E94800680E0DD
:1012B00062E04D2D0E9452018091360290913702DA
:1012C000A1E08C329A07E1F60E940E0860E070E01F
:1012D000CB0140E050E02DED3FEF00E010E0BAE53B
:1012E000EB2EF12CCC24DD24AA24BB240E94440440
:1012F0000CC068EC70E080E090E020E030E0A901F4
:10130000EE24FF2487010E948006809178028634B3
:1013100080F360E070E0CB0146E950E022E330E08A
:101320000BEE10E0AAE5EA2EF12CCC24DD24AA2451
:10133000BB240E94440410923702109236021CC053
:1013400081E066E60E945E0FD82EB5E08B9F90018B
:10135000112424543240442737FD4095542F60E037
:1013600070E0CB01EE24FF2487010E94800680E01C
:1013700062E04D2D0E945201809136029091370219
:1013800021E08C329207E1F60E940E0880916402FF
:10139000909165028230910509F048C060E070E0EC
:1013A000CB0146E950E02EEC3FEF0AEF10E0FAE502
:1013B000EF2EF12CCC24DD24AA24BB240E9444046B
:1013C0000CC06AE67FEF8FEF9FEF20E030E0A901CD
:1013D000EE24FF2487010E94800680917D02883CD4
:1013E00080F30E94CC070CC066E970E080E090E0DA
:1013F00020E030E0A901EE24FF2487010E9480064E
:1014000080917802863480F360E070E0CB0146E999
:1014100050E02EEC3FEF0BEE10E0EAE5EE2EF12C63
:10142000CC24DD24AA24BB240E94440460E070E0A4
:10143000CB0120E030E0A901EE24FF2487010E94C7
:101440008006B69934CE0E94970131CEEF92FF927A
:101450000F931F93109237021092360213C02091FF
:101460007A0280917F0230E0281B3109442737FD42
:101470004095542F60E070E0CB01EE24FF248701FB
:101480000E948006809136029091370221E08C32D2
:10149000920729F71F910F91FF90EF9008951F92E7
:1014A0000F920FB60F920BB60F921124EF92FF928C
:1014B0000F931F932F933F934F935F936F937F935C
:1014C0008F939F93AF93BF93EF93FF938FEF8DBD58
:1014D00080E78CBD809136029091370201969093FF
:1014E000370280933602E0905402F090550200914A
:1014F0005602109157026091380270913902809122
:101500003A0290913B022AE037ED43E25CE30E940D
:10151000A3119B01AC01C801B7010E9445119B01B9
:10152000AC012093540230935502409356025093DD
:101530005702E0905002F090510200915202109137
:1015400053026091600270916102809162029091F9
:1015500063022AE037ED43E25CE30E94A3119B01A2
:10156000AC01C801B7010E9445119B01AC01209359
:101570005002309351024093520250935302E09034
:101580004802F090490200914A0210914B0260918A
:1015900058027091590280915A0290915B022AE0A0
:1015A00037ED43E25CE30E94A3119B01AC01C8014B
:1015B000B7010E9445119B01AC0120934802309372
:1015C000490240934A0250934B02E0904C02F09043
:1015D0004D0200914E0210914F0260915C02709199
:1015E0005D0280915E0290915F022AE037ED43E256
:1015F0005CE30E94A3119B01AC01C801B7010E94EA
:1016000045119B01AC0120934C0230934D02409355
:101610004E0250934F0260913C0270913D028091C6
:101620003E0290913F022091380230913902409160
:101630003A0250913B020E949D12181694F5609157
:1016400038027091390280913A0290913B022091C8
:1016500000013091010140910201509103010E946B
:1016600045119B01AC01209338023093390240931D
:101670003A0250933B0260913C0270913D0280918E
:101680003E0290913F022091380230913902409100
:101690003A0250913B020E942D1318160CF455C0CB
:1016A00044C060913C0270913D0280913E02909155
:1016B0003F02209138023091390240913A02509114
:1016C0003B020E94FD1287FF40C06091380270917A
:1016D000390280913A0290913B02209100013091B1
:1016E000010140910201509103010E9472119B017E
:1016F000AC01209338023093390240933A02509360
:101700003B0260913C0270913D0280913E029091BB
:101710003F02209138023091390240913A025091B3
:101720003B020E94CD1287FD10C080913C02909137
:101730003D02A0913E02B0913F0280933802909307
:101740003902A0933A02B0933B0260914402709137
:1017500045028091460290914702209140023091CB
:10176000410240914202509143020E949D1218167C
:1017700094F56091400270914102809142029091F3
:1017800043022091040130910501409106015091DE
:1017900007010E9445119B01AC0120934002309348
:1017A000410240934202509343026091440270917F
:1017B000450280914602909147022091400230916B
:1017C000410240914202509143020E942D1318168B
:1017D0000CF455C044C06091440270914502809160
:1017E000460290914702209140023091410240917F
:1017F0004202509143020E94FD1287FF40C0609157
:1018000040027091410280914202909143022091E6
:1018100004013091050140910601509107010E9499
:1018200072119B01AC01209340023093410240931E
:1018300042025093430260914402709145028091AC
:10184000460290914702209140023091410240911E
:101850004202509143020E94CD1287FD10C0809138
:10186000440290914502A0914602B09147028093B4
:10187000400290934102A0934202B0934302FF9131
:10188000EF91BF91AF919F918F917F916F915F91F8
:101890004F913F912F911F910F91FF90EF900F90DB
:1018A0000BBE0F900FBE0F901F90189590E0FC019B
:1018B000B096FE2FEE2720812093740220FDFBCFEF
:1018C0008896B82FAA278C9190819093740290FDEE
:1018D000FBCF089590E08096F82FEE2780818093CB
:1018E000740280FDFBCF608380818093740280FD51
:1018F000FBCF0895A82FB0E0FD01B096FE2FEE2794
:1019000080818093740280FDFBCF9896BA2FAA271E
:10191000872F992787FD9A958C93808180937402F5
:1019200080FDFBCF6C9380818093740280FDFBCFA0
:101930000895DF92EF92FF920F931F93D82E7A01B2
:101940008B019B01552737FD5095452FB9010E940A
:101950007A0C8D2DB7010E947A0C1F910F91FF9088
:10196000EF90DF9008951F93182F60E00E946A0C9B
:101970008CEC9CE10197F1F700C00000812F6DE134
:101980000E946A0C812F60E070E00E947A0C1F9127
:101990000895AF92BF92CF92DF92EF92FF920F9392
:1019A0001F93CF93DF93F82E6B01EA018901AA24DC
:1019B000A3946115710509F4AA24BB24B39420975C
:1019C00009F4BB24EE24E3940115110509F4EE2477
:1019D0008F2D6EE10E946A0C6B2D70E0660F771FF1
:1019E000660F771F8A2D90E043E0880F991F4A9574
:1019F000E1F7682B792B8E2D90E0880F991F682BCB
:101A0000792B8F2D0E947A0CAA2021F08F2DB60100
:101A10000E947A0CBB2021F08F2DBE010E947A0C0F
:101A2000EE2021F08F2DB8010E947A0C8F2D64E0FA
:101A30000E946A0CDF91CF911F910F91FF90EF9060
:101A4000DF90CF90BF90AF900895DF92EF92FF921A
:101A50000F931F93D82E7A018B016FE10E946A0CBD
:101A60008D2D60E270E00E947A0C8D2DB801A701E7
:101A70000E94990C1F910F91FF90EF90DF900895B5
:101A800080E067E070E043E050E021E030E00E9459
:101A9000C90C81E067E070E043E050E021E030E015
:101AA0000E94C90C82E067E070E043E050E021E072
:101AB00030E00E94C90C80E04FEF5FEF6FEF7FE3F3
:101AC0000E94250D81E04FEF5FEF6FEF7FE30E94F3
:101AD000250D82E04FEF5FEF6FEF7FE30E94250D52
:101AE0000895DF92EF92FF920F931F93DF93CF93AE
:101AF0000F92CDB7DEB7D82E7A018B0177FF0AC0DF
:101B000010950095F094E094E11CF11C011D111D4D
:101B100090E001C091E08D2D6FE199830E946A0CE5
:101B20009981792F7295707F60E0686078608D2D63
:101B30000E947A0C8D2DB801A7010E94990C0F907C
:101B4000CF91DF911F910F91FF90EF90DF9008955B
:101B50004F925F926F927F928F929F92AF92BF92BD
:101B6000CF92DF92EF92FF920F931F93982E862EC3
:101B700029013A016FE10E946A0C682D70E06A62E7
:101B8000892D0E947A0C892DB301A2010E94990C23
:101B9000892DB801A7010E94990C892DB601A501D4
:101BA0000E94990C1F910F91FF90EF90DF90CF90C2
:101BB000BF90AF909F908F907F906F905F904F906D
:101BC00008958F929F92AF92BF92CF92DF92EF9241
:101BD000FF920F931F93DF93CF9300D00F92CDB757
:101BE000DEB71ABA15BA8FEF84BB1092650083E096
:101BF00080936400E0E89E2E72E0A72E64E8B62E83
:101C00006E010894C11CD11C85B3856085BB83E33C
:101C10009BE20197F1F785B38A7F85BBECECFCE191
:101C20003197F1F700C00000809165008D7F8093AF
:101C30006500AB9885B3887F85BB29B32983A89AB3
:101C400099B39A8385B3887F826085BB89B38B8380
:101C5000243C11F02438C1F5943C11F09438A1F5DE
:101C6000843C11F0843881F595BEA0926D00B0924D
:101C70006C00760100E010E28E2C8C18882D6DE14E
:101C80000E946A0C882D60E070E00E947A0CF801D6
:101C90008081F70181937F0100501F4FF3E20030F4
:101CA0001F0751F78981803C11F0803851F48A81F7
:101CB000803C11F0803829F48B81803C69F08038B9
:101CC00059F085B78F7385BF15BA80E060E048E0B2
:101CD00051E00E94D30098CF80E060E047E151E0FE
:101CE0000E94D30083E098B3976098BB2FEF3FEB3F
:101CF00046E0215030404040E1F700C0000098B37A
:101D0000987F98BB2FEF3FEB46E02150304040409A
:101D1000E1F700C00000815031F70E9444010F90AC
:101D20000F900F90CF91DF911F910F91FF90EF9047
:101D3000DF90CF90BF90AF909F908F90089580E0FC
:101D400061E00E946A0C81E061E00E946A0C82E01E
:101D500061E00E946A0C08951F93CF93DF93182FC0
:101D600080E06FE10E946A0CC1E0D0E002C0CC0FBD
:101D7000DD1F1A95E2F780E0BE010E947A0C81E037
:101D80006FE10E946A0C81E0BE010E947A0C82E041
:101D90006FE10E946A0C82E0BE010E947A0C80E032
:101DA00061E00E946A0C81E061E00E946A0C82E0BE
:101DB00061E00E946A0CDF91CF911F910895AF926C
:101DC000BF92CF92DF92EF92FF920F931F93DF9318
:101DD000CF93CDB7DEB72C970FB6F894DEBF0FBE0A
:101DE000CDBF59016A010E945D1369837A838B8399
:101DF0009C83C601B5010E945D136D837E838F8332
:101E00009887C801B7010E945D1369877A878B871D
:101E10009C878E010F5F1F4FEE24F8016081718156
:101E20008281938121E73CEA4BE85EE30E94A311A3
:101E30009B01AC01F80121933193419351938F01A0
:101E400020E030E040E857E40E94A3110E94BD1357
:101E5000AB01BC018E2D0E94710DE394FE2DF33079
:101E6000E1F60E949F0E2C960FB6F894DEBF0FBECF
:101E7000CDBFCF91DF911F910F91FF90EF90DF9039
:101E8000CF90BF90AF9008958BE00E94A700809103
:101E900034028823E1F30E949E008823A9F381E1A4
:101EA0000E94A7008FEF0E94A70080913402882330
:101EB000E1F30E949E00882391F30895DF93CF936E
:101EC00000D0CDB7DEB719821A82880F982F990FEC
:101ED000990F980F690F6A838A810E94A7008091E9
:101EE00034028823E1F30E949E00898389810F9048
:101EF0000F90CF91DF91089582B1837E82B9E4E69D
:101F0000F0E08081877E80831BB888E98AB986E00B
:101F100080939500109290008FE089B9789408958D
:101F20001F920F920FB60F920BB60F9211242F93A0
:101F30003F938F939F93EF93FF939CB18BB1887BDB
:101F4000E9F39F3F21F481E08093730247C08091C1
:101F50007302813009F042C080917202E82FF0E0F4
:101F6000EA59FD4F90838F5F8093720280917202D5
:101F70008B30A0F1109272028091720280937302F2
:101F800080E090E030917102FC01EA59FD4F208120
:101F9000230F2093710201968A30910599F7809161
:101FA00071028F3F29F4809171028F5F80937102DB
:101FB0009091710280917002981771F480E090E026
:101FC000FC01EA59FD4F2081FC01E858FD4F2083B8
:101FD00001968A309105A1F710927102FF91EF915D
:101FE0009F918F913F912F910F900BBE0F900FBE3D
:101FF0000F901F901895A0E0B0E0E1E0F0E10C94A4
:102000008116FC01EA018081823008F438C1DB01CD
:102010009C91923008F430C1843059F4943009F026
:102020002EC1918111968C911197981709F021C1B9
:1020300026C1943009F420C19230B1F4823009F005
:102040001EC1CA01AF0128E0DA010D90AD01DC012B
:102050000D92CD012150C1F7DB0111968C911197A2
:102060009181892389830AC1823009F405C1C28024
:10207000D380DB0112966D907C901397248135817B
:10208000468157811496ED90FD900D911C91179704
:10209000C601861997095C0197FF04C0AA24BB24D6
:1020A000A81AB90AB0E2AB16B1040CF061C0181658
:1020B00019066CF5370148010A2C04C096948794E0
:1020C000779467940A94D2F781E090E0A0E0B0E0C2
:1020D0000A2C04C0880F991FAA1FBB1F0A94D2F7AD
:1020E0000197A109B1098E219F21A023B123EE24DC
:1020F000FF248701E3940097A105B10519F4EE24AC
:10210000FF248701E628F728082919293CC00097F1
:10211000D1F1CA0CDB1C39014A010A2C04C0969487
:102120008794779467940A94D2F781E090E0A0E0D6
:10213000B0E00A2C04C0880F991FAA1FBB1F0A9485
:10214000D2F70197A109B10982239323A423B523D0
:1021500021E030E040E050E00097A105B10519F41E
:1021600020E030E0A90126293729482959290BC048
:102170006C147D0424F4EE24FF24870104C0630161
:1021800020E030E0A9018181FB019181891709F4E8
:1021900045C0882349F0D801C701821B930BA40BCB
:1021A000B50B9C01AD0104C02E193F09400B510B2A
:1021B00057FD04C01982DB82CA820BC081E089838B
:1021C000DB82CA8250954095309521953F4F4F4F05
:1021D0005F4F2C833D834E835F830DC0880F991F13
:1021E000AA1FBB1F8C839D83AE83BF838A819B8183
:1021F00001979B838A838C819D81AE81BF819C01E5
:10220000AD0121503040404050402F3FEFEF3E079E
:10221000EFEF4E07EFE35E0708F30BC08983DB8225
:10222000CA822E0D3F1D401F511F2C833D834E83BC
:102230005F8383E088832C813D814E815F8157FFDE
:102240001DC0DA01C90181709070A070B070569500
:10225000479537952795822B932BA42BB52B8C83F1
:102260009D83AE83BF838A819B8101969B838A83F2
:1022700005C0EBE2F1E003C0FB0101C0FE01CF01AC
:10228000CDB7DEB7EEE00C949D16A0E2B0E0EBE433
:10229000F1E10C94891669837A838B839C832D8367
:1022A0003E834F83588789E0E82EF12CEC0EFD1E0B
:1022B000CE010196B7010E94AF158E010F5E1F4F30
:1022C000CE010596B8010E94AF15C701B801AE0155
:1022D000475E5F4F0E94FB0F0E94E114A096E6E06C
:1022E0000C94A516A0E2B0E0E8E7F1E10C948916A1
:1022F00069837A838B839C832D833E834F835887A6
:102300008E01075F1F4FCE010196B8010E94AF15E5
:1023100091E1E92EF12CEC0EFD1ECE010596B701E0
:102320000E94AF158A8991E089278A8BC801B7017D
:10233000AE01475E5F4F0E94FB0F0E94E114A09622
:10234000E6E00C94A516A0E2B0E0E9EAF1E10C9415
:102350007D1669837A838B839C832D833E834F8391
:102360005887CE010196BE01675F7F4F0E94AF156F
:10237000CE010596BE016F5E7F4F0E94AF15998515
:10238000923078F089898230C0F0943019F482302C
:1023900041F4CBC0843019F4923079F4C6C0923045
:1023A00051F481E02A859A89291709F480E08A8707
:1023B000CE010996BCC0823051F481E02A859A8909
:1023C000291709F480E08A8BCE014196B0C06D8454
:1023D0007E848F849888ED88FE880F89188DE0E2CE
:1023E000F0E080E090E0DC01AA24BB24650120E05D
:1023F00030E0A901B3016170707061157105D1F011
:102400002E0D3F1D401F511F15012601280E391E9C
:102410004A1E5B1E81E090E0A0E0B0E02E153F0573
:102420004007510718F080E090E0DC01820D931D19
:10243000A41DB51DAA0CBB1CCC1CDD1C17FF09C0BC
:1024400061E0262E312C412C512CA228B328C4281F
:10245000D528319749F0EE0CFF1C001F111F9694F0
:10246000879477946794C6CF6B897C89EB85FC85CC
:102470006E0F7F1F6E5F7F4F7C8F6B8F61E0EA85F1
:102480007A89E71709F460E06A8F6B8D7C8D10C044
:10249000FC01E170F070309729F05695479537951B
:1024A00027955068B695A795979587956F5F7F4F4D
:1024B000B7FDEECF0CC0880F991FAA1FBB1F57FD99
:1024C0008160220F331F441F551F615070408030C0
:1024D000E0E09E07E0E0AE07E0E4BE0760F36B8F4C
:1024E0007C8F6FE7E62EF12C012D112DE822F922C9
:1024F0000A231B2360E4E616F1040105110561F4CB
:1025000087FD0AC0211531054105510529F0805C80
:102510009F4FAF4FBF4F80788D8F9E8FAF8FB8A3E7
:1025200083E0898FCE01499602C08BE291E00E9440
:10253000E114A096E2E10C949916A8E1B0E0E3EA78
:10254000F2E10C94891669837A838B839C832D83B3
:102550003E834F8358878E01075F1F4FCE01019640
:10256000B8010E94AF1581E1E82EF12CEC0EFD1EA2
:10257000CE010596B7010E94AF158985823040F0E3
:102580008989823028F0C801B7010E94181601C05D
:102590008FEF6896E6E00C94A516A8E1B0E0E3EDB5
:1025A000F2E10C94891669837A838B839C832D8353
:1025B0003E834F8358878E01075F1F4FCE010196E0
:1025C000B8010E94AF1581E1E82EF12CEC0EFD1E42
:1025D000CE010596B7010E94AF158985823040F083
:1025E0008989823028F0C801B7010E94181601C0FD
:1025F0008FEF6896E6E00C94A516A8E1B0E0E3E062
:10260000F3E10C94891669837A838B839C832D83F1
:102610003E834F8358878E01075F1F4FCE0101967F
:10262000B8010E94AF1581E1E82EF12CEC0EFD1EE1
:10263000CE010596B7010E94AF158985823040F022
:102640008989823028F0C801B7010E94181601C09C
:1026500081E06896E6E00C94A516A8E1B0E0E3E31B
:10266000F3E10C94891669837A838B839C832D8391
:102670003E834F8358878E01075F1F4FCE0101961F
:10268000B8010E94AF1581E1E82EF12CEC0EFD1E81
:10269000CE010596B7010E94AF158985823040F0C2
:1026A0008989823028F0C801B7010E94181601C03C
:1026B00081E06896E6E00C94A516A8E0B0E0E3E6B9
:1026C000F3E10C9489167B018C0183E08983D801A6
:1026D000C7018827B7FD83959927AA27BB27282FED
:1026E0008A83E114F1040105110519F482E089835C
:1026F00037C08EE190E09C838B83222389F080E0B9
:10270000E81680E0F80680E0080780E8180769F11D
:1027100010950095F094E094E11CF11C011D111D31
:10272000ED82FE820F831887C801B7010E948714CB
:102730009C01215030401216130694F4022E04C05E
:10274000EE0CFF1C001F111F0A94D2F7ED82FE82CF
:102750000F8318878EE190E0821B930B9C838B8301
:10276000CE0101960E94E11404C060E070E080E0B8
:102770009FEC2896E6E00C94A516ACE0B0E0E3EC04
:10278000F3E10C948D1669837A838B839C83CE014D
:102790000196BE016B5F7F4F0E94AF158D81823025
:1027A00081F1823070F1843021F48E81882369F1C7
:1027B0000AC02F81388537FD24C06E812F31310545
:1027C0003CF0662311F120E030E040E050E821C009
:1027D0008EE190E0821B930B29853A854B855C85C1
:1027E00004C056954795379527958A95D2F7662365
:1027F00081F050954095309521953F4F4F4F5F4F59
:1028000008C020E030E0A90104C02FEF3FEF4FEFF8
:102810005FE7B901CA012C96E2E00C94A916A8E082
:10282000B0E0E5E1F4E10C9487167B018C011A829B
:10283000611571058105910519F482E089835FC0F6
:1028400083E089838EE1C82ED12CDC82CB82ED829D
:10285000FE820F831887C801B7010E948714FC010C
:102860003197F7FF3AC0AA27BB27AE1BBF0B21E069
:1028700030E040E050E00A2E04C0220F331F441F16
:10288000551F0A94D2F721503040404050402E212D
:102890003F214023512361E070E080E090E021156A
:1028A00031054105510519F460E070E0CB0104C029
:1028B00016950795F794E794AA95D2F7E62AF72A92
:1028C000082B192BED82FE820F8318878EE190E092
:1028D0008E1B9F0B9C838B8312C0309781F00E2E32
:1028E00004C0EE0CFF1C001F111F0A94D2F7ED82EA
:1028F000FE820F831887CE1ADF0ADC82CB82CE01DC
:1029000001960E94E1142896E8E00C94A316AF9279
:10291000BF92CF92DF92EF92FF920F931F937B01B2
:102920008C0180E0E81680E0F80681E0080780E08E
:10293000180758F4EFEFEE16F1040105110509F040
:1029400090F480E090E0DC0117C0F0E0EF16F0E0DA
:10295000FF06F0E00F07F1E01F0750F480E190E080
:10296000A0E0B0E009C088E090E0A0E0B0E004C0E2
:1029700088E190E0A0E0B0E020E230E040E050E00C
:10298000281B390B4A0B5B0B5701680104C0D69416
:10299000C794B794A7948A95D2F7D601C5018D5CE8
:1029A0009E4FFC018081281B310941095109C90151
:1029B0001F910F91FF90EF90DF90CF90BF90AF905D
:1029C0000895EF92FF920F931F93CF93DF93FC0133
:1029D000248135814681578161818081823020F454
:1029E0004061EFEFF0E0A3C0843009F49BC0823077
:1029F00009F492C0211531054105510509F48FC034
:102A00000280F381E02D8FEFE238F8070CF05AC016
:102A1000C2E8DFEFCE1BDF0BCA31D1056CF57901BF
:102A20008A010C2E04C016950795F794E7940A9432
:102A3000D2F781E090E0A0E0B0E00C2E04C0880F57
:102A4000991FAA1FBB1F0A94D2F70197A109B109C8
:102A500082239323A423B52321E030E040E050E01B
:102A60000097A105B10519F420E030E0A9012E2955
:102A70003F29402B512B03C020E030E0A901DA01AF
:102A8000C9018F779070A070B07080349105A10556
:102A9000B10539F427FF09C0205C3F4F4F4F5F4F0E
:102AA00004C0215C3F4F4F4F5F4FE1E0F0E020302A
:102AB00080E0380780E0480780E4580728F5E0E028
:102AC000F0E022C0E038F1056CF5E158FF4FDA0183
:102AD000C9018F779070A070B07080349105A10506
:102AE000B10539F427FF09C0205C3F4F4F4F5F4FBE
:102AF00004C0215C3F4F4F4F5F4F57FF05C05695B5
:102B0000479537952795319687E0569547953795A0
:102B100027958A95D1F70BC0E0E0F0E005C0E0E032
:102B2000F0E005C0EFEFF0E020E030E0A9018E2FEB
:102B3000879588278795942F9F7767956627679550
:102B4000E695E22EA92FA82BFE2FF62B622F732FCE
:102B50008A2F9F2FCDB7DEB7E6E00C94A516DC01D7
:102B6000FB012C9111963C91119712968C91129722
:102B7000482F4F7750E0982F991F9927991F139648
:102B80006C911397862F880F892B90E0661F66271C
:102B9000661F6183009739F52115310541055105FF
:102BA00011F482E029C082E89FEF9383828367E07B
:102BB000220F331F441F551F6A95D1F783E080838E
:102BC00009C0220F331F441F551F82819381019733
:102BD00093838283203080E0380780E0480780E4D8
:102BE000580778F320C08F3F910579F421153105FE
:102BF0004105510519F484E08083089544FF03C022
:102C000081E0808310C010820EC08F579040938364
:102C1000828383E0808387E0220F331F441F551F88
:102C20008A95D1F75064248335834683578308956A
:102C3000FC01DB019081923008F449C08C91823014
:102C400008F445C0943051F461818430B1F5119697
:102C50002C91119730E0261B310941C0843021F0BE
:102C6000923041F48230B1F111968C911197882302
:102C7000A1F12DC06181823001F111968C911197E3
:102C80006817D9F42281338112968D919C91139704
:102C90008217930794F028173907BCF024813581F7
:102CA0004681578114968D919D910D90BC91A02DD8
:102CB00082179307A407B50718F4662341F00DC0E7
:102CC000281739074A075B0728F4662331F021E00B
:102CD00030E005C020E030E002C02FEF3FEFC90137
:102CE0000895991B79E004C0991F961708F0961B68
:102CF000881F7A95C9F7809508952F923F924F9239
:102D00005F926F927F928F929F92AF92BF92CF927B
:102D1000DF92EF92FF920F931F93CF93DF93CDB784
:102D2000DEB7CA1BDB0B0FB6F894DEBF0FBECDBFFC
:102D300009942A88398848885F846E847D848C84CD
:102D40009B84AA84B984C884DF80EE80FD800C81D6
:102D50001B81AA81B981CE0FD11D0FB6F894DEBFB9
:102D60000FBECDBFED01089503D0E39528C0CEC0BE
:102D70003FD0E8F3E894E0E0BB279F57F0F02AED5E
:102D80003FE049EC06C0EE0FBB0F661F771F881FA0
:102D900028F0B23A62077307840728F0B25A620B30
:102DA000730B840BE3959A9572F7803830F49A95FB
:102DB000BB0F661F771F881FD2F790489BC0EF9309
:102DC000E0FF06C0A2EA2AED3FE049EC5FEB37D016
:102DD000BFD00F90039401FC9058ECE8F0E099C04C
:102DE00057FD9058440F551F59F05F3F71F04795BC
:102DF000880F97FB991F61F09F3F79F087950895A1
:102E0000121613061406551FF2CF4695F1DF08C0BF
:102E1000161617061806991FF1CF869571056105DC
:102E20000894089587D030F08CD020F031F49F3F83
:102E300011F41EF46BC00EF4E095E7FB53C0E92FCC
:102E4000CFDF80F3BA17620773078407950718F07E
:102E500071F49EF58EC00EF4E0950B2EBA2FA02DC6
:102E60000B01B90190010C01CA01A0011124FF2737
:102E7000591B99F0593F50F4503E68F11A16F04032
:102E8000A22F232F342F4427585FF3CF4695379531
:102E90002795A795F0405395C9F77EF41F16BA0BF6
:102EA000620B730B840BBAF09150A1F0FF0FBB1FA4
:102EB000661F771F881FC2F70EC0BA0F621F731FED
:102EC000841F48F4879577956795B795F7959E3F4A
:102ED00008F0B3CF9395880F08F09927EE0F9795D8
:102EE0008795089597F99F6780E870E060E00895FE
:102EF0009F3F31F0915020F4879577956795B7956E
:102F0000880F911D9695879597F908959FEF80EC0E
:102F100008959F938F937F936F93FF93EF939B01FC
:102F2000AC0111DAEF91FF912BD02F913F914F918E
:102F30005F9109CA00240A94161617061806090696
:102F4000089500240A94121613061406050608951F
:102F5000092E0394000C11F4882352F0BB0F40F4A7
:102F6000BF2B11F460FF04C06F5F7F4F8F4F9F4FE7
:102F70000895E894BB2766277727CB0197F9089532
:102F8000DF93CF931F930F93FF92EF92DF927B011A
:102F90008C01689405C0DA2EEF0121D0FE01E8947F
:102FA000A5912591359145915591AEF3EF0147DFFC
:102FB000FE019701A801DA9479F7DF90EF90FF9076
:102FC0000F911F91CF91DF910895B4DF28F0B9DF01
:102FD00018F0952309F086CF99CF1124CBCF00DFCD
:102FE000A0F3959FD1F3950F50E0551F629FF0011C
:102FF000729FBB27F00DB11D639FAA27F00DB11D75
:10300000AA1F649F6627B00DA11D661F829F2227FD
:10301000B00DA11D621F739FB00DA11D621F839F84
:10302000A00D611D221F749F3327A00D611D231F5A
:10303000849F600D211D822F762F6A2F11249F57A8
:1030400050408AF0E1F088234AF0EE0FFF1FBB1FCB
:10305000661F771F881F91505040A9F79E3F51056A
:1030600070F040CF87CF5F3FECF3983EDCF386955E
:1030700077956795B795F795E7959F5FC1F7FE2B15
:10308000880F911D9695879597F90895F894FFCF2D
:103090000000A040000080404572726F722E2052E6
:1030A00065737461727400496E697469616C697AE0
:1030B0006520737563636573732E00000000000064
:1030C00000000000010202030303030404040404DB
:1030D00004040405050505050505050505050505A3
:1030E0000505050606060606060606060606060683
:1030F0000606060606060606060606060606060670
:103100000606060707070707070707070707070752
:10311000070707070707070707070707070707073F
:10312000070707070707070707070707070707072F
:10313000070707070707070707070707070707071F
:103140000707070808080808080808080808080802
:1031500008080808080808080808080808080808EF
:1031600008080808080808080808080808080808DF
:1031700008080808080808080808080808080808CF
:1031800008080808080808080808080808080808BF
:1031900008080808080808080808080808080808AF
:1031A000080808080808080808080808080808089F
:1031B000080808080808080808080808080808088F
:0431C00008080800F3
:00000001FF
