:100000000C9455000C9474000C9474000C947400BF
:100010000C9474000C9474000C9474000C94740090
:100020000C9474000C9474000C9474000C94740080
:100030000C9474000C9474000C947D0C0C9474005B
:100040000C9474000C9474000C94D1040C947400FF
:100050000C9474000C9474000C9474000C94740050
:100060000C9474000C9474000C9474000C94740040
:100070000C9474000C9474000C9485000C9474001F
:100080000C9474000C9474000C94740005A84CCD6E
:10009000B2D44EB93836A9020C50B9918688083CC2
:1000A000A6AAAA2ABE000000803F11241FBECFEFDF
:1000B000D0E1DEBFCDBF12E0A0E0B1E0E2EAFDE2B8
:1000C00000E00BBF02C007900D92A433B107D9F72F
:1000D00012E0A4E3B2E001C01D92A038B107E1F73D
:1000E0000E9448090C94CF160C94000010929B00BB
:1000F00088E980939A0086E080939D001092980092
:100100008FE580939900789408951F920F920FB60F
:100110000F9211248F939F9390919C0080919B004C
:10012000887BE1F381E080933402909335029F91C4
:100130008F910F900FBE0F901F90189580913502F0
:1001400010923502F89410923402789408959091A8
:100150009B0095FFFCCF80939C0008958FEF8093C8
:10016000730088E480937000089594EA909374007B
:100170009091740097FFFCCF9EE09093730094E8F9
:10018000909374009091740097FFFCCF809373005C
:1001900084E8809374008091740087FFFCCF84E929
:1001A000809374000895EF92FF920F931F93DF9353
:1001B000CF9300D0CDB7DEB7082F162F843070F55F
:1001C000643160F58BE149835A830E94B5008CE469
:1001D0000E94B500812F0E94B500802F0E94B500BB
:1001E00080E791E00197F1F700C0E12EFF244981FB
:1001F0005A81042F152F06C00E94B50094EC9A95E1
:10020000F1F700C0E4E1EE16F10444F4F801819145
:100210008F010894E11CF11C882371F70F900F9057
:10022000CF91DF911F910F91FF90EF9008951F9351
:10023000DF93CF9300D0CDB7DEB7182F8430F0F422
:100240006431E0F48BE12A8369830E94B5008CE479
:100250000E94B5006981862F0E94B500812F0E94FF
:10026000B50080E791E00197F1F700C02A81822F65
:100270000E94B50094EC9A95F1F700C00F900F9092
:10028000CF91DF911F9108958BE10E94B50083E427
:100290000E94B50086E696EEA0E081509040A04016
:1002A000E1F70895EF92FF920F931F93182FF62E08
:1002B000E42E842F64E60E94FA14082F282F30E0E1
:1002C000205D3F4F442737FD4095542F812F6F2DE0
:1002D0000E9417018CE9089F002D11240E0D802F1C
:1002E0006AE00E94FA14E82E6F2D6F5F282F30E02D
:1002F000205D3F4F442737FD4095542F812F0E94AA
:1003000017016F2D6E5F26EFE29E202D1124200F26
:1003100030E0205D3F4F442737FD4095542F812F1B
:100320000E9417011F910F91FF90EF90089590E0A8
:10033000FC01B096FE2FEE2720812093720220FD53
:10034000FBCF8896B82FAA278C9190819093720248
:1003500090FDFBCF089590E08096F82FEE278081E6
:100360008093720280FDFBCF608380818093720254
:1003700080FDFBCF0895A82FB0E0FD01B096FE2FC1
:10038000EE2780818093720280FDFBCF9896BA2F72
:10039000AA27872F992787FD9A958C938081809330
:1003A000720280FDFBCF6C9380818093720280FD8E
:1003B000FBCF0895DF92EF92FF920F931F93D82EF9
:1003C0007A018B019B01552737FD5095452FB901C7
:1003D0000E94BB018D2DB7010E94BB011F910F919F
:1003E000FF90EF90DF9008951F93182F60E00E9418
:1003F000AB018CEC9CE10197F1F700C00000812F6C
:100400006DE10E94AB01812F60E070E00E94BB01B2
:100410001F910895AF92BF92CF92DF92EF92FF9219
:100420000F931F93CF93DF93F82E6B01EA0189019D
:10043000AA24A3946115710509F4AA24BB24B394DA
:10044000209709F4BB24EE24E3940115110509F467
:10045000EE248F2D6EE10E94AB016B2D70E0660FD4
:10046000771F660F771F8A2D90E043E0880F991F52
:100470004A95E1F7682B792B8E2D90E0880F991F14
:10048000682B792B8F2D0E94BB01AA2021F08F2D84
:10049000B6010E94BB01BB2021F08F2DBE010E943E
:1004A000BB01EE2021F08F2DB8010E94BB018F2DE2
:1004B00064E00E94AB01DF91CF911F910F91FF90FB
:1004C000EF90DF90CF90BF90AF900895DF92EF92C2
:1004D000FF920F931F93D82E7A018B016FE10E9438
:1004E000AB018D2D60E270E00E94BB018D2DB80143
:1004F000A7010E94DA011F910F91FF90EF90DF900A
:10050000089580E067E070E043E050E021E030E0F3
:100510000E940A0281E067E070E043E050E021E0E1
:1005200030E00E940A0282E067E070E043E050E0C1
:1005300021E030E00E940A0280E04FEF5FEF6FEFB2
:100540007FE30E94660281E04FEF5FEF6FEF7FE392
:100550000E94660282E04FEF5FEF6FEF7FE30E9441
:1005600066020895DF92EF92FF920F931F93DF933D
:10057000CF930F92CDB7DEB7D82E7A018B0177FFDC
:100580000AC010950095F094E094E11CF11C011D47
:10059000111D90E001C091E08D2D6FE199830E94C3
:1005A000AB019981792F7295707F60E06860786007
:1005B0008D2D0E94BB018D2DB801A7010E94DA018B
:1005C0000F90CF91DF911F910F91FF90EF90DF90EF
:1005D00008954F925F926F927F928F929F92AF9207
:1005E000BF92CF92DF92EF92FF920F931F93982EBC
:1005F000862E29013A016FE10E94AB01682D70E05F
:100600006A62892D0E94BB01892DB301A2010E945B
:10061000DA01892DB801A7010E94DA01892DB601FE
:10062000A5010E94DA011F910F91FF90EF90DF90DA
:10063000CF90BF90AF909F908F907F906F905F9082
:100640004F9008958F929F92AF92BF92CF92DF9278
:10065000EF92FF920F931F93DF93CF9300D00F92EF
:10066000CDB7DEB71ABA15BA8FEF84BB109265000A
:1006700083E080936400E0E89E2E72E0A72E64E899
:10068000B62E6E010894C11CD11C85B3856085BB54
:1006900083E39BE20197F1F785B38A7F85BBECEC9E
:1006A000FCE13197F1F700C00000809165008D7F7B
:1006B00080936500AB9885B3887F85BB29B3298378
:1006C000A89A99B39A8385B3887F826085BB89B3E2
:1006D0008B83243C11F02438C1F5943C11F09438FC
:1006E000A1F5843C11F0843881F595BEA0926D008F
:1006F000B0926C00760100E010E28E2C8C18882DF0
:100700006DE10E94AB01882D60E070E00E94BB01AA
:10071000F8018081F70181937F0100501F4FF3E2C0
:1007200000301F0751F78981803C11F0803851F467
:100730008A81803C11F0803829F48B81803C69F0FB
:10074000803859F085B78F7385BF15BA80E060E0B7
:1007500040E051E00E94D30098CF80E060E04FE09D
:1007600051E00E94D30083E098B3976098BB2FEFCD
:100770003FEB46E0215030404040E1F700C0000030
:1007800098B3987F98BB2FEF3FEB46E02150304065
:100790004040E1F700C00000815031F70E94440161
:1007A0000F900F900F90CF91DF911F910F91FF90BD
:1007B000EF90DF90CF90BF90AF909F908F90089573
:1007C00080E061E00E94AB0181E061E00E94AB014A
:1007D00082E061E00E94AB0108951F93CF93DF9305
:1007E000182F80E06FE10E94AB01C1E0D0E002C0B1
:1007F000CC0FDD1F1A95E2F780E0BE010E94BB011D
:1008000081E06FE10E94AB0181E0BE010E94BB016B
:1008100082E06FE10E94AB0182E0BE010E94BB0159
:1008200080E061E00E94AB0181E061E00E94AB01E9
:1008300082E061E00E94AB01DF91CF911F910895AA
:10084000AF92BF92CF92DF92EF92FF920F931F93DE
:10085000DF93CF93CDB7DEB72C970FB6F894DEBFFA
:100860000FBECDBF59016A010E94E61169837A83E8
:100870008B839C83C601B5010E94E6116D837E8344
:100880008F839887C801B7010E94E61169877A872C
:100890008B879C878E010F5F1F4FEE24F8016081CC
:1008A00071818281938121E73CEA4BE85EE30E94FB
:1008B0002C109B01AC01F80121933193419351938A
:1008C0008F0120E030E040E857E40E942C100E94A5
:1008D0004612AB01BC018E2D0E94B202E394FE2DA4
:1008E000F330E1F60E94E0032C960FB6F894DEBFD9
:1008F0000FBECDBFCF91DF911F910F91FF90EF9071
:10090000DF90CF90BF90AF9008958BE00E94A7003A
:10091000809134028823E1F30E949E008823A9F38A
:1009200081E10E94A7008FEF0E94A700809134020E
:100930008823E1F30E949E00882391F30895DF93BA
:10094000CF9300D0CDB7DEB719821A82880F982FC7
:10095000990F990F980F690F6A838A810E94A700E7
:10096000809134028823E1F30E949E00898389816B
:100970000F900F90CF91DF91089582B1837E82B95D
:10098000E4E6F0E08081877E80831BB888E98AB93D
:1009900086E080939500109290008FE089B978945A
:1009A00008951F920F920FB60F920BB60F9211245B
:1009B0002F933F938F939F93EF93FF939CB18BB1B2
:1009C000887BE9F39F3F21F481E08093430247C095
:1009D00080914302813009F042C080914202E82FA9
:1009E000F0E0EA5CFD4F90838F5F8093420280913C
:1009F00042028B30A0F11092420280914202809319
:100A0000430280E090E030914102FC01EA5CFD4F3E
:100A10002081230F2093410201968A30910599F796
:100A2000809141028F3F29F4809141028F5F809332
:100A300041029091410280914002981771F480E048
:100A400090E0FC01EA5CFD4F2081FC01EA58FD4F7B
:100A5000208301968A309105A1F710924102FF91FF
:100A6000EF919F918F913F912F910F900BBE0F901F
:100A70000FBE0F901F9018952F923F924F925F924A
:100A80006F927F928F929F92AF92BF92CF92DF929E
:100A9000EF92FF920F931F93DF93CF93CDB7DEB703
:100AA00060970FB6F894DEBF0FBECDBF8C017B01FF
:100AB0001A01853B91051CF464EB70E002C06CE107
:100AC00072E0601B710B882777FD8095982F0E943C
:100AD000E6115B016C0160E070E084E393E4A60141
:100AE00095010E94FB0F28E939EF4EE85CE30E9474
:100AF0002C100E943D153B014C0160E070E084EB3E
:100B000092E4A60195010E94FB0F28E939EF4EE817
:100B10005CE30E942C100E943D155B016C0181E09A
:100B20000836180728F5B701882777FD8095982F94
:100B30000E94E6117B018C01A40193010E942C10FC
:100B40000E944612662E772E882E992EC801B70174
:100B5000A60195010E942C100E944612E62EF72E47
:100B6000082F192F5101CC24B7FCC094DC2C11C0E4
:100B700017FF04C0F094E194F108F3945701CC24DA
:100B8000B7FCC094DC2CEE24FF2487016624772474
:100B90004301C401B3010E94E6116D877E878F87F0
:100BA000988BC801B7010E94E6111B012C0122E0BD
:100BB0003BE247E05DE30E942C10162FF72E982EA3
:100BC000892EC601B5010E94E6112EE432E640E10D
:100BD0005EE30E942C10A62EE72E082F692E6D854D
:100BE0007E858F85988925ED38E749E65DE30E948B
:100BF0002C10F401212F3F2D4F2F5E2F0E94CE0F7E
:100C00002A2D3E2D402F562D0E94CE0F69837A83C8
:100C10008B839C83C201B10128EB3EE145E85DEB8B
:100C20000E942C102A2D3E2D402F562D0E94CE0FB3
:100C30006D837E838F8398876D857E858F85988968
:100C400025ED38E749E65DEB0E942C10F401212FD9
:100C50003F2D4F2F5E2F0E94CE0F2A2D3E2D402F6D
:100C6000562D0E94CE0F69877A878B879C878E01CD
:100C70000F5F1F4FEE245801F8016081718182815E
:100C8000938120E030E040E252E40E94561187FD5B
:100C900009C080E090E0A0E2B2E4F8018083918393
:100CA000A283B383F801608171818281938120E006
:100CB00030E040E252EC0E94B61118164CF080E091
:100CC00090E0A0E2B2ECF80180839183A283B38329
:100CD0000C5F1F4FF501608171818281938120E05B
:100CE00030E040E857E40E942C100E944612AB010D
:100CF000BC018E2D0E94B202E394FE2DF33009F068
:100D0000BACF0E94E00360960FB6F894DEBF0FBE24
:100D1000CDBFCF91DF911F910F91FF90EF90DF90AA
:100D2000CF90BF90AF909F908F907F906F905F908B
:100D30004F903F902F9008952F923F924F925F9245
:100D40006F927F928F929F92AF92BF92CF92DF92DB
:100D5000EF92FF920F931F93DF93CF9300D0CDB705
:100D6000DEB79A8389831A017901882777FD8095F8
:100D7000982F0E94E61160934A0270934B02809371
:100D80004C0290934D0280E090E0A0EAB0E48093A2
:100D9000230190932401A0932501B09326018FEFA6
:100DA0008DBD80E78CBD109245021092440280E018
:100DB00090E0DC018093620290936302A09364024E
:100DC000B0936502442455245701CC24DD240F2E12
:100DD000F0E06F2EF0E07F2EF8E48F2EF2E49F2EED
:100DE000F02D6091460270914702809148029091E7
:100DF00049020E9446129B01AC0189819A81B90186
:100E000040E050E00E943C05E0906202F0906302F6
:100E10000091640210916502C201B1010E94981212
:100E20009B01AC01C801B7010E94561187FF1DC08C
:100E3000E0906202F09063020091640210916502FA
:100E4000C601B5010E9498129B01AC01C801B7010F
:100E50000E94561187FDC5CF60924A0270924B02E4
:100E600080924C0290924D02BCCF0F900F90CF9188
:100E7000DF911F910F91FF90EF90DF90CF90BF9087
:100E8000AF909F908F907F906F905F904F903F902A
:100E90002F9008952F923F924F925F926F927F9280
:100EA0008F929F92AF92BF92CF92DF92EF92FF927A
:100EB0000F931F93DF93CF93CDB7DEB72D970FB668
:100EC000F894DEBF0FBECDBF3B014C0159016A0152
:100ED00080E090E0DC0189839A83AB83BC838D83BF
:100EE0009E83AF83B88789879A87AB87BC87611455
:100EF00071048104910471F42115310541055105F6
:100F000049F4E114F1040105110521F489E090E0B0
:100F10000E94ED03C401B3010E94E6111B012C01E4
:100F2000C601B5010E94E6113B014C0122E03BE203
:100F300047E05DE30E942C10D62EC72EB82E9D8769
:100F4000C801B7010E94E61129E23CE54FE05EE3EB
:100F50000E942C10A62EE72E8C01C201B10122E4C2
:100F600030E645E65DE30E942C10D601ED852B2F7F
:100F70003A2F4B2D5E2F0E94CE0F2A2D3E2D402F53
:100F8000512F0E94CE0F69837A838B839C83C40187
:100F9000B30128EB3EE145E85DEB0E942C102A2DC1
:100FA0003E2D402F512F0E94CE0F6D837E838F8365
:100FB0009887C201B10122E430E645E65DEB0E946C
:100FC0002C10D601ED852B2F3A2F4B2D5E2F0E9432
:100FD000CE0F2A2D3E2D402F512F0E94CE0F698714
:100FE0007A878B879C878E010F5F1F4FEE245801F5
:100FF000F801608171818281938120E030E040E2DC
:1010000052E40E94561187FD09C080E090E0A0E202
:10101000B2E4F80180839183A283B383F8016081F5
:1010200071818281938120E030E040E252EC0E94A5
:10103000B61118164CF080E090E0A0E2B2ECF80196
:1010400080839183A283B3830C5F1F4FF50160817E
:1010500071818281938120E030E040E857E40E9472
:101060002C100E944612AB01BC018E2D0E94B202D0
:10107000E394FE2DF33009F0BACF0E94E0032D96E1
:101080000FB6F894DEBF0FBECDBFCF91DF911F9199
:101090000F91FF90EF90DF90CF90BF90AF909F9017
:1010A0008F907F906F905F904F903F902F9008951A
:1010B000DF92EF92FF920F931F93109245021092CE
:1010C00044028091630091B18695869586958095BE
:1010D000837090959C71892B90E09C0121703070F9
:1010E00080FF07C0109245021092440243E050E096
:1010F00002C04DEF5FEF609144027091450263338F
:101100007105A0F4BC016C7170706C31710571F0E7
:1011100082FD0EC084FD0FC02115310579F480E0F9
:1011200090E066E970E00E943C05CBCFDD2408C06A
:1011300022E0D22E05C093E0D92E02C084E0D82E42
:1011400060E070E0CB0120E030E0A901EE24FF2454
:1011500087010E944A078D2D90E01F910F91FF900B
:10116000EF90DF900895EF92FF920F931F93CF932C
:10117000DF93C0E0D0E08091630091B186958695C1
:1011800086958095837090959C71892B90E080FD69
:1011900016C082FD02C0C3E0D0E084FD02C0CDEFE6
:1011A000DFEF8C719070009711F0C0E0D0E080E02C
:1011B00090E068EC70E0AE010E943C05DCCF60E09E
:1011C00070E0CB0120E030E0A901EE24FF2487018C
:1011D0000E944A07DF91CF911F910F91FF90EF90EE
:1011E0000895DF92EF92FF920F931F9310924502A2
:1011F000109244028091630091B186958695869500
:101200008095837090959C71892B90E083FF07C037
:10121000109245021092440243E050E002C04DEFAC
:101220005FEF20914402309145022333310598F459
:101230009C012C7130702C31310569F082FD0DC09C
:1012400084FD0EC080FD0FC080E090E066E970E094
:101250000E943C05CFCFDD2408C052E0D52E05C04A
:1012600043E0D42E02C034E0D32E60E070E0CB0126
:1012700020E030E0A901EE24FF2487010E944A0704
:101280008D2D90E01F910F91FF90EF90DF900895CA
:101290008F929F92AF92BF92CF92DF92EF92FF9286
:1012A0000F931F93CF93DF930E94AE000E942203FF
:1012B0000E9476000E9481020E94BD048FE087BBDD
:1012C0001FBC85E08EBD8FEF8DBD80E78CBD84E0B7
:1012D00087BF7894B49986C00E94F10880E090E0BE
:1012E00066E970E046E950E024E630E00E949C06A2
:1012F00010C060E070E0CB0120E030E0A901ACE973
:10130000EA2EAFEFFA2EAFEF0A2FAFEF1A2F0E949F
:101310004A078091630081B190E08095909583FFAA
:10132000E8CF0E94F10880E090E066E970E046E9CD
:1013300050E020E030E00E949C068FEF9FEFA9E58F
:1013400081509040A040E1F700C000000DC060E077
:1013500070E0CB0120E030E0A901F4E6EF2EF12CA3
:10136000012D112D0E944A078091630081B190E008
:101370008095909583FFEBCF0E94F10880E090E08C
:1013800066E970E046E950E020E030E00E949C060B
:101390008FEF9FEFA9E581509040A040E1F700C09A
:1013A00000000DC060E070E0CB0120E030E0A9015A
:1013B000E4E6EE2EF12C012D112D0E944A078091BA
:1013C000630081B190E08095909583FFEBCF60E062
:1013D00070E0CB0120E030E0A901EE24FF2487017A
:1013E0000E944A07B59927C00E94B30880E090E0A8
:1013F0006AEF70E046E950E024E630E00E949C0687
:101400000DC060E070E0CB0120E030E0A901B1E464
:10141000EB2EF12C012D112D0E944A0780916300C3
:1014200091B186958695869590E08095909580FF00
:10143000E8CF0E945808B6994DCFAA24BB2488242F
:1014400099240E94F1088091630081B190E0809519
:10145000909584FF08C08091630081B190E08095F1
:10146000909583FD11C08091630081B190E08095DB
:10147000909582FF0FC08091630081B190E08095CC
:10148000909583FD0AC006C0C0E0D0E0A1E0CA2E5E
:10149000D12C07C0C0E0D0E002C0C1E0D0E0CC2435
:1014A000DD2480E062E04C2F0E94520180E065E084
:1014B0004C2D0E945201209709F442C080E090E038
:1014C0006AEF70E046E950E024E630E00E949C06B6
:1014D00060E070E0CB0120E030E0A901FFEBEF2EEF
:1014E000FFEFFF2EFFEF0F2FFFEF1F2F0E944A0786
:1014F0008FEF9FEFA8E081509040A040E1F700C03F
:10150000000010C060E070E0CB0120E030E0A901F5
:10151000EFEBEE2EEFEFFE2EEFEF0E2FEFEF1E2F85
:101520000E944A078091630081B190E08095909578
:1015300083FFE8CFA114B10419F4B1E48B2E912CF0
:10154000C114D10409F453C080E090E06AEF70E068
:1015500046E950E024E630E00E949C0660E070E03E
:10156000CB0120E030E0A901A1E4EA2EF12C012D0D
:10157000112D0E944A078FEF9FEFA8E08150904005
:10158000A040E1F700C000000DC060E070E0CB01BA
:1015900020E030E0A901F1E4EF2EF12C012D112D16
:1015A0000E944A078091630081B190E080959095F8
:1015B00083FFEBCF0DC060E070E0CB0120E030E0B6
:1015C000A901EEE1EE2EF12C012D112D0E944A070A
:1015D0008091630081B190E08095909583FDEBCF81
:1015E000A114B10421F41FEB812E1FEF912E0E9454
:1015F000F108209709F44CC080E090E06AEF70E0B9
:1016000046E950E024E630E00E949C0660E070E08D
:10161000CB0120E030E0A901B1E4EB2EF12C012D4B
:10162000112D0E944A078FEF9FEFA8E08150904054
:10163000A040E1F700C000000DC060E070E0CB0109
:1016400020E030E0A901A1E4EA2EF12C012D112DBA
:101650000E944A078091630081B190E08095909547
:1016600083FFEBCF0DC060E070E0CB0120E030E005
:10167000A901FEE1EF2EF12C012D112D0E944A0748
:101680008091630081B190E08095909583FDEBCFD0
:10169000C114D104E1F180E090E06AEF70E046E926
:1016A00050E024E630E00E949C0660E070E0CB0150
:1016B00020E030E0A901EFEBEE2EEFEFFE2EEFEF92
:1016C0000E2FEFEF1E2F0E944A078FEF9FEFA8E02B
:1016D00081509040A040E1F700C0000010C060E0E1
:1016E00070E0CB0120E030E0A901BFEBEB2EBFEFB3
:1016F000FB2EBFEF0B2FBFEF1B2F0E944A078091DD
:10170000630081B190E08095909583FFE8CF0894C5
:10171000A11CB11C94E0A916B10409F092CE80E09E
:1017200090E06AEF70E046E950E024E630E00E9485
:101730009C06A1E48A16910409F05EC060E070E0A6
:10174000CB0120E030E0A901A1E4EA2EF12C012D2B
:10175000112D0E944A078FEF9FEFA8E08150904023
:10176000A040E1F700C000000DC060E070E0CB01D8
:1017700020E030E0A901F1E4EF2EF12C012D112D34
:101780000E944A078091630081B190E08095909516
:1017900083FFEBCF0DC060E070E0CB0120E030E0D4
:1017A000A901EEE1EE2EF12C012D112D0E944A0728
:1017B0008091630081B190E08095909583FDEBCF9F
:1017C0000E94F10810C060E070E0CB0120E030E042
:1017D000A901BFEBEB2EBFEFFB2EBFEF0B2FBFEF2F
:1017E0001B2F0E944A078091630081B190E0809591
:1017F000909583FFE8CF50C09FEB89169FEF990625
:1018000009F04AC060E070E0CB0120E030E0A901BF
:10181000AFEBEA2EAFEFFA2EAFEF0A2FAFEF1A2F92
:101820000E944A078FEF9FEFA8E081509040A040B0
:10183000E1F700C0000010C060E070E0CB0120E0E4
:1018400030E0A901FFEBEF2EFFEFFF2EFFEF0F2F90
:10185000FFEF1F2F0E944A078091630081B190E043
:101860008095909583FFE8CF0E94F1080DC060E05D
:1018700070E0CB0120E030E0A901E1E4EE2EF12C94
:10188000012D112D0E944A078091630081B190E0E3
:101890008095909583FFEBCF64E670E080E090E068
:1018A00020E030E0A901EE24FF2487010E944A07CE
:1018B0008FEF9FE7A6E181509040A040E1F700C084
:1018C000000062E370E080E090E022E330E040E07E
:1018D00050E00E9420048FEF9FEFA4E781509040DA
:1018E000A040E1F700C0000060E070E0CB0120E024
:1018F00030E0A9010E944A07EDCC1F920F920FB66B
:101900000F920BB60F921124EF92FF920F931F9339
:101910002F933F934F935F936F937F938F939F93F7
:10192000AF93BF93EF93FF938FEF8DBD80E78CBD97
:1019300080914402909145020196909345028093D4
:101940004402E0906202F090630200916402109100
:101950006502609146027091470280914802909121
:1019600049022AE037ED43E25CE30E942C109B0120
:10197000AC01C801B7010E94CE0F9B01AC012093BE
:101980006202309363024093640250936502E090D8
:101990005E02F0905F02009160021091610260911E
:1019A0006E0270916F0280917002909171022AE034
:1019B00037ED43E25CE30E942C109B01AC01C801AF
:1019C000B7010E94CE0F9B01AC0120935E023093C1
:1019D0005F024093600250936102E0905602F090E3
:1019E000570200915802109159026091660270915D
:1019F000670280916802909169022AE037ED43E224
:101A00005CE30E942C109B01AC01C801B7010E944D
:101A1000CE0F9B01AC0120935602309357024093A6
:101A2000580250935902E0905A02F0905B020091E4
:101A30005C0210915D0260916A0270916B0280916C
:101A40006C0290916D022AE037ED43E25CE30E9464
:101A50002C109B01AC01C801B7010E94CE0F9B0165
:101A6000AC0120935A0230935B0240935C02509386
:101A70005D0260914A0270914B0280914C029091FC
:101A80004D02209146023091470240914802509108
:101A900049020E942611181694F560914602709131
:101AA0004702809148029091490220912301309190
:101AB000240140912501509126010E94CE0F9B01E7
:101AC000AC01209346023093470240934802509362
:101AD000490260914A0270914B0280914C029091B0
:101AE0004D022091460230914702409148025091A8
:101AF00049020E94B61118160CF455C044C06091FA
:101B00004A0270914B0280914C0290914D022091BB
:101B100046023091470240914802509149020E948A
:101B2000861187FF40C06091460270914702809104
:101B30004802909149022091230130912401409163
:101B40002501509126010E94FB0F9B01AC012093BF
:101B500046023093470240934802509349026091F5
:101B60004A0270914B0280914C0290914D0220915B
:101B700046023091470240914802509149020E942A
:101B8000561187FD10C080914A0290914B02A0919E
:101B90004C02B0914D028093460290934702A0936D
:101BA0004802B093490260915202709153028091B1
:101BB00054029091550220914E0230914F02409173
:101BC0005002509151020E942611181694F560910E
:101BD0004E0270914F0280915002909151022091DB
:101BE0002701309128014091290150912A010E943A
:101BF000CE0F9B01AC0120934E0230934F024093D5
:101C000050025093510260915202709153028091A0
:101C100054029091550220914E0230914F02409112
:101C20005002509151020E94B61118160CF455C082
:101C300044C060915202709153028091540290917D
:101C4000550220914E0230914F0240915002509126
:101C500051020E94861187FF40C060914E02709130
:101C60004F028091500290915102209127013091B2
:101C700028014091290150912A010E94FB0F9B01EC
:101C8000AC0120934E0230934F0240935002509388
:101C900051026091520270915302809154029091CE
:101CA000550220914E0230914F02409150025091C6
:101CB00051020E94561187FD10C0809152029091EE
:101CC0005302A0915402B091550280934E0290931A
:101CD0004F02A0935002B0935102FF91EF91BF9138
:101CE000AF919F918F917F916F915F914F913F91B4
:101CF0002F911F910F91FF90EF900F900BBE0F90BF
:101D00000FBE0F901F901895A0E0B0E0EAE8FEE04B
:101D10000C940A15FC01EA018081823008F438C174
:101D2000DB019C91923008F430C1843059F4943036
:101D300009F02EC1918111968C911197981709F095
:101D400021C126C1943009F420C19230B1F482300F
:101D500009F01EC1CA01AF0128E0DA010D90AD0102
:101D6000DC010D92CD012150C1F7DB0111968C9160
:101D700011979181892389830AC1823009F405C1B1
:101D8000C280D380DB0112966D907C9013972481E2
:101D90003581468157811496ED90FD900D911C91EF
:101DA0001797C601861997095C0197FF04C0AA24FA
:101DB000BB24A81AB90AB0E2AB16B1040CF061C09A
:101DC000181619066CF5370148010A2C04C09694C0
:101DD0008794779467940A94D2F781E090E0A0E02A
:101DE000B0E00A2C04C0880F991FAA1FBB1F0A94D9
:101DF000D2F70197A109B1098E219F21A023B12318
:101E0000EE24FF248701E3940097A105B10519F49E
:101E1000EE24FF248701E628F728082919293CC069
:101E20000097D1F1CA0CDB1C39014A010A2C04C00D
:101E300096948794779467940A94D2F781E090E01F
:101E4000A0E0B0E00A2C04C0880F991FAA1FBB1F96
:101E50000A94D2F70197A109B10982239323A423FD
:101E6000B52321E030E040E050E00097A105B10546
:101E700019F420E030E0A9012629372948295929F9
:101E80000BC06C147D0424F4EE24FF24870104C0ED
:101E9000630120E030E0A9018181FB019181891774
:101EA00009F445C0882349F0D801C701821B930B70
:101EB000A40BB50B9C01AD0104C02E193F09400BCA
:101EC000510B57FD04C01982DB82CA820BC081E02E
:101ED0008983DB82CA8250954095309521953F4F8A
:101EE0004F4F5F4F2C833D834E835F830DC0880F20
:101EF000991FAA1FBB1F8C839D83AE83BF838A81DA
:101F00009B8101979B838A838C819D81AE81BF8158
:101F10009C01AD0121503040404050402F3FEFEF39
:101F20003E07EFEF4E07EFE35E0708F30BC0898330
:101F3000DB82CA822E0D3F1D401F511F2C833D8323
:101F40004E835F8383E088832C813D814E815F8156
:101F500057FF1DC0DA01C90181709070A070B07088
:101F60005695479537952795822B932BA42BB52B08
:101F70008C839D83AE83BF838A819B8101969B83E3
:101F80008A8305C0EBE2F1E003C0FB0101C0FE0162
:101F9000CF01CDB7DEB7EEE00C942615A0E2B0E09D
:101FA000E4EDFFE00C94121569837A838B839C83A4
:101FB0002D833E834F83588789E0E82EF12CEC0E69
:101FC000FD1ECE010196B7010E9438148E010F5EEE
:101FD0001F4FCE010596B8010E943814C701B80101
:101FE000AE01475E5F4F0E94840E0E946A13A09666
:101FF000E6E00C942E15A0E2B0E0E1E0F0E10C94F4
:10200000121569837A838B839C832D833E834F8350
:1020100058878E01075F1F4FCE010196B8010E94BD
:10202000381491E1E92EF12CEC0EFD1ECE0105963F
:10203000B7010E9438148A8991E089278A8BC801E8
:10204000B701AE01475E5F4F0E94840E0E946A1383
:10205000A096E6E00C942E15A0E2B0E0E2E3F0E1F9
:102060000C94061569837A838B839C832D833E832E
:102070004F835887CE010196BE01675F7F4F0E9454
:102080003814CE010596BE016F5E7F4F0E94381452
:102090009985923078F089898230C0F0943019F4B3
:1020A000823041F4CBC0843019F4923079F4C6C048
:1020B000923051F481E02A859A89291709F480E049
:1020C0008A87CE010996BCC0823051F481E02A850E
:1020D0009A89291709F480E08A8BCE014196B0C015
:1020E0006D847E848F849888ED88FE880F89188D92
:1020F000E0E2F0E080E090E0DC01AA24BB2465018E
:1021000020E030E0A901B3016170707061157105C4
:10211000D1F02E0D3F1D401F511F15012601280E25
:10212000391E4A1E5B1E81E090E0A0E0B0E02E1553
:102130003F054007510718F080E090E0DC01820D78
:10214000931DA41DB51DAA0CBB1CCC1CDD1C17FFC8
:1021500009C061E0262E312C412C512CA228B32835
:10216000C428D528319749F0EE0CFF1C001F111F21
:102170009694879477946794C6CF6B897C89EB8516
:10218000FC856E0F7F1F6E5F7F4F7C8F6B8F61E0D2
:10219000EA857A89E71709F460E06A8F6B8D7C8D98
:1021A00010C0FC01E170F070309729F0569547950A
:1021B000379527955068B695A795979587956F5F42
:1021C0007F4FB7FDEECF0CC0880F991FAA1FBB1F12
:1021D00057FD8160220F331F441F551F615070400F
:1021E0008030E0E09E07E0E0AE07E0E4BE0760F389
:1021F0006B8F7C8F6FE7E62EF12C012D112DE822DD
:10220000F9220A231B2360E4E616F10401051105F7
:1022100061F487FD0AC0211531054105510529F0FA
:10222000805C9F4FAF4FBF4F80788D8F9E8FAF8F59
:10223000B8A383E0898FCE01499602C08BE291E07A
:102240000E946A13A096E2E10C942215A8E1B0E086
:10225000ECE2F1E10C94121569837A838B839C8301
:102260002D833E834F8358878E01075F1F4FCE011A
:102270000196B8010E94381481E1E82EF12CEC0E91
:10228000FD1ECE010596B7010E9438148985823063
:1022900040F08989823028F0C801B7010E94A1145A
:1022A00001C08FEF6896E6E00C942E15A8E1B0E02F
:1022B000ECE5F1E10C94121569837A838B839C839E
:1022C0002D833E834F8358878E01075F1F4FCE01BA
:1022D0000196B8010E94381481E1E82EF12CEC0E31
:1022E000FD1ECE010596B7010E9438148985823003
:1022F00040F08989823028F0C801B7010E94A114FA
:1023000001C08FEF6896E6E00C942E15A8E1B0E0CE
:10231000ECE8F1E10C94121569837A838B839C833A
:102320002D833E834F8358878E01075F1F4FCE0159
:102330000196B8010E94381481E1E82EF12CEC0ED0
:10234000FD1ECE010596B7010E94381489858230A2
:1023500040F08989823028F0C801B7010E94A11499
:1023600001C081E06896E6E00C942E15A8E1B0E08B
:10237000ECEBF1E10C94121569837A838B839C83D7
:102380002D833E834F8358878E01075F1F4FCE01F9
:102390000196B8010E94381481E1E82EF12CEC0E70
:1023A000FD1ECE010596B7010E9438148985823042
:1023B00040F08989823028F0C801B7010E94A11439
:1023C00001C081E06896E6E00C942E15A8E0B0E02C
:1023D000ECEEF1E10C9412157B018C0183E0898312
:1023E000D801C7018827B7FD83959927AA27BB275E
:1023F000282F8A83E114F1040105110519F482E004
:10240000898337C08EE190E09C838B83222389F0FF
:1024100080E0E81680E0F80680E0080780E818070A
:1024200069F110950095F094E094E11CF11C011DF8
:10243000111DED82FE820F831887C801B7010E942B
:1024400010139C01215030401216130694F4022EF2
:1024500004C0EE0CFF1C001F111F0A94D2F7ED827E
:10246000FE820F8318878EE190E0821B930B9C8382
:102470008B83CE0101960E946A1304C060E070E075
:1024800080E09FEC2896E6E00C942E15ACE0B0E0DE
:10249000ECE4F2E10C94161569837A838B839C83B8
:1024A000CE010196BE016B5F7F4F0E9438148D8173
:1024B000823081F1823070F1843021F48E81882362
:1024C00069F10AC02F81388537FD24C06E812F3114
:1024D00031053CF0662311F120E030E040E050E8A7
:1024E00021C08EE190E0821B930B29853A854B85B4
:1024F0005C8504C056954795379527958A95D2F700
:10250000662381F050954095309521953F4F4F4F70
:102510005F4F08C020E030E0A90104C02FEF3FEF7B
:102520004FEF5FE7B901CA012C96E2E00C94321537
:10253000A8E0B0E0EEE9F2E10C9410157B018C010B
:102540001A82611571058105910519F482E089836C
:102550005FC083E089838EE1C82ED12CDC82CB82E0
:10256000ED82FE820F831887C801B7010E94101305
:10257000FC013197F7FF3AC0AA27BB27AE1BBF0B60
:1025800021E030E040E050E00A2E04C0220F331F6B
:10259000441F551F0A94D2F721503040404050400C
:1025A0002E213F214023512361E070E080E090E044
:1025B000211531054105510519F460E070E0CB01AA
:1025C00004C016950795F794E794AA95D2F7E62AE2
:1025D000F72A082B192BED82FE820F8318878EE1D4
:1025E00090E08E1B9F0B9C838B8312C0309781F0F1
:1025F0000E2E04C0EE0CFF1C001F111F0A94D2F710
:10260000ED82FE820F831887CE1ADF0ADC82CB822E
:10261000CE0101960E946A132896E8E00C942C15CE
:10262000AF92BF92CF92DF92EF92FF920F931F93E0
:102630007B018C0180E0E81680E0F80681E0080765
:1026400080E0180758F4EFEFEE16F10401051105CC
:1026500009F090F480E090E0DC0117C0F0E0EF16A4
:10266000F0E0FF06F0E00F07F1E01F0750F480E113
:1026700090E0A0E0B0E009C088E090E0A0E0B0E029
:1026800004C088E190E0A0E0B0E020E230E040E06B
:1026900050E0281B390B4A0B5B0B5701680104C043
:1026A000D694C794B794A7948A95D2F7D601C5015A
:1026B0008D5C9E4FFC018081281B31094109510925
:1026C000C9011F910F91FF90EF90DF90CF90BF90C5
:1026D000AF900895EF92FF920F931F93CF93DF93E4
:1026E000FC0124813581468157816181808182305E
:1026F00020F44061EFEFF0E0A3C0843009F49BC008
:10270000823009F492C0211531054105510509F4C3
:102710008FC00280F381E02D8FEFE238F8070CF0D4
:102720005AC0C2E8DFEFCE1BDF0BCA31D1056CF512
:1027300079018A010C2E04C016950795F794E79449
:102740000A94D2F781E090E0A0E0B0E00C2E04C043
:10275000880F991FAA1FBB1F0A94D2F70197A109DE
:10276000B10982239323A423B52321E030E040E084
:1027700050E00097A105B10519F420E030E0A9016F
:102780002E293F29402B512B03C020E030E0A90126
:10279000DA01C9018F779070A070B0708034910514
:1027A000A105B10539F427FF09C0205C3F4F4F4F09
:1027B0005F4F04C0215C3F4F4F4F5F4FE1E0F0E0BF
:1027C000203080E0380780E0480780E4580728F58B
:1027D000E0E0F0E022C0E038F1056CF5E158FF4F91
:1027E000DA01C9018F779070A070B07080349105C4
:1027F000A105B10539F427FF09C0205C3F4F4F4FB9
:102800005F4F04C0215C3F4F4F4F5F4F57FF05C0E4
:102810005695479537952795319687E05695479574
:10282000379527958A95D1F70BC0E0E0F0E005C019
:10283000E0E0F0E005C0EFEFF0E020E030E0A901DB
:102840008E2F879588278795942F9F776795662782
:102850006795E695E22EA92FA82BFE2FF62B622F67
:10286000732F8A2F9F2FCDB7DEB7E6E00C942E157D
:10287000DC01FB012C9111963C91119712968C91E1
:102880001297482F4F7750E0982F991F9927991F3B
:1028900013966C911397862F880F892B90E0661FF3
:1028A0006627661F6183009739F5211531054105BB
:1028B000510511F482E029C082E89FEF938382835F
:1028C00067E0220F331F441F551F6A95D1F783E03D
:1028D000808309C0220F331F441F551F82819381BB
:1028E000019793838283203080E0380780E0480797
:1028F00080E4580778F320C08F3F910579F42115C3
:1029000031054105510519F484E08083089544FFA1
:1029100003C081E0808310C010820EC08F579040AA
:102920009383828383E0808387E0220F331F441FD9
:10293000551F8A95D1F75064248335834683578386
:102940000895FC01DB019081923008F449C08C911C
:10295000823008F445C0943051F461818430B1F57F
:1029600011962C91119730E0261B310941C084301B
:1029700021F0923041F48230B1F111968C9111978F
:102980008823A1F12DC06181823001F111968C91D3
:1029900011976817D9F42281338112968D919C91F9
:1029A00013978217930794F028173907BCF02481F6
:1029B00035814681578114968D919D910D90BC91E2
:1029C000A02D82179307A407B50718F4662341F0DA
:1029D0000DC0281739074A075B0728F4662331F032
:1029E00021E030E005C020E030E002C02FEF3FEFF3
:1029F000C9010895991B79E004C0991F961708F042
:102A0000961B881F7A95C9F7809508952F923F925B
:102A10004F925F926F927F928F929F92AF92BF92EE
:102A2000CF92DF92EF92FF920F931F93CF93DF939A
:102A3000CDB7DEB7CA1BDB0B0FB6F894DEBF0FBEF7
:102A4000CDBF09942A88398848885F846E847D8444
:102A50008C849B84AA84B984C884DF80EE80FD8046
:102A60000C811B81AA81B981CE0FD11D0FB6F894BC
:102A7000DEBF0FBECDBFED01089503D0E39528C0A2
:102A8000CEC03FD0E8F3E894E0E0BB279F57F0F0DA
:102A90002AED3FE049EC06C0EE0FBB0F661F771F23
:102AA000881F28F0B23A62077307840728F0B25AE9
:102AB000620B730B840BE3959A9572F7803830F4B0
:102AC0009A95BB0F661F771F881FD2F790489BC04F
:102AD000EF93E0FF06C0A2EA2AED3FE049EC5FEB8E
:102AE00037D0BFD00F90039401FC9058ECE8F0E091
:102AF00099C057FD9058440F551F59F05F3F71F032
:102B00004795880F97FB991F61F09F3F79F0879554
:102B10000895121613061406551FF2CF4695F1DFDD
:102B200008C0161617061806991FF1CF869571056D
:102B300061050894089587D030F08CD020F031F4EE
:102B40009F3F11F41EF46BC00EF4E095E7FB53C0F9
:102B5000E92FCFDF80F3BA17620773078407950761
:102B600018F071F49EF58EC00EF4E0950B2EBA2F7E
:102B7000A02D0B01B90190010C01CA01A001112483
:102B8000FF27591B99F0593F50F4503E68F11A162F
:102B9000F040A22F232F342F4427585FF3CF4695C0
:102BA00037952795A795F0405395C9F77EF41F16E2
:102BB000BA0B620B730B840BBAF09150A1F0FF0FAC
:102BC000BB1F661F771F881FC2F70EC0BA0F621F98
:102BD000731F841F48F4879577956795B795F79588
:102BE0009E3F08F0B3CF9395880F08F09927EE0F1A
:102BF00097958795089597F99F6780E870E060E062
:102C000008959F3F31F0915020F48795779567950F
:102C1000B795880F911D9695879597F908959FEF21
:102C200080EC08959F938F937F936F93FF93EF931F
:102C30009B01AC0111DAEF91FF912BD02F913F91C5
:102C40004F915F9109CA00240A94161617061806B8
:102C50000906089500240A941216130614060506A0
:102C60000895092E0394000C11F4882352F0BB0F31
:102C700040F4BF2B11F460FF04C06F5F7F4F8F4F94
:102C80009F4F0895E894BB2766277727CB0197F9D4
:102C90000895DF93CF931F930F93FF92EF92DF92EC
:102CA0007B018C01689405C0DA2EEF0121D0FE0172
:102CB000E894A5912591359145915591AEF3EF0199
:102CC00047DFFE019701A801DA9479F7DF90EF90D2
:102CD000FF900F911F91CF91DF910895B4DF28F0FD
:102CE000B9DF18F0952309F086CF99CF1124CBCF07
:102CF00000DFA0F3959FD1F3950F50E0551F629F21
:102D0000F001729FBB27F00DB11D639FAA27F00D44
:102D1000B11DAA1F649F6627B00DA11D661F829F6B
:102D20002227B00DA11D621F739FB00DA11D621F50
:102D3000839FA00D611D221F749F3327A00D611D6D
:102D4000231F849F600D211D822F762F6A2F11244F
:102D50009F5750408AF0E1F088234AF0EE0FFF1FA2
:102D6000BB1F661F771F881F91505040A9F79E3FD9
:102D7000510570F040CF87CF5F3FECF3983EDCF316
:102D8000869577956795B795F795E7959F5FC1F716
:102D9000FE2B880F911D9695879597F90895F894C5
:022DA000FFCF63
:102DA2004572726F722E205265737461727400499B
:102DB2006E697469616C697A6520737563636573A2
:102DC200732E000000A040000080400000000000C0
:102DD20000000000010202030303030404040404CC
:102DE2000404040505050505050505050505050594
:102DF2000505050606060606060606060606060674
:102E02000606060606060606060606060606060660
:102E12000606060707070707070707070707070743
:102E22000707070707070707070707070707070730
:102E32000707070707070707070707070707070720
:102E42000707070707070707070707070707070710
:102E520007070708080808080808080808080808F3
:102E620008080808080808080808080808080808E0
:102E720008080808080808080808080808080808D0
:102E820008080808080808080808080808080808C0
:102E920008080808080808080808080808080808B0
:102EA20008080808080808080808080808080808A0
:102EB2000808080808080808080808080808080890
:102EC2000808080808080808080808080808080880
:042ED20008080800E4
:00000001FF
