:100000000C9455000C9474000C9474000C947400BF
:100010000C9474000C9474000C9474000C94740090
:100020000C9474000C9474000C9474000C94740080
:100030000C9474000C9474000C94040B0C947400D5
:100040000C9474000C9474000C9445100C9474007F
:100050000C9474000C9474000C9474000C94740050
:100060000C9474000C9474000C9474000C94740040
:100070000C9474000C9474000C9485000C9474001F
:100080000C9474000C9474000C94740005A84CCD6E
:10009000B2D44EB93836A9020C50B9918688083CC2
:1000A000A6AAAA2ABE000000803F11241FBECFEFDF
:1000B000D0E1DEBFCDBF12E0A0E0B1E0EAEFF1E3B6
:1000C00000E00BBF02C007900D92A83BB107D9F723
:1000D00013E0A8EBB2E001C01D92A430B107E1F734
:1000E0000E94D40A0C94FB180C94000010929B0000
:1000F00088E980939A0086E080939D001092980092
:100100008FE580939900789408951F920F920FB60F
:100110000F9211248F939F9390919C0080919B004C
:10012000887BE1F381E08093B8029093B9029F91BC
:100130008F910F900FBE0F901F9018958091B9026C
:100140001092B902F8941092B802789408959091A0
:100150009B0095FFFCCF80939C0008958FEF8093C8
:10016000730088E480937000089594EA909374007B
:100170009091740097FFFCCF9EE09093730094E8F9
:10018000909374009091740097FFFCCF809373005C
:1001900084E8809374008091740087FFFCCF84E929
:1001A000809374000895EF92FF920F931F93DF9353
:1001B000CF9300D0CDB7DEB7082F162F843070F55F
:1001C000643160F58BE149835A830E94B5008CE469
:1001D0000E94B500812F0E94B500802F0E94B500BB
:1001E00080E791E00197F1F700C0E12EFF244981FB
:1001F0005A81042F152F06C00E94B50094EC9A95E1
:10020000F1F700C0E4E1EE16F10444F4F801819145
:100210008F010894E11CF11C882371F70F900F9057
:10022000CF91DF911F910F91FF90EF9008951F9351
:10023000DF93CF9300D0CDB7DEB7182F8430F0F422
:100240006431E0F48BE12A8369830E94B5008CE479
:100250000E94B5006981862F0E94B500812F0E94FF
:10026000B50080E791E00197F1F700C02A81822F65
:100270000E94B50094EC9A95F1F700C00F900F9092
:10028000CF91DF911F9108958BE10E94B50083E427
:100290000E94B50086E696EEA0E081509040A04016
:1002A000E1F70895EF92FF920F931F93182FF62E08
:1002B000E42E842F64E60E942617082F282F30E0B2
:1002C000205D3F4F442737FD4095542F812F6F2DE0
:1002D0000E9417018CE9089F002D11240E0D802F1C
:1002E0006AE00E942617E82E6F2D6F5F282F30E0FE
:1002F000205D3F4F442737FD4095542F812F0E94AA
:1003000017016F2D6E5F26EFE29E202D1124200F26
:1003100030E0205D3F4F442737FD4095542F812F1B
:100320000E9417011F910F91FF90EF90089581E0B7
:1003300066E60E94131021E030E0882311F420E0EB
:1003400030E0C9010895009721F46330710539F454
:1003500012C08130910519F46115710561F0861B99
:10036000970B4AE550E0849F9001859F300D949F44
:10037000300D112402C026EA3FEFC9010895EF9223
:10038000FF920F931F93CF93DF939C0103E0220F03
:10039000331F0A95E1F7285F3E4FD9016D917D919A
:1003A000FB01EE0FFF1FE859FE4F4081518180E0B5
:1003B00090E089010C5F1F4FE6E0EE2EF12CE20E7B
:1003C000F31E4817590761F4FB01EE0FFF1FE859B0
:1003D000FE4F4F5F5F4F5183408320E030E03EC0CF
:1003E000ED91FC911197EE0FFF1FE859FE4F208110
:1003F00031812817390731F401969183808321E0F8
:1004000030E02CC0E801E881F981EE0FFF1FE859C8
:10041000FE4F208131812817390731F401969183ED
:10042000808322E030E01AC0E701E881F981EE0F15
:10043000FF1FE859FE4FC081D1819C012F5F3F4FC4
:10044000C817D90729F43183208323E030E006C0A0
:10045000C9012330310509F0B4CF01C0C901DF91D2
:10046000CF911F910F91FF90EF9008959C0161151E
:10047000710519F42F5F3F4F0EC06230710519F4FA
:100480002150304008C06330710519F42C5F3F4F94
:1004900002C024503040C90108952F923F924F92DC
:1004A0005F926F927F928F929F92AF92BF92CF9204
:1004B000DF92EF92FF920F931F93DF93CF93CDB70D
:1004C000DEB760970FB6F894DEBF0FBECDBF8C01CC
:1004D0007B011A01853B91051CF464EB70E002C0BE
:1004E0006CE172E0601B710B882777FD8095982F77
:1004F0000E9412145B016C0160E070E084E393E4FD
:10050000A60195010E94271228E939EF4EE85CE325
:100510000E9458120E9469173B014C0160E070E094
:1005200084EB92E4A60195010E94271228E939EF95
:100530004EE85CE30E9458120E9469175B016C014F
:1005400081E00836180728F5B701882777FD8095E0
:10055000982F0E9412147B018C01A40193010E9428
:1005600058120E947214662E772E882E992EC8017A
:10057000B701A60195010E9458120E947214E62E3E
:10058000F72E082F192F5101CC24B7FCC094DC2C76
:1005900011C017FF04C0F094E194F108F3945701DF
:1005A000CC24B7FCC094DC2CEE24FF248701662405
:1005B00077244301C401B3010E9412146D877E8722
:1005C0008F87988BC801B7010E9412141B012C0160
:1005D00022E03BE247E05DE30E945812162FF72E1F
:1005E000982E892EC601B5010E9412142EE432E61F
:1005F00040E15EE30E945812A62EE72E082F692ED6
:100600006D857E858F85988925ED38E749E65DE320
:100610000E945812F401212F3F2D4F2F5E2F0E9470
:10062000FA112A2D3E2D402F562D0E94FA11698372
:100630007A838B839C83C201B10128EB3EE145E8BC
:100640005DEB0E9458122A2D3E2D402F562D0E9400
:10065000FA116D837E838F8398876D857E858F8564
:10066000988925ED38E749E65DEB0E945812F401C0
:10067000212F3F2D4F2F5E2F0E94FA112A2D3E2D44
:10068000402F562D0E94FA1169877A878B879C87A5
:100690008E010F5F1F4FEE245801F80160817181B8
:1006A0008281938120E030E040E252E40E94821394
:1006B00087FD09C080E090E0A0E2B2E4F801808309
:1006C0009183A283B383F8016081718182819381D8
:1006D00020E030E040E252EC0E94E21318164CF0A9
:1006E00080E090E0A0E2B2ECF80180839183A283E5
:1006F000B3830C5F1F4FF50160817181828193810B
:1007000020E030E040E857E40E9458120E94721442
:10071000AB01BC018E2D0E94260EE394FE2DF3301A
:1007200009F0BACF0E94540F60960FB6F894DEBF5E
:100730000FBECDBFCF91DF911F910F91FF90EF9032
:10074000DF90CF90BF90AF909F908F907F906F90F1
:100750005F904F903F902F9008952F923F924F922D
:100760005F926F927F928F929F92AF92BF92CF9241
:10077000DF92EF92FF920F931F93DF93CF9300D0FE
:10078000CDB7DEB79A8389831A017901882777FD6F
:100790008095982F0E9412146093C0027093C1023A
:1007A0008093C2029093C30280E090E0A0EAB0E49C
:1007B0008093000190930101A0930201B093030183
:1007C0008FEF8DBD80E78CBD1092BB021092BA02F4
:1007D00080E090E0DC018093D8029093D902A0934E
:1007E000DA02B093DB02442455245701CC24DD24E3
:1007F0000F2EF0E06F2EF0E07F2EF8E48F2EF2E463
:100800009F2EF02D6091BC027091BD028091BE02BE
:100810009091BF020E9472149B01AC0189819A8160
:10082000B90140E050E00E944D02E090D802F09003
:10083000D9020091DA021091DB02C201B1010E94DB
:10084000C4149B01AC01C801B7010E94821387FF49
:100850001DC0E090D802F090D9020091DA02109108
:10086000DB02C601B5010E94C4149B01AC01C801A2
:10087000B7010E94821387FDC5CF6092C0027092BB
:10088000C1028092C2029092C302BCCF0F900F901F
:10089000CF91DF911F910F91FF90EF90DF90CF905C
:1008A000BF90AF909F908F907F906F905F904F9090
:1008B0003F902F9008952F923F924F925F926F92A8
:1008C0007F928F929F92AF92BF92CF92DF92EF92E0
:1008D000FF920F931F93DF93CF93CDB7DEB7A69709
:1008E0000FB6F894DEBF0FBECDBF962E872E782EA2
:1008F000692E2901DC86CB86BE86AD868FEF8DBD45
:1009000080E78CBD81E090E09093BB028093BA02B7
:1009100080E090E0A0EAB0E48093000190930101B0
:10092000A0930201B093030180E090E0A0E4B0E462
:100930008093040190930501A0930601B0930701F1
:10094000BA01882777FD8095982F0E941214609332
:10095000C0027093C1028093C2029093C302B2019D
:10096000882777FD8095982F0E9412146093C80203
:100970007093C9028093CA029093CB021A8619869B
:1009800080E090E0DC018D839E83AF83B88789830C
:100990009A83AB83BC83AB85BC85CD01A0E0B0E07E
:1009A0008F8B988FA98FBA8FAD85BE85CD01A0E0C2
:1009B000B0E08B8F9C8FAD8FBE8FC801A0E0B0E000
:1009C0008F8F98A3A9A3BAA3C701AA2797FDA095C3
:1009D000BA2F8BA39CA3ADA3BEA38091BA02909122
:1009E000BB02009709F482C11092BB021092BA02B6
:1009F0006091BC027091BD028091BE029091BF02D5
:100A00002AE037ED43E25CE30E9458126B8B7C8B4B
:100A10008D8B9E8B6091C4027091C5028091C6023D
:100A20009091C7022AE037ED43E25CE30E9458123E
:100A3000562E472E382E292EA4019301652F782D8E
:100A4000832F962DD201F1012B2F3A2F4F2F5E2F9E
:100A50000E942712962E872E782E692EA4019301CC
:100A6000652F742F832F922F20E030E0A9010E9480
:100A7000B21387FF0DC0A4019301652F742F832F3C
:100A8000922F20E030E044EB53E40E94FA111AC0A8
:100A9000A4019301652F742F832F922F20E030E063
:100AA00044EB53E40E94821387FD10C0A40193011C
:100AB000652F742F832F922F20E030E044EB53E416
:100AC0000E942712962E872E782E692EE090BC0267
:100AD000F090BD020091BE021091BF02A090C4022E
:100AE000B090C502C090C602D090C702A401930185
:100AF000652F782D832F962D0E9472146F87788B27
:100B0000898B9A8BC801B7010E9472147B018C01FA
:100B1000C601B5010E9472149B01AC018F859889B2
:100B2000B701A9010E944D0269817A818B819C8164
:100B3000BB89AC891D890E892B2F3A2F412F502F4D
:100B40000E94FA11162F072FE82EA92E862F902F1C
:100B5000AE2DBA2D89839A83AB83BC836D817E8150
:100B60008F819885D201F1012B2F342D4F2F522DDB
:100B70000E94FA11262F372F482F592F2D833E839D
:100B80004F8358876F89788D898D9A8D0E94C41400
:100B90009B01AC01612F702F8E2D9A2D0E94821324
:100BA00087FD10C0AB85BC85109761F080E090E0B8
:100BB000A8ECB2E48093C0029093C102A093C20259
:100BC000B093C302AD80BE80CF80D884E894D7F8BC
:100BD0006B8D7C8D8D8D9E8D0E94C4149B01AC010C
:100BE000C601B5010E94821387FD2BC0AD85BE856D
:100BF000109739F180E090E0A0EAB1E48093C80258
:100C00009093C902A093CA02B093CB026091C40230
:100C10007091C5028091C6029091C70220E030E039
:100C2000A9010E94E213181664F080E090E0A0EAA7
:100C3000B1EC8093C8029093C902A093CA02B0930A
:100C4000CB026F8D78A189A19AA10E94C4147B0167
:100C50008C0169817A818B819C81A80197010E9416
:100C6000821387FF0BC069817A818B819C819058A8
:100C7000A80197010E94821387FD15C080E090E0D3
:100C8000DC018093C0029093C102A093C202B09392
:100C9000C3028093BC029093BD02A093BE02B093A6
:100CA000BF0291E099876BA17CA18DA19EA10E94BA
:100CB00012149B01AC01C601B5010E94821387FD8D
:100CC00015C080E090E0DC018093C8029093C902D7
:100CD000A093CA02B093CB028093C4029093C50242
:100CE000A093C602B093C702A1E0AA87B985BB232F
:100CF00009F473CEEA85EE2309F46FCEA6960FB6FB
:100D0000F894DEBF0FBECDBFCF91DF911F910F9141
:100D1000FF90EF90DF90CF90BF90AF909F908F901B
:100D20007F906F905F904F903F902F9008952F92FB
:100D30003F924F925F926F927F928F929F92AF926B
:100D4000BF92CF92DF92EF92FF920F931F93DF93A8
:100D5000CF93CDB7DEB72D970FB6F894DEBF0FBE99
:100D6000CDBF3B014C0159016A0180E090E0DC01FC
:100D700089839A83AB83BC838D839E83AF83B8873B
:100D800089879A87AB87BC876114710481049104B9
:100D900071F4211531054105510549F4E114F104BF
:100DA0000105110521F489E090E00E94610FC40162
:100DB000B3010E9412141B012C01C601B5010E944F
:100DC00012143B014C0122E03BE247E05DE30E944C
:100DD0005812D62EC72EB82E9D87C801B7010E9483
:100DE000121429E23CE54FE05EE30E945812A62E61
:100DF000E72E8C01C201B10122E430E645E65DE355
:100E00000E945812D601ED852B2F3A2F4B2D5E2FC5
:100E10000E94FA112A2D3E2D402F512F0E94FA11C7
:100E200069837A838B839C83C401B30128EB3EE101
:100E300045E85DEB0E9458122A2D3E2D402F512F80
:100E40000E94FA116D837E838F839887C201B1015E
:100E500022E430E645E65DEB0E945812D601ED85AE
:100E60002B2F3A2F4B2D5E2F0E94FA112A2D3E2D4B
:100E7000402F512F0E94FA1169877A878B879C87B0
:100E80008E010F5F1F4FEE245801F80160817181C0
:100E90008281938120E030E040E252E40E9482139C
:100EA00087FD09C080E090E0A0E2B2E4F801808311
:100EB0009183A283B383F8016081718182819381E0
:100EC00020E030E040E252EC0E94E21318164CF0B1
:100ED00080E090E0A0E2B2ECF80180839183A283ED
:100EE000B3830C5F1F4FF501608171818281938113
:100EF00020E030E040E857E40E9458120E9472144B
:100F0000AB01BC018E2D0E94260EE394FE2DF33022
:100F100009F0BACF0E94540F2D960FB6F894DEBF99
:100F20000FBECDBFCF91DF911F910F91FF90EF903A
:100F3000DF90CF90BF90AF909F908F907F906F90F9
:100F40005F904F903F902F900895AF92BF92CF92B5
:100F5000DF92EF92FF920F931F931092BB021092B9
:100F6000BA025C01CC24B7FCC094DC2C80916300F5
:100F700021B186958695869590E0809590958370B1
:100F8000907030E0209530952C713070822B932B2F
:100F90008C31910509F478C08091630021B1869568
:100FA0008695869590E0809590958370907030E05E
:100FB000209530952C713070822B932B88319105C0
:100FC00009F465C08091630021B186958695869568
:100FD00090E0809590958370907030E020953095EA
:100FE0002C713070822B932B8C30910509F452C0F8
:100FF0008091FA02853608F050C08091630021B1DB
:1010000086958695869590E08095909583709070F2
:1010100030E0209530952C713070822B932B8830E6
:10102000910561F4C601B50120E030E0A901FFE0BF
:10103000EF2EF12C012D112D0E9497068091630057
:1010400021B186958695869590E0809590958370E0
:10105000907030E0209530952C713070822B932B5E
:101060008830910509F482CFC601B50120E030E057
:10107000A901E1EFEE2EEFEFFE2EEFEF0E2FEFEFD7
:101080001E2F0E94970672CF20E030E008C021E0BA
:1010900030E005C022E030E002C023E030E0C901CA
:1010A0001F910F91FF90EF90DF90CF90BF90AF9086
:1010B00008952F923F924F925F926F927F928F92FC
:1010C0009F92AF92BF92CF92DF92EF92FF920F93D7
:1010D0001F93CF93DF93AA24BB248824992400E094
:1010E00010E0B8E04B2E512CABE56A2EA4E07A2E2E
:1010F00001C08E01C2010E94BF01EC01C801BE0106
:101100000E94A3011C018C010F50104097FF0FC0DB
:1011100080E090E060E070E04AE65FEF20E030E0E1
:10112000EE24FF24CC24DD240E945B041FC080E059
:1011300090E060E070E046E950E020E030E0EE242E
:10114000FF24CC24DD240E945B042114310419F116
:101150000DC060E070E0CB0120E030E0A901F4E6D2
:10116000EF2EF12C012D112D0E9497068091630026
:1011700021B186958695869590E0809590958370AF
:10118000907030E0209530952C713070822B932B2D
:1011900088309105F1F61092BB021092BA0288ECE9
:1011A00090E00E94A5071C018230910509F077C0EC
:1011B00080E090E060E070E046E950E020E030E060
:1011C00000EA10E0EE24FF24CC24DD24F30109958D
:1011D0000DC060E070E0CB0120E030E0A901E4E662
:1011E000EE2EF12C012D112D0E94970680916300A7
:1011F00021B186958695869590E08095909583702F
:10120000907030E0209530952C713070822B932BAC
:1012100088309105F1F688EC90E00E94A50780E007
:1012200090E068EC70E040E050E022E830E000E060
:1012300010E0EE24FF24CC24DD24F301099580E0A6
:1012400090E060E070E046E950E020E030E000EA45
:1012500010E0F30109950DC060E070E0CB0120E0E3
:1012600030E0A901B4E6EB2EF12C012D112D0E94E6
:1012700097068091630021B186958695869590E0CA
:10128000809590958370907030E0209530952C710A
:101290003070822B932B88309105F1F668C180E085
:1012A00090E068EC70E040E050E022E830E000E0E0
:1012B00010E0EE24FF24CC24DD24F3010995C23094
:1012C000D10519F0209709F0A3C08091BA0290913E
:1012D000BB02A1E0843F9A0708F0ADC0A114B1049D
:1012E00009F0A9C0B1E02B163104A1F580E090E02F
:1012F00060E070E046E950E020E030E000EA10E015
:10130000EE24FF24CC24DD24F30109950DC060E018
:1013100070E0CB0120E030E0A901A4E6EA2EF12C38
:10132000012D112D0E9497068091630021B18695B1
:101330008695869590E0809590958370907030E0CA
:10134000209530952C713070822B932B883091052D
:10135000F1F636C080E090E060E070E046E950E0F1
:1013600020E030E000E61FEFEE24FF24CC24DD2453
:10137000F301099510C060E070E0CB0120E030E09F
:10138000A901FCE9EF2EFFEFFF2EFFEF0F2FFFEF7C
:101390001F2F0E9497068091630021B18695869544
:1013A000869590E0809590958370907030E02095C0
:1013B00030952C713070822B932B88309105D9F6A3
:1013C00066E970E080E090E020E030E0A901EE24E2
:1013D000FF2487010E9497068FEF9FEFACE28150B8
:1013E0009040A040E1F700C000006AE67FEF8FEF79
:1013F0009FEF20E030E0A9010E9497068FEF9FEF5A
:10140000ACE281509040A040E1F700C000000AC06B
:101410008091BA029091BB02883C910560F4A114BE
:10142000B10449F40E9497018130910549F4089470
:10143000811C911C05C091E0A916B10409F092C06D
:1014400088EC90E00E94A5078230910509F077C0F2
:1014500080E090E060E070E046E950E020E030E0BD
:1014600000EA10E0EE24FF24CC24DD24F3010995EA
:101470000DC060E070E0CB0120E030E0A901E4E6BF
:10148000EE2EF12C012D112D0E9497068091630004
:1014900021B186958695869590E08095909583708C
:1014A000907030E0209530952C713070822B932B0A
:1014B00088309105F1F688EC90E00E94A50780E065
:1014C00090E068EC70E040E050E022E830E000E0BE
:1014D00010E0EE24FF24CC24DD24F301099580E004
:1014E00090E060E070E046E950E020E030E000EAA3
:1014F00010E0F30109950DC060E070E0CB0120E041
:1015000030E0A901B4E6EB2EF12C012D112D0E9443
:1015100097068091630021B186958695869590E027
:10152000809590958370907030E0209530952C7167
:101530003070822B932B88309105F1F610C080E03B
:1015400090E068EC70E040E050E022E830E000E03D
:1015500010E0EE24FF24CC24DD24F3010995A1E062
:10156000AA2EB12CC201BE010E9436022C01A1E0BC
:101570008A16910409F0BDCDBBE04B16510409F069
:10158000B8CDDF91CF911F910F91FF90EF90DF9039
:10159000CF90BF90AF909F908F907F906F905F9013
:1015A0004F903F902F9008950E94AE000E94960E9B
:1015B0000E9476000E94F50D0E9431108FE087BBDB
:1015C0001FBC85E08EBD8FEF8DBD80E78CBD84E0B4
:1015D00087BF7894B49902C00E94590886B3B6991F
:1015E000F9CF4091FA0280E065E00E9452014091FB
:1015F000FC0281E062E00E9452014091010381E01F
:1016000068E00E945201EDCF1F920F920FB60F9229
:101610000BB60F921124EF92FF920F931F932F930B
:101620003F934F935F936F937F938F939F93AF936A
:10163000BF93EF93FF938FEF8DBD80E78CBD8091BB
:10164000BA029091BB0201969093BB028093BA02BA
:10165000E090D802F090D9020091DA021091DB02FA
:101660006091BC027091BD028091BE029091BF0258
:101670002AE037ED43E25CE30E9458129B01AC0183
:10168000C801B7010E94FA119B01AC012093D80256
:101690003093D9024093DA025093DB02E090D402F7
:1016A000F090D5020091D6021091D7026091E40229
:1016B0007091E5028091E6029091E7022AE037ED11
:1016C00043E25CE30E9458129B01AC01C801B701E0
:1016D0000E94FA119B01AC012093D4023093D502F1
:1016E0004093D6025093D702E090CC02F090CD0206
:1016F0000091CE021091CF026091DC027091DD0268
:101700008091DE029091DF022AE037ED43E25CE354
:101710000E9458129B01AC01C801B7010E94FA1146
:101720009B01AC012093CC023093CD024093CE02BA
:101730005093CF02E090D002F090D1020091D202FB
:101740001091D3026091E0027091E1028091E20277
:101750009091E3022AE037ED43E25CE30E945812E5
:101760009B01AC01C801B7010E94FA119B01AC01B9
:101770002093D0023093D1024093D2025093D302EF
:101780006091C0027091C1028091C2029091C30227
:101790002091BC023091BD024091BE025091BF0227
:1017A0000E945213181694F56091BC027091BD020C
:1017B0008091BE029091BF02209100013091010101
:1017C00040910201509103010E94FA119B01AC016A
:1017D0002093BC023093BD024093BE025093BF02DF
:1017E0006091C0027091C1028091C2029091C302C7
:1017F0002091BC023091BD024091BE025091BF02C7
:101800000E94E21318160CF455C044C06091C00247
:101810007091C1028091C2029091C3022091BC02DA
:101820003091BD024091BE025091BF020E94B2139E
:1018300087FF40C06091BC027091BD028091BE02E2
:101840009091BF022091000130910101409102016D
:10185000509103010E9427129B01AC012093BC020E
:101860003093BD024093BE025093BF026091C0020C
:101870007091C1028091C2029091C3022091BC027A
:101880003091BD024091BE025091BF020E9482136E
:1018900087FD10C08091C0029091C102A091C20248
:1018A000B091C3028093BC029093BD02A093BE028C
:1018B000B093BF026091C8027091C9028091CA02C0
:1018C0009091CB022091C4023091C5024091C60292
:1018D0005091C7020E945213181694F56091C402E9
:1018E0007091C5028091C6029091C70220910401B7
:1018F0003091050140910601509107010E94FA11B3
:101900009B01AC012093C4023093C5024093C602F0
:101910005093C7026091C8027091C9028091CA02B7
:101920009091CB022091C4023091C5024091C60231
:101930005091C7020E94E21318160CF455C044C01F
:101940006091C8027091C9028091CA029091CB0245
:101950002091C4023091C5024091C6025091C70245
:101960000E94B21387FF40C06091C4027091C5020B
:101970008091C6029091C702209104013091050127
:1019800040910601509107010E9427129B01AC0172
:101990002093C4023093C5024093C6025093C702FD
:1019A0006091C8027091C9028091CA029091CB02E5
:1019B0002091C4023091C5024091C6025091C702E5
:1019C0000E94821387FD10C08091C8029091C902C5
:1019D000A091CA02B091CB028093C4029093C50239
:1019E000A093C602B093C702FF91EF91BF91AF9150
:1019F0009F918F917F916F915F914F913F912F9127
:101A00001F910F91FF90EF900F900BBE0F900FBEA4
:101A10000F901F90189590E0FC01B096FE2FEE27D6
:101A200020812093F60220FDFBCF8896B82FAA27AD
:101A30008C9190819093F60290FDFBCF089590E0F9
:101A40008096F82FEE2780818093F60280FDFBCFF1
:101A5000608380818093F60280FDFBCF0895A82FDC
:101A6000B0E0FD01B096FE2FEE2780818093F60254
:101A700080FDFBCF9896BA2FAA27872F992787FD3D
:101A80009A958C9380818093F60280FDFBCF6C93B6
:101A900080818093F60280FDFBCF0895DF92EF9264
:101AA000FF920F931F93D82E7A018B019B0155272C
:101AB00037FD5095452FB9010E942F0D8D2DB7018F
:101AC0000E942F0D1F910F91FF90EF90DF900895CE
:101AD0001F93182F60E00E941F0D8CEC9CE1019772
:101AE000F1F700C00000812F6DE10E941F0D812FD2
:101AF00060E070E00E942F0D1F910895AF92BF9299
:101B0000CF92DF92EF92FF920F931F93CF93DF93C9
:101B1000F82E6B01EA018901AA24A39461157105CD
:101B200009F4AA24BB24B394209709F4BB24EE241F
:101B3000E3940115110509F4EE248F2D6EE10E9446
:101B40001F0D6B2D70E0660F771F660F771F8A2DB4
:101B500090E043E0880F991F4A95E1F7682B792BB5
:101B60008E2D90E0880F991F682B792B8F2D0E9466
:101B70002F0DAA2021F08F2DB6010E942F0DBB2022
:101B800021F08F2DBE010E942F0DEE2021F08F2D10
:101B9000B8010E942F0D8F2D64E00E941F0DDF9170
:101BA000CF911F910F91FF90EF90DF90CF90BF905A
:101BB000AF900895DF92EF92FF920F931F93D82E6C
:101BC0007A018B016FE10E941F0D8D2D60E270E0A4
:101BD0000E942F0D8D2DB801A7010E944E0D1F915F
:101BE0000F91FF90EF90DF90089580E067E070E044
:101BF00043E050E021E030E00E947E0D81E067E0AC
:101C000070E043E050E021E030E00E947E0D82E091
:101C100067E070E043E050E021E030E00E947E0D9C
:101C200080E04FEF5FEF6FEF7FE30E94DA0D81E01E
:101C30004FEF5FEF6FEF7FE30E94DA0D82E04FEF2F
:101C40005FEF6FEF7FE30E94DA0D0895DF92EF926E
:101C5000FF920F931F93DF93CF930F92CDB7DEB711
:101C6000D82E7A018B0177FF0AC010950095F09469
:101C7000E094E11CF11C011D111D90E001C091E0F8
:101C80008D2D6FE199830E941F0D9981792F729597
:101C9000707F60E0686078608D2D0E942F0D8D2D23
:101CA000B801A7010E944E0D0F90CF91DF911F91B7
:101CB0000F91FF90EF90DF9008954F925F926F9297
:101CC0007F928F929F92AF92BF92CF92DF92EF92CC
:101CD000FF920F931F93982E862E29013A016FE1F0
:101CE0000E941F0D682D70E06A62892D0E942F0DE1
:101CF000892DB301A2010E944E0D892DB801A701C3
:101D00000E944E0D892DB601A5010E944E0D1F9116
:101D10000F91FF90EF90DF90CF90BF90AF909F908A
:101D20008F907F906F905F904F9008958F929F92C9
:101D3000AF92BF92CF92DF92EF92FF920F931F93D9
:101D4000DF93CF9300D00F92CDB7DEB71ABA15BA92
:101D50008FEF84BB1092650083E080936400E0E81D
:101D60009E2E72E0A72E64E8B62E6E010894C11C68
:101D7000D11C85B3856085BB83E39BE20197F1F7B6
:101D800085B38A7F85BBECECFCE13197F1F700C0AD
:101D90000000809165008D7F80936500AB9885B3CE
:101DA000887F85BB29B32983A89A99B39A8385B381
:101DB000887F826085BB89B38B83243C11F02438F3
:101DC000C1F5943C11F09438A1F5843C11F08438AD
:101DD00081F595BEA0926D00B0926C00760100E096
:101DE00010E28E2C8C18882D6DE10E941F0D882D1D
:101DF00060E070E00E942F0DF8018081F70181936F
:101E00007F0100501F4FF3E200301F0751F7898117
:101E1000803C11F0803851F48A81803C11F0803888
:101E200029F48B81803C69F0803859F085B78F7335
:101E300085BF15BA80E060E04CE851E00E94D30015
:101E400098CF80E060E04BE951E00E94D30083E04E
:101E500098B3976098BB2FEF3FEB46E0215030409E
:101E60004040E1F700C0000098B3987F98BB2FEF87
:101E70003FEB46E0215030404040E1F700C0000019
:101E8000815031F70E9444010F900F900F90CF9135
:101E9000DF911F910F91FF90EF90DF90CF90BF9057
:101EA000AF909F908F90089580E061E00E941F0D99
:101EB00081E061E00E941F0D82E061E00E941F0D41
:101EC00008951F93CF93DF93182F80E06FE10E9456
:101ED0001F0DC1E0D0E002C0CC0FDD1F1A95E2F764
:101EE00080E0BE010E942F0D81E06FE10E941F0D76
:101EF00081E0BE010E942F0D82E06FE10E941F0D64
:101F000082E0BE010E942F0D80E061E00E941F0D63
:101F100081E061E00E941F0D82E061E00E941F0DE0
:101F2000DF91CF911F910895AF92BF92CF92DF9230
:101F3000EF92FF920F931F93DF93CF93CDB7DEB74E
:101F40002C970FB6F894DEBF0FBECDBF59016A01C2
:101F50000E94121469837A838B839C83C601B50126
:101F60000E9412146D837E838F839887C801B70106
:101F70000E94121469877A878B879C878E010F5F76
:101F80001F4FEE24F801608171818281938121E7E6
:101F90003CEA4BE85EE30E9458129B01AC01F80159
:101FA00021933193419351938F0120E030E040E839
:101FB00057E40E9458120E947214AB01BC018E2D8E
:101FC0000E94260EE394FE2DF330E1F60E94540F9A
:101FD0002C960FB6F894DEBF0FBECDBFCF91DF9128
:101FE0001F910F91FF90EF90DF90CF90BF90AF9037
:101FF00008958BE00E94A7008091B8028823E1F346
:102000000E949E008823A9F381E10E94A7008FEF20
:102010000E94A7008091B8028823E1F30E949E00ED
:10202000882391F30895DF93CF9300D0CDB7DEB727
:1020300019821A82880F982F990F990F980F690F9C
:102040006A838A810E94A7008091B8028823E1F305
:102050000E949E00898389810F900F90CF91DF911C
:10206000089582B1837E82B9E4E6F0E08081877EC4
:1020700080831BB888E98AB986E080939500109226
:1020800090008FE089B9789408951F920F920FB64F
:102090000F920BB60F9211242F933F938F939F9320
:1020A000EF93FF939CB18BB1887BE9F39F3F21F4C1
:1020B00081E08093F50247C08091F502813009F0FC
:1020C00042C08091F402E82FF0E0E851FD4F908388
:1020D0008F5F8093F4028091F4028B30A0F1109214
:1020E000F4028091F4028093F50280E090E0309158
:1020F000F302FC01E851FD4F2081230F2093F302EE
:1021000001968A30910599F78091F3028F3F29F467
:102110008091F3028F5F8093F3029091F30280919C
:10212000F202981771F480E090E0FC01E851FD4F55
:102130002081FC01E650FD4F208301968A309105F5
:10214000A1F71092F302FF91EF919F918F913F9130
:102150002F910F900BBE0F900FBE0F901F901895F0
:10216000A0E0B0E0E6EBF0E10C943617FC01EA01E8
:102170008081823008F438C1DB019C91923008F4F0
:1021800030C1843059F4943009F02EC191811196F8
:102190008C911197981709F021C126C1943009F448
:1021A00020C19230B1F4823009F01EC1CA01AF01E2
:1021B00028E0DA010D90AD01DC010D92CD01215036
:1021C000C1F7DB0111968C91119791818923898345
:1021D0000AC1823009F405C1C280D380DB011296A6
:1021E0006D907C9013972481358146815781149698
:1021F000ED90FD900D911C911797C60186199709D6
:102200005C0197FF04C0AA24BB24A81AB90AB0E253
:10221000AB16B1040CF061C0181619066CF5370145
:1022200048010A2C04C096948794779467940A9482
:10223000D2F781E090E0A0E0B0E00A2C04C0880F63
:10224000991FAA1FBB1F0A94D2F70197A109B109D0
:102250008E219F21A023B123EE24FF248701E39444
:102260000097A105B10519F4EE24FF248701E628A3
:10227000F728082919293CC00097D1F1CA0CDB1CAA
:1022800039014A010A2C04C0969487947794679484
:102290000A94D2F781E090E0A0E0B0E00A2C04C0FC
:1022A000880F991FAA1FBB1F0A94D2F70197A10993
:1022B000B10982239323A423B52321E030E040E039
:1022C00050E00097A105B10519F420E030E0A90124
:1022D00026293729482959290BC06C147D0424F478
:1022E000EE24FF24870104C0630120E030E0A9014F
:1022F0008181FB019181891709F445C0882349F048
:10230000D801C701821B930BA40BB50B9C01AD0137
:1023100004C02E193F09400B510B57FD04C0198210
:10232000DB82CA820BC081E08983DB82CA8250953E
:102330004095309521953F4F4F4F5F4F2C833D8304
:102340004E835F830DC0880F991FAA1FBB1F8C830C
:102350009D83AE83BF838A819B8101979B838A8300
:102360008C819D81AE81BF819C01AD0121503040A7
:10237000404050402F3FEFEF3E07EFEF4E07EFE3B7
:102380005E0708F30BC08983DB82CA822E0D3F1DD6
:10239000401F511F2C833D834E835F8383E08883DE
:1023A0002C813D814E815F8157FF1DC0DA01C9013B
:1023B00081709070A070B0705695479537952795AD
:1023C000822B932BA42BB52B8C839D83AE83BF8351
:1023D0008A819B8101969B838A8305C0EFEAF1E0A5
:1023E00003C0FB0101C0FE01CF01CDB7DEB7EEE0B7
:1023F0000C945217A0E2B0E0E0E0F2E10C943E173A
:1024000069837A838B839C832D833E834F83588794
:1024100089E0E82EF12CEC0EFD1ECE010196B701ED
:102420000E9464168E010F5E1F4FCE010596B80103
:102430000E946416C701B801AE01475E5F4F0E945B
:10244000B0100E949615A096E6E00C945A17A0E2F0
:10245000B0E0EDE2F2E10C943E1769837A838B835E
:102460009C832D833E834F8358878E01075F1F4FC8
:10247000CE010196B8010E94641691E1E92EF12C7B
:10248000EC0EFD1ECE010596B7010E9464168A89E6
:1024900091E089278A8BC801B701AE01475E5F4F83
:1024A0000E94B0100E949615A096E6E00C945A1770
:1024B000A0E2B0E0EEE5F2E10C94321769837A8392
:1024C0008B839C832D833E834F835887CE01019657
:1024D000BE01675F7F4F0E946416CE010596BE0164
:1024E0006F5E7F4F0E9464169985923078F08989DB
:1024F0008230C0F0943019F4823041F4CBC0843083
:1025000019F4923079F4C6C0923051F481E02A85F2
:102510009A89291709F480E08A87CE010996BCC000
:10252000823051F481E02A859A89291709F480E0E4
:102530008A8BCE014196B0C06D847E848F8498884A
:10254000ED88FE880F89188DE0E2F0E080E090E0F1
:10255000DC01AA24BB24650120E030E0A901B3011D
:102560006170707061157105D1F02E0D3F1D401F17
:10257000511F15012601280E391E4A1E5B1E81E0DF
:1025800090E0A0E0B0E02E153F054007510718F09D
:1025900080E090E0DC01820D931DA41DB51DAA0C06
:1025A000BB1CCC1CDD1C17FF09C061E0262E312CA2
:1025B000412C512CA228B328C428D528319749F0A2
:1025C000EE0CFF1C001F111F96948794779467945C
:1025D000C6CF6B897C89EB85FC856E0F7F1F6E5F94
:1025E0007F4F7C8F6B8F61E0EA857A89E71709F46A
:1025F00060E06A8F6B8D7C8D10C0FC01E170F07023
:10260000309729F056954795379527955068B69598
:10261000A795979587956F5F7F4FB7FDEECF0CC05D
:10262000880F991FAA1FBB1F57FD8160220F331F00
:10263000441F551F615070408030E0E09E07E0E08D
:10264000AE07E0E4BE0760F36B8F7C8F6FE7E62E8A
:10265000F12C012D112DE822F9220A231B2360E41D
:10266000E616F1040105110561F487FD0AC0211584
:1026700031054105510529F0805C9F4FAF4FBF4F99
:1026800080788D8F9E8FAF8FB8A383E0898FCE0126
:10269000499602C08FEA91E00E949615A096E2E169
:1026A0000C944E17A8E1B0E0E8E5F3E10C943E1776
:1026B00069837A838B839C832D833E834F835887E2
:1026C0008E01075F1F4FCE010196B8010E9464166C
:1026D00081E1E82EF12CEC0EFD1ECE010596B7012E
:1026E0000E9464168985823040F08989823028F002
:1026F000C801B7010E94CD1601C08FEF6896E6E0D1
:102700000C945A17A8E1B0E0E8E8F3E10C943E1706
:1027100069837A838B839C832D833E834F83588781
:102720008E01075F1F4FCE010196B8010E9464160B
:1027300081E1E82EF12CEC0EFD1ECE010596B701CD
:102740000E9464168985823040F08989823028F0A1
:10275000C801B7010E94CD1601C08FEF6896E6E070
:102760000C945A17A8E1B0E0E8EBF3E10C943E17A3
:1027700069837A838B839C832D833E834F83588721
:102780008E01075F1F4FCE010196B8010E946416AB
:1027900081E1E82EF12CEC0EFD1ECE010596B7016D
:1027A0000E9464168985823040F08989823028F041
:1027B000C801B7010E94CD1601C081E06896E6E02D
:1027C0000C945A17A8E1B0E0E8EEF3E10C943E1740
:1027D00069837A838B839C832D833E834F835887C1
:1027E0008E01075F1F4FCE010196B8010E9464164B
:1027F00081E1E82EF12CEC0EFD1ECE010596B7010D
:102800000E9464168985823040F08989823028F0E0
:10281000C801B7010E94CD1601C081E06896E6E0CC
:102820000C945A17A8E0B0E0E8E1F4E10C943E17EC
:102830007B018C0183E08983D801C7018827B7FD1C
:1028400083959927AA27BB27282F8A83E114F104AF
:102850000105110519F482E0898337C08EE190E00B
:102860009C838B83222389F080E0E81680E0F806C1
:1028700080E0080780E8180769F110950095F0944A
:10288000E094E11CF11C011D111DED82FE820F83FD
:102890001887C801B7010E943C159C0121503040A7
:1028A0001216130694F4022E04C0EE0CFF1C001F37
:1028B000111F0A94D2F7ED82FE820F8318878EE1F2
:1028C00090E0821B930B9C838B83CE0101960E9428
:1028D000961504C060E070E080E09FEC2896E6E08A
:1028E0000C945A17ACE0B0E0E8E7F4E10C9442171E
:1028F00069837A838B839C83CE010196BE016B5FD3
:102900007F4F0E9464168D81823081F1823070F198
:10291000843021F48E81882369F10AC02F813885A3
:1029200037FD24C06E812F3131053CF0662311F153
:1029300020E030E040E050E821C08EE190E0821BD2
:10294000930B29853A854B855C8504C05695479540
:10295000379527958A95D2F7662381F05095409553
:10296000309521953F4F4F4F5F4F08C020E030E03A
:10297000A90104C02FEF3FEF4FEF5FE7B901CA0194
:102980002C96E2E00C945E17A8E0B0E0EAECF4E1EB
:102990000C943C177B018C011A826115710581052D
:1029A000910519F482E089835FC083E089838EE119
:1029B000C82ED12CDC82CB82ED82FE820F83188759
:1029C000C801B7010E943C15FC013197F7FF3AC0DE
:1029D000AA27BB27AE1BBF0B21E030E040E050E050
:1029E0000A2E04C0220F331F441F551F0A94D2F72A
:1029F00021503040404050402E213F214023512360
:102A000061E070E080E090E021153105410551055D
:102A100019F460E070E0CB0104C016950795F794B7
:102A2000E794AA95D2F7E62AF72A082B192BED820C
:102A3000FE820F8318878EE190E08E1B9F0B9C8394
:102A40008B8312C0309781F00E2E04C0EE0CFF1C59
:102A5000001F111F0A94D2F7ED82FE820F831887A0
:102A6000CE1ADF0ADC82CB82CE0101960E94961537
:102A70002896E8E00C945817AF92BF92CF92DF925D
:102A8000EF92FF920F931F937B018C0180E0E81679
:102A900080E0F80681E0080780E0180758F4EFEFBF
:102AA000EE16F1040105110509F090F480E090E0C4
:102AB000DC0117C0F0E0EF16F0E0FF06F0E00F07D2
:102AC000F1E01F0750F480E190E0A0E0B0E009C021
:102AD00088E090E0A0E0B0E004C088E190E0A0E0F1
:102AE000B0E020E230E040E050E0281B390B4A0B18
:102AF0005B0B5701680104C0D694C794B794A794A0
:102B00008A95D2F7D601C50189549E4FFC01808178
:102B1000281B310941095109C9011F910F91FF90EB
:102B2000EF90DF90CF90BF90AF900895EF92FF921B
:102B30000F931F93CF93DF93FC012481358146814E
:102B4000578161818081823020F44061EFEFF0E0B5
:102B5000A3C0843009F49BC0823009F492C02115CF
:102B600031054105510509F48FC00280F381E02D44
:102B70008FEFE238F8070CF05AC0C2E8DFEFCE1B47
:102B8000DF0BCA31D1056CF579018A010C2E04C026
:102B900016950795F794E7940A94D2F781E090E0B0
:102BA000A0E0B0E00C2E04C0880F991FAA1FBB1F25
:102BB0000A94D2F70197A109B10982239323A42390
:102BC000B52321E030E040E050E00097A105B105D9
:102BD00019F420E030E0A9012E293F29402B512B88
:102BE00003C020E030E0A901DA01C9018F779070BD
:102BF000A070B07080349105A105B10539F427FFAC
:102C000009C0205C3F4F4F4F5F4F04C0215C3F4FD6
:102C10004F4F5F4FE1E0F0E0203080E0380780E088
:102C2000480780E4580728F5E0E0F0E022C0E038EB
:102C3000F1056CF5E158FF4FDA01C9018F7790700B
:102C4000A070B07080349105A105B10539F427FF5B
:102C500009C0205C3F4F4F4F5F4F04C0215C3F4F86
:102C60004F4F5F4F57FF05C05695479537952795AE
:102C7000319687E056954795379527958A95D1F7F0
:102C80000BC0E0E0F0E005C0E0E0F0E005C0EFEFF1
:102C9000F0E020E030E0A9018E2F87958827879506
:102CA000942F9F77679566276795E695E22EA92F63
:102CB000A82BFE2FF62B622F732F8A2F9F2FCDB7B5
:102CC000DEB7E6E00C945A17DC01FB012C9111965B
:102CD0003C91119712968C911297482F4F7750E0A4
:102CE000982F991F9927991F13966C911397862FE8
:102CF000880F892B90E0661F6627661F6183009707
:102D000039F5211531054105510511F482E029C03D
:102D100082E89FEF9383828367E0220F331F441F73
:102D2000551F6A95D1F783E0808309C0220F331FB6
:102D3000441F551F828193810197938382832030A2
:102D400080E0380780E0480780E4580778F320C027
:102D50008F3F910579F4211531054105510519F48D
:102D600084E08083089544FF03C081E0808310C025
:102D700010820EC08F5790409383828383E08083BC
:102D800087E0220F331F441F551F8A95D1F75064E7
:102D900024833583468357830895FC01DB019081AA
:102DA000923008F449C08C91823008F445C09430C8
:102DB00051F461818430B1F511962C91119730E076
:102DC000261B310941C0843021F0923041F4823019
:102DD000B1F111968C9111978823A1F12DC06181D9
:102DE000823001F111968C9111976817D9F42281E4
:102DF000338112968D919C9113978217930794F0CB
:102E000028173907BCF024813581468157811496F3
:102E10008D919D910D90BC91A02D82179307A407D1
:102E2000B50718F4662341F00DC0281739074A0783
:102E30005B0728F4662331F021E030E005C020E094
:102E400030E002C02FEF3FEFC9010895991B79E0F0
:102E500004C0991F961708F0961B881F7A95C9F72A
:102E6000809508952F923F924F925F926F927F923A
:102E70008F929F92AF92BF92CF92DF92EF92FF928A
:102E80000F931F93CF93DF93CDB7DEB7CA1BDB0B36
:102E90000FB6F894DEBF0FBECDBF09942A883988DB
:102EA00048885F846E847D848C849B84AA84B984E2
:102EB000C884DF80EE80FD800C811B81AA81B981EE
:102EC000CE0FD11D0FB6F894DEBF0FBECDBFED0102
:102ED000089503D0E39528C0CEC03FD0E8F3E8942E
:102EE000E0E0BB279F57F0F02AED3FE049EC06C039
:102EF000EE0FBB0F661F771F881F28F0B23A6207DC
:102F00007307840728F0B25A620B730B840BE395A6
:102F10009A9572F7803830F49A95BB0F661F771F29
:102F2000881FD2F790489BC0EF93E0FF06C0A2EA4B
:102F30002AED3FE049EC5FEB37D0BFD00F90039410
:102F400001FC9058ECE8F0E099C057FD9058440F10
:102F5000551F59F05F3F71F04795880F97FB991FF8
:102F600061F09F3F79F087950895121613061406B5
:102F7000551FF2CF4695F1DF08C016161706180642
:102F8000991FF1CF8695710561050894089587D042
:102F900030F08CD020F031F49F3F11F41EF46BC060
:102FA0000EF4E095E7FB53C0E92FCFDF80F3BA17AB
:102FB000620773078407950718F071F49EF58EC0B9
:102FC0000EF4E0950B2EBA2FA02D0B01B901900144
:102FD0000C01CA01A0011124FF27591B99F0593F88
:102FE00050F4503E68F11A16F040A22F232F342FD0
:102FF0004427585FF3CF469537952795A795F0401E
:103000005395C9F77EF41F16BA0B620B730B840B32
:10301000BAF09150A1F0FF0FBB1F661F771F881FEA
:10302000C2F70EC0BA0F621F731F841F48F4879542
:1030300077956795B795F7959E3F08F0B3CF939531
:10304000880F08F09927EE0F97958795089597F9BF
:103050009F6780E870E060E008959F3F31F09150F5
:1030600020F4879577956795B795880F911D96956C
:10307000879597F908959FEF80EC08959F938F931C
:103080007F936F93FF93EF939B01AC0111DAEF9164
:10309000FF912BD02F913F914F915F9109CA00244E
:1030A0000A941616170618060906089500240A94AD
:1030B00012161306140605060895092E0394000C33
:1030C00011F4882352F0BB0F40F4BF2B11F460FFC2
:1030D00004C06F5F7F4F8F4F9F4F0895E894BB27C9
:1030E00066277727CB0197F90895DF93CF931F9336
:1030F0000F93FF92EF92DF927B018C01689405C0E1
:10310000DA2EEF0121D0FE01E894A59125913591A9
:1031100045915591AEF3EF0147DFFE019701A801FC
:10312000DA9479F7DF90EF90FF900F911F91CF9194
:10313000DF910895B4DF28F0B9DF18F0952309F086
:1031400086CF99CF1124CBCF00DFA0F3959FD1F389
:10315000950F50E0551F629FF001729FBB27F00D45
:10316000B11D639FAA27F00DB11DAA1F649F66279A
:10317000B00DA11D661F829F2227B00DA11D621FE9
:10318000739FB00DA11D621F839FA00D611D221FA3
:10319000749F3327A00D611D231F849F600D211D87
:1031A000822F762F6A2F11249F5750408AF0E1F02A
:1031B00088234AF0EE0FFF1FBB1F661F771F881F73
:1031C00091505040A9F79E3F510570F040CF87CFF6
:1031D0005F3FECF3983EDCF3869577956795B7955E
:1031E000F795E7959F5FC1F7FE2B880F911D969588
:0A31F000879597F90895F894FFCF32
:1031FA000000A04000008040010000000000040020
:10320A0002000000010005000300000002000600A1
:10321A0000000000030007000800040000000B0083
:10322A000900050008000C000A00060009000D004C
:10323A00000007000A000E000F000B00000000004B
:10324A0010000C000F00000011000D00100000001B
:10325A0000000E00110000006400000000000000E1
:10326A000000000000000000000000000000000054
:10327A000000000000000000000000004572726FAC
:10328A00722E205265737461727400496E69746992
:10329A00616C697A6520737563636573732E0000C8
:1032AA0000000000000000000102020303030304FF
:1032BA0004040404040404050505050505050505BB
:1032CA00050505050505050606060606060606069B
:1032DA000606060606060606060606060606060684
:1032EA00060606060606060707070707070707076B
:1032FA000707070707070707070707070707070754
:10330A000707070707070707070707070707070743
:10331A000707070707070707070707070707070733
:10332A00070707070707070808080808080808081A
:10333A000808080808080808080808080808080803
:10334A0008080808080808080808080808080808F3
:10335A0008080808080808080808080808080808E3
:10336A0008080808080808080808080808080808D3
:10337A0008080808080808080808080808080808C3
:10338A0008080808080808080808080808080808B3
:10339A0008080808080808080808080808080808A3
:0833AA000808080808080800E3
:00000001FF
