:100000000C9455000C9474000C9474000C947400BF
:100010000C9474000C9474000C9474000C94740090
:100020000C9474000C9474000C9474000C94740080
:100030000C9474000C9474000C94960B0C94740043
:100040000C9474000C9474000C94D7100C947400ED
:100050000C9474000C9474000C9474000C94740050
:100060000C9474000C9474000C9474000C94740040
:100070000C9474000C9474000C9485000C9474001F
:100080000C9474000C9474000C94740005A84CCD6E
:10009000B2D44EB93836A9020C50B9918688083CC2
:1000A000A6AAAA2ABE000000803F11241FBECFEFDF
:1000B000D0E1DEBFCDBF12E0A0E0B1E0ECE2F3E3BF
:1000C00000E00BBF02C007900D92A03CB107D9F72A
:1000D00013E0A0ECB2E001C01D92AC30B107E1F733
:1000E0000E94660B0C9494190C94000010929B00D3
:1000F00088E980939A0086E080939D001092980092
:100100008FE580939900789408951F920F920FB60F
:100110000F9211248F939F9390919C0080919B004C
:10012000887BE1F381E08093C0029093C1029F91AC
:100130008F910F900FBE0F901F9018958091C10264
:100140001092C102F8941092C00278940895909190
:100150009B0095FFFCCF80939C0008958FEF8093C8
:10016000730088E480937000089594EA909374007B
:100170009091740097FFFCCF9EE09093730094E8F9
:10018000909374009091740097FFFCCF809373005C
:1001900084E8809374008091740087FFFCCF84E929
:1001A000809374000895EF92FF920F931F93DF9353
:1001B000CF9300D0CDB7DEB7082F162F843070F55F
:1001C000643160F58BE149835A830E94B5008CE469
:1001D0000E94B500812F0E94B500802F0E94B500BB
:1001E00080E791E00197F1F700C0E12EFF244981FB
:1001F0005A81042F152F06C00E94B50094EC9A95E1
:10020000F1F700C0E4E1EE16F10444F4F801819145
:100210008F010894E11CF11C882371F70F900F9057
:10022000CF91DF911F910F91FF90EF9008951F9351
:10023000DF93CF9300D0CDB7DEB7182F8430F0F422
:100240006431E0F48BE12A8369830E94B5008CE479
:100250000E94B5006981862F0E94B500812F0E94FF
:10026000B50080E791E00197F1F700C02A81822F65
:100270000E94B50094EC9A95F1F700C00F900F9092
:10028000CF91DF911F9108958BE10E94B50083E427
:100290000E94B50086E696EEA0E081509040A04016
:1002A000E1F70895EF92FF920F931F93182FF62E08
:1002B000E42E842F64E60E94B817082F282F30E020
:1002C000205D3F4F442737FD4095542F812F6F2DE0
:1002D0000E9417018CE9089F002D11240E0D802F1C
:1002E0006AE00E94B817E82E6F2D6F5F282F30E06C
:1002F000205D3F4F442737FD4095542F812F0E94AA
:1003000017016F2D6E5F26EFE29E202D1124200F26
:1003100030E0205D3F4F442737FD4095542F812F1B
:100320000E9417011F910F91FF90EF90089581E0B7
:1003300066E60E94A51021E030E0882311F420E059
:1003400030E0C9010895009721F46330710539F454
:1003500012C08130910519F46115710561F0861B99
:10036000970B4AE550E0849F9001859F300D949F44
:10037000300D112402C026EA3FEFC9010895EF9223
:10038000FF920F931F93CF93DF939C0103E0220F03
:10039000331F0A95E1F72F5E3E4FD9016D917D9194
:1003A000FB01EE0FFF1FEF58FE4F4081518180E0AF
:1003B00090E089010C5F1F4FE6E0EE2EF12CE20E7B
:1003C000F31E4817590751F4FB01EE0FFF1FEF58BA
:1003D000FE4F4F5F5F4F518340833DC0ED91FC91D5
:1003E0001197EE0FFF1FEF58FE4F20813181281724
:1003F000390731F401969183808321E030E02DC0EC
:10040000E801E881F981EE0FFF1FEF58FE4F2081D0
:1004100031812817390731F401969183808322E0D6
:1004200030E01BC0E701E881F981EE0FFF1FEF58B4
:10043000FE4FC081D1819C012F5F3F4FC817D90764
:1004400029F43183208323E030E007C0C901233041
:10045000310509F0B6CF20E030E0C901DF91CF913E
:100460001F910F91FF90EF9008959C016115710508
:1004700019F42F5F3F4F0EC06230710519F42150FF
:10048000304008C06330710519F42C5F3F4F02C043
:1004900024503040C90108952F923F924F925F92AD
:1004A0006F927F928F929F92AF92BF92CF92DF9284
:1004B000EF92FF920F931F93DF93CF93CDB7DEB7E9
:1004C00060970FB6F894DEBF0FBECDBF8C017B01E5
:1004D0001A01853B91051CF464EB70E002C06CE1ED
:1004E00072E0601B710B882777FD8095982F0E9422
:1004F000A4145B016C0160E070E084E393E4A60166
:1005000095010E94B91228E939EF4EE85CE30E9498
:10051000EA120E9402183B014C0160E070E084EB9B
:1005200092E4A60195010E94B91228E939EF4EE83C
:100530005CE30E94EA120E9402185B016C0181E0F8
:100540000836180728F5B701882777FD8095982F7A
:100550000E94A4147B018C01A40193010E94EA1261
:100560000E940415662E772E882E992EC801B70199
:10057000A60195010E94EA120E940415E62EF72EAC
:10058000082F192F5101CC24B7FCC094DC2C11C0CA
:1005900017FF04C0F094E194F108F3945701CC24C0
:1005A000B7FCC094DC2CEE24FF248701662477245A
:1005B0004301C401B3010E94A4146D877E878F8715
:1005C000988BC801B7010E94A4141B012C0122E0E2
:1005D0003BE247E05DE30E94EA12162FF72E982EC9
:1005E000892EC601B5010E94A4142EE432E640E132
:1005F0005EE30E94EA12A62EE72E082F692E6D8573
:100600007E858F85988925ED38E749E65DE30E9470
:10061000EA12F401212F3F2D4F2F5E2F0E948C12E2
:100620002A2D3E2D402F562D0E948C1269837A83ED
:100630008B839C83C201B10128EB3EE145E85DEB71
:100640000E94EA122A2D3E2D402F562D0E948C1218
:100650006D837E838F8398876D857E858F8598894E
:1006600025ED38E749E65DEB0E94EA12F401212FFF
:100670003F2D4F2F5E2F0E948C122A2D3E2D402F92
:10068000562D0E948C1269877A878B879C878E01F2
:100690000F5F1F4FEE245801F80160817181828144
:1006A000938120E030E040E252E40E94141487FD80
:1006B00009C080E090E0A0E2B2E4F8018083918379
:1006C000A283B383F801608171818281938120E0EC
:1006D00030E040E252EC0E94741418164CF080E0B6
:1006E00090E0A0E2B2ECF80180839183A283B3830F
:1006F0000C5F1F4FF501608171818281938120E041
:1007000030E040E857E40E94EA120E940415AB0171
:10071000BC018E2D0E94B80EE394FE2DF33009F03B
:10072000BACF0E94E60F60960FB6F894DEBF0FBEF8
:10073000CDBFCF91DF911F910F91FF90EF90DF9090
:10074000CF90BF90AF909F908F907F906F905F9071
:100750004F903F902F9008952F923F924F925F922B
:100760006F927F928F929F92AF92BF92CF92DF92C1
:10077000EF92FF920F931F93DF93CF9300D0CDB7EB
:10078000DEB79A8389831A017901882777FD8095DE
:10079000982F0E94A4146093C8027093C90280939A
:1007A000CA029093CB0280E090E0A0EAB0E480938C
:1007B000090190930A01A0930B01B0930C018FEFF4
:1007C0008DBD80E78CBD1092C3021092C20280E002
:1007D00090E0DC018093E0029093E102A093E202BA
:1007E000B093E302442455245701CC24DD240F2E7A
:1007F000F0E06F2EF0E07F2EF8E48F2EF2E49F2ED3
:10080000F02D6091C4027091C5028091C602909152
:10081000C7020E9404159B01AC0189819A81B9012C
:1008200040E050E00E944C02E090E002F090E102D3
:100830000091E2021091E302C201B1010E9456153B
:100840009B01AC01C801B7010E94141487FF1DC0B1
:10085000E090E002F090E1020091E2021091E302E8
:10086000C601B5010E9456159B01AC01C801B70134
:100870000E94141487FDC5CF6092C8027092C9020D
:100880008092CA029092CB02BCCF0F900F90CF9172
:10089000DF911F910F91FF90EF90DF90CF90BF906D
:1008A000AF909F908F907F906F905F904F903F9010
:1008B0002F9008952F923F924F925F926F927F9266
:1008C0008F929F92AF92BF92CF92DF92EF92FF9260
:1008D0000F931F93DF93CF93CDB7DEB7A6970FB6D5
:1008E000F894DEBF0FBECDBF962E872E782E692ED0
:1008F0002901DC86CB86BE86AD868FEF8DBD80E775
:100900008CBD81E090E09093C3028093C20280E0AE
:1009100090E0A0EAB0E48093090190930A01A093CB
:100920000B01B0930C0180E090E0A0E4B0E4809370
:100930000D0190930E01A0930F01B0931001BA0125
:10094000882777FD8095982F0E94A4146093C80291
:100950007093C9028093CA029093CB02B201882798
:1009600077FD8095982F0E94A4146093D002709315
:10097000D1028093D2029093D3021A86198680E026
:1009800090E0DC018D839E83AF83B88789839A834F
:10099000AB83BC83AB85BC85CD01A0E0B0E08F8B81
:1009A000988FA98FBA8FAD85BE85CD01A0E0B0E04C
:1009B0008B8F9C8FAD8FBE8FC801A0E0B0E08F8F72
:1009C00098A3A9A3BAA3C701AA2797FDA095BA2FF8
:1009D0008BA39CA3ADA3BEA38091C2029091C3023E
:1009E000009709F482C11092C3021092C202609172
:1009F000C4027091C5028091C6029091C7022AE09C
:100A000037ED43E25CE30E94EA126B8B7C8B8D8BAB
:100A10009E8B6091CC027091CD028091CE0290911C
:100A2000CF022AE037ED43E25CE30E94EA12562E41
:100A3000472E382E292EA4019301652F782D832F60
:100A4000962DD201F1012B2F3A2F4F2F5E2F0E94AE
:100A5000B912962E872E782E692EA4019301652F48
:100A6000742F832F922F20E030E0A9010E944414BC
:100A700087FF0DC0A4019301652F742F832F922F40
:100A800020E030E044EB53E40E948C121AC0A40131
:100A90009301652F742F832F922F20E030E044EBD9
:100AA00053E40E94141487FD10C0A4019301652F24
:100AB000742F832F922F20E030E044EB53E40E9408
:100AC000B912962E872E782E692EE090C402F090EF
:100AD000C5020091C6021091C702A090CC02B0904E
:100AE000CD02C090CE02D090CF02A4019301652F19
:100AF000782D832F962D0E9404156F87788B898B14
:100B00009A8BC801B7010E9404157B018C01C601B4
:100B1000B5010E9404159B01AC018F859889B7012E
:100B2000A9010E944C0269817A818B819C81BB89D9
:100B3000AC891D890E892B2F3A2F412F502F0E94EF
:100B40008C12162F072FE82EA92E862F902FAE2D50
:100B5000BA2D89839A83AB83BC836D817E818F811B
:100B60009885D201F1012B2F342D4F2F522D0E9449
:100B70008C12262F372F482F592F2D833E834F83DA
:100B800058876F89788D898D9A8D0E9456159B01A3
:100B9000AC01612F702F8E2D9A2D0E94141487FDA9
:100BA00010C0AB85BC85109761F080E090E0A8ECA8
:100BB000B2E48093C8029093C902A093CA02B09392
:100BC000CB02AD80BE80CF80D884E894D7F86B8DFF
:100BD0007C8D8D8D9E8D0E9456159B01AC01C601AA
:100BE000B5010E94141487FD2BC0AD85BE851097FA
:100BF00039F180E090E0A0EAB1E48093D0029093D4
:100C0000D102A093D202B093D3026091CC02709132
:100C1000CD028091CE029091CF0220E030E0A90178
:100C20000E947414181664F080E090E0A0EAB1EC21
:100C30008093D0029093D102A093D202B093D302BA
:100C40006F8D78A189A19AA10E9456157B018C0114
:100C500069817A818B819C81A80197010E9414147B
:100C600087FF0BC069817A818B819C819058A80194
:100C700097010E94141487FD15C080E090E0DC010C
:100C80008093C8029093C902A093CA02B093CB028A
:100C90008093C4029093C502A093C602B093C7028A
:100CA00091E099876BA17CA18DA19EA10E94A414C3
:100CB0009B01AC01C601B5010E94141487FD15C04B
:100CC00080E090E0DC018093D0029093D102A09369
:100CD000D202B093D3028093CC029093CD02A09322
:100CE000CE02B093CF02A1E0AA87B985BB2309F455
:100CF00073CEEA85EE2309F46FCEA6960FB6F8946C
:100D0000DEBF0FBECDBFCF91DF911F910F91FF903E
:100D1000EF90DF90CF90BF90AF909F908F907F909B
:100D20006F905F904F903F902F9008952F923F9239
:100D30004F925F926F927F928F929F92AF92BF92EB
:100D4000CF92DF92EF92FF920F931F93DF93CF9397
:100D5000CDB7DEB72D970FB6F894DEBF0FBECDBF6F
:100D60003B014C0159016A0180E090E0DC0189837C
:100D70009A83AB83BC838D839E83AF83B887898737
:100D80009A87AB87BC87611471048104910471F464
:100D9000211531054105510549F4E114F10401051E
:100DA000110521F489E090E00E94F30FC401B30122
:100DB0000E94A4141B012C01C601B5010E94A414B9
:100DC0003B014C0122E03BE247E05DE30E94EA1276
:100DD000D62EC72EB82E9D87C801B7010E94A41435
:100DE00029E23CE54FE05EE30E94EA12A62EE72EE0
:100DF0008C01C201B10122E430E645E65DE30E94C8
:100E0000EA12D601ED852B2F3A2F4B2D5E2F0E9433
:100E10008C122A2D3E2D402F512F0E948C12698357
:100E20007A838B839C83C401B30128EB3EE145E8C0
:100E30005DEB0E94EA122A2D3E2D402F512F0E9479
:100E40008C126D837E838F839887C201B10122E467
:100E500030E645E65DEB0E94EA12D601ED852B2FC8
:100E60003A2F4B2D5E2F0E948C122A2D3E2D402FA3
:100E7000512F0E948C1269877A878B879C878E01FD
:100E80000F5F1F4FEE245801F8016081718182814C
:100E9000938120E030E040E252E40E94141487FD88
:100EA00009C080E090E0A0E2B2E4F8018083918381
:100EB000A283B383F801608171818281938120E0F4
:100EC00030E040E252EC0E94741418164CF080E0BE
:100ED00090E0A0E2B2ECF80180839183A283B38317
:100EE0000C5F1F4FF501608171818281938120E049
:100EF00030E040E857E40E94EA120E940415AB017A
:100F0000BC018E2D0E94B80EE394FE2DF33009F043
:100F1000BACF0E94E60F2D960FB6F894DEBF0FBE33
:100F2000CDBFCF91DF911F910F91FF90EF90DF9098
:100F3000CF90BF90AF909F908F907F906F905F9079
:100F40004F903F902F900895AF92BF92CF92DF9233
:100F5000EF92FF920F931F93DF93CF93CDB7DEB73E
:100F6000A8970FB6F894DEBF0FBECDBF8C011092CC
:100F7000C3021092C2025E010894A11CB11CC501FB
:100F800060E071E00E94FB1780E060E0A5010E9434
:100F9000D3005801CC24B7FCC094DC2C80916300B2
:100FA00021B186958695869590E080959095837081
:100FB000907030E0209530952C713070822B932BFF
:100FC0008C31910541F481E060E04CE10E945201D6
:100FD00020E030E08DC08091630021B18695869538
:100FE000869590E0809590958370907030E0209584
:100FF00030952C713070822B932B8831910541F400
:1010000081E060E048E10E94520121E030E070C0E0
:101010008091630021B186958695869590E08095B4
:1010200090958370907030E0209530952C713070E1
:10103000822B932B8C30910541F481E060E04CE1F0
:101040000E94520122E030E053C0809102038536B5
:1010500040F081E060E044E60E94520123E030E08D
:1010600047C08091630021B186958695869590E072
:10107000809590958370907030E0209530952C711C
:101080003070822B932B8830910561F4C601B50135
:1010900020E030E0A901FFE0EF2EF12C012D112D11
:1010A0000E9496068091630021B18695869586956B
:1010B00090E0809590958370907030E02095309509
:1010C0002C713070822B932B8830910509F466CFF8
:1010D000C601B50120E030E0A901E1EFEE2EEFEF0F
:1010E000FE2EEFEF0E2FEFEF1E2F0E94960656CF2B
:1010F000C901A8960FB6F894DEBF0FBECDBFCF9141
:10110000DF911F910F91FF90EF90DF90CF90BF90F4
:10111000AF9008952F923F924F925F926F927F927D
:101120008F929F92AF92BF92CF92DF92EF92FF92F7
:101130000F931F93CF93DF938824992466247724F9
:1011400000E010E088E0482E512C01C08E01C20161
:101150000E94BF01EC01C801BE010E94A3011C0155
:10116000B1EFEB2EBFEFFB2EE80EF91E97FF10C07C
:1011700060E070E0CB0140E050E02AE63FEF00E0A5
:1011800010E0CC24DD24AA24BB240E945A0420C0F1
:1011900060E070E0CB0140E050E026E930E000E0A4
:1011A00010E0CC24DD24AA24BB240E945A0421147C
:1011B000310419F10DC060E070E0CB0120E030E0B7
:1011C000A901A4E6EA2EF12C012D112D0E9496060C
:1011D0008091630021B186958695869590E08095F3
:1011E00090958370907030E0209530952C71307020
:1011F000822B932B88309105F1F61092C302109246
:10120000C20288EC90E00E94A4071C018230910584
:1012100009F07CC060E070E0CB0140E050E026E9DE
:1012200030E000E010E0F0EAEF2EF12CCC24DD24D9
:10123000AA24BB240E945A040DC060E070E0CB01D8
:1012400020E030E0A901E4E6EE2EF12C012D112D75
:101250000E9496068091630021B1869586958695B9
:1012600090E0809590958370907030E02095309557
:101270002C713070822B932B88309105F1F688EC1D
:1012800090E00E94A40760E070E0CB0148EC50E0E1
:1012900020E030E002E810E0EE24FF24CC24DD243E
:1012A000AA24BB240E945A0460E070E0CB0140E015
:1012B00050E026E930E000E010E0B0EAEB2EF12C3F
:1012C0000E945A040DC060E070E0CB0120E030E0E5
:1012D000A901A4E6EA2EF12C012D112D0E949606FB
:1012E0008091630021B186958695869590E08095E2
:1012F00090958370907030E0209530952C7130700F
:10130000822B932B88309105F1F6C3C160E070E029
:10131000CB0148EC50E020E030E002E810E0EE24A1
:10132000FF24CC24DD24AA24BB240E945A04C2300A
:10133000D10519F0209709F05BC08091C20290910D
:10134000C302A1E0843F9A0708F001C1811491040F
:1013500009F0FDC0B1E02B163104B1F560E070E09A
:10136000CB0140E050E026E930E000E010E0F0EA98
:10137000EF2EF12CCC24DD24AA24BB240E945A0495
:101380000DC060E070E0CB0120E030E0A901E4E6B0
:10139000EE2EF12C012D112D0E94960680916300F6
:1013A00021B186958695869590E08095909583707D
:1013B000907030E0209530952C713070822B932BFB
:1013C00088309105F1F693C060E070E0CB0140E019
:1013D00050E026E930E000E010E0B0E6EB2EBFEF91
:1013E000FB2ECC24DD24AA24BB240E945A047FC0F7
:1013F0008091C2029091C302883C910508F0A7C079
:101400008114910409F0A3C091E029163104B1F5CB
:1014100060E070E0CB0140E050E026E930E000E021
:1014200010E0A0EAEA2EF12CCC24DD24AA24BB246F
:101430000E945A040DC060E070E0CB0120E030E073
:10144000A901F4E6EF2EF12C012D112D0E94960634
:101450008091630021B186958695869590E0809570
:1014600090958370907030E0209530952C7130709D
:10147000822B932B88309105F1F639C060E070E043
:10148000CB0140E050E026E930E000E010E0E0E68B
:10149000EE2EEFEFFE2ECC24DD24AA24BB240E94E6
:1014A0005A0410C060E070E0CB0120E030E0A901F8
:1014B000BCE9EB2EBFEFFB2EBFEF0B2FBFEF1B2FB7
:1014C0000E9496068091630021B186958695869547
:1014D00090E0809590958370907030E020953095E5
:1014E0002C713070822B932B88309105D9F666E9E8
:1014F00070E080E090E020E030E0A901EE24FF24DD
:1015000087010E9496068FEF9FEFACE281509040DA
:10151000A040E1F700C000006AE67FEF8FEF9FEF89
:1015200020E030E0A9010E9496068FEF9FEFACE229
:1015300081509040A040E1F700C000000E94970158
:101540008130910549F40894611C711C05C091E03B
:101550008916910409F098C088EC90E00E94A407D5
:101560008230910509F07CC060E070E0CB0140E082
:1015700050E026E930E000E010E0A0EAEA2EF12C8D
:10158000CC24DD24AA24BB240E945A040DC060E0B0
:1015900070E0CB0120E030E0A901F4E6EF2EF12C61
:1015A000012D112D0E9496068091630021B1869530
:1015B0008695869590E0809590958370907030E048
:1015C000209530952C713070822B932B88309105AB
:1015D000F1F688EC90E00E94A40760E070E0CB0197
:1015E00048EC50E020E030E002E810E0EE24FF2478
:1015F000CC24DD24AA24BB240E945A0460E070E0BD
:10160000CB0140E050E026E930E000E010E0E0EA05
:10161000EE2EF12C0E945A040DC060E070E0CB0168
:1016200020E030E0A901B4E6EB2EF12C012D112DC4
:101630000E9496068091630021B1869586958695D5
:1016400090E0809590958370907030E02095309573
:101650002C713070822B932B88309105F1F611C0DC
:1016600060E070E0CB0148EC50E020E030E002E8C0
:1016700010E0EE24FF24CC24DD24AA24BB240E9405
:101680005A04A1E08A2E912CC201BE010E943502AB
:101690002C01A1E06A16710409F058CDBBE04B168D
:1016A000510409F053CDDF91CF911F910F91FF901D
:1016B000EF90DF90CF90BF90AF909F908F907F90F2
:1016C0006F905F904F903F902F9008950E94AE00D2
:1016D0000E94280F0E9476000E94870E0E94C3106D
:1016E0008FE087BB1FBC85E08EBD8FEF8DBD80E78F
:1016F0008CBD84E087BF7894B49902C00E948A08A8
:1017000086B3B699F9CF4091020380E065E00E946C
:1017100052014091040381E062E00E945201409135
:10172000090381E068E00E945201EDCF1F920F9201
:101730000FB60F920BB60F921124EF92FF920F93F8
:101740001F932F933F934F935F936F937F938F9349
:101750009F93AF93BF93EF93FF938FEF8DBD80E780
:101760008CBD8091C2029091C30201969093C302F6
:101770008093C202E090E002F090E1020091E20268
:101780001091E3026091C4027091C5028091C6027B
:101790009091C7022AE037ED43E25CE30E94EA122F
:1017A0009B01AC01C801B7010E948C129B01AC01E6
:1017B0002093E0023093E1024093E2025093E3026F
:1017C000E090DC02F090DD020091DE021091DF0279
:1017D0006091EC027091ED028091EE029091EF0227
:1017E0002AE037ED43E25CE30E94EA129B01AC0180
:1017F000C801B7010E948C129B01AC012093DC024E
:101800003093DD024093DE025093DF02E090D40279
:10181000F090D5020091D6021091D7026091E402B7
:101820007091E5028091E6029091E7022AE037ED9F
:1018300043E25CE30E94EA129B01AC01C801B701DC
:101840000E948C129B01AC012093D4023093D502EC
:101850004093D6025093D702E090D802F090D9027C
:101860000091DA021091DB026091E8027091E902C6
:101870008091EA029091EB022AE037ED43E25CE3CB
:101880000E94EA129B01AC01C801B7010E948C12B0
:101890009B01AC012093D8023093D9024093DA0225
:1018A0005093DB026091C8027091C9028091CA0214
:1018B0009091CB022091C4023091C5024091C602A2
:1018C0005091C7020E94E413181694F56091C40267
:1018D0007091C5028091C6029091C70220910901C2
:1018E00030910A0140910B0150910C010E948C1221
:1018F0009B01AC012093C4023093C5024093C60201
:101900005093C7026091C8027091C9028091CA02C7
:101910009091CB022091C4023091C5024091C60241
:101920005091C7020E94741418160CF455C044C09C
:101930006091C8027091C9028091CA029091CB0255
:101940002091C4023091C5024091C6025091C70255
:101950000E94441487FF40C06091C4027091C50288
:101960008091C6029091C7022091090130910A012D
:1019700040910B0150910C010E94B9129B01AC01E6
:101980002093C4023093C5024093C6025093C7020D
:101990006091C8027091C9028091CA029091CB02F5
:1019A0002091C4023091C5024091C6025091C702F5
:1019B0000E94141487FD10C08091C8029091C90242
:1019C000A091CA02B091CB028093C4029093C50249
:1019D000A093C602B093C7026091D0027091D10269
:1019E0008091D2029091D3022091CC023091CD020D
:1019F0004091CE025091CF020E94E413181694F544
:101A00006091CC027091CD028091CE029091CF0274
:101A100020910D0130910E0140910F015091100164
:101A20000E948C129B01AC012093CC023093CD021A
:101A30004093CE025093CF026091D0027091D102B8
:101A40008091D2029091D3022091CC023091CD02AC
:101A50004091CE025091CF020E94741418160CF4DB
:101A600055C044C06091D0027091D1028091D202E1
:101A70009091D3022091CC023091CD024091CE02C0
:101A80005091CF020E94441487FF40C06091CC0265
:101A90007091CD028091CE029091CF0220910D01E4
:101AA00030910E0140910F01509110010E94B91226
:101AB0009B01AC012093CC023093CD024093CE0227
:101AC0005093CF026091D0027091D1028091D202E6
:101AD0009091D3022091CC023091CD024091CE0260
:101AE0005091CF020E94141487FD10C08091D00243
:101AF0009091D102A091D202B091D3028093CC02F6
:101B00009093CD02A093CE02B093CF02FF91EF91BC
:101B1000BF91AF919F918F917F916F915F914F9105
:101B20003F912F911F910F91FF90EF900F900BBE5F
:101B30000F900FBE0F901F90189590E0FC01B0968B
:101B4000FE2FEE2720812093FE0220FDFBCF8896FA
:101B5000B82FAA278C9190819093FE0290FDFBCF25
:101B6000089590E08096F82FEE2780818093FE0202
:101B700080FDFBCF608380818093FE0280FDFBCFE0
:101B80000895A82FB0E0FD01B096FE2FEE278081CA
:101B90008093FE0280FDFBCF9896BA2FAA27872F4D
:101BA000992787FD9A958C9380818093FE0280FD12
:101BB000FBCF6C9380818093FE0280FDFBCF089564
:101BC000DF92EF92FF920F931F93D82E7A018B0131
:101BD0009B01552737FD5095452FB9010E94C10D36
:101BE0008D2DB7010E94C10D1F910F91FF90EF90B5
:101BF000DF9008951F93182F60E00E94B10D8CECC8
:101C00009CE10197F1F700C00000812F6DE10E9477
:101C1000B10D812F60E070E00E94C10D1F91089509
:101C2000AF92BF92CF92DF92EF92FF920F931F93EA
:101C3000CF93DF93F82E6B01EA018901AA24A394C4
:101C40006115710509F4AA24BB24B394209709F403
:101C5000BB24EE24E3940115110509F4EE248F2D25
:101C60006EE10E94B10D6B2D70E0660F771F660F5D
:101C7000771F8A2D90E043E0880F991F4A95E1F77E
:101C8000682B792B8E2D90E0880F991F682B792B6C
:101C90008F2D0E94C10DAA2021F08F2DB6010E9428
:101CA000C10DBB2021F08F2DBE010E94C10DEE2081
:101CB00021F08F2DB8010E94C10D8F2D64E00E948C
:101CC000B10DDF91CF911F910F91FF90EF90DF90B9
:101CD000CF90BF90AF900895DF92EF92FF920F9355
:101CE0001F93D82E7A018B016FE10E94B10D8D2DCB
:101CF00060E270E00E94C10D8D2DB801A7010E9425
:101D0000E00D1F910F91FF90EF90DF90089580E01C
:101D100067E070E043E050E021E030E00E94100E08
:101D200081E067E070E043E050E021E030E00E94B5
:101D3000100E82E067E070E043E050E021E030E028
:101D40000E94100E80E04FEF5FEF6FEF7FE30E9485
:101D50006C0E81E04FEF5FEF6FEF7FE30E946C0E40
:101D600082E04FEF5FEF6FEF7FE30E946C0E08950C
:101D7000DF92EF92FF920F931F93DF93CF930F9217
:101D8000CDB7DEB7D82E7A018B0177FF0AC0109548
:101D90000095F094E094E11CF11C011D111D90E0F0
:101DA00001C091E08D2D6FE199830E94B10D998161
:101DB000792F7295707F60E0686078608D2D0E9449
:101DC000C10D8D2DB801A7010E94E00D0F90CF919C
:101DD000DF911F910F91FF90EF90DF9008954F9248
:101DE0005F926F927F928F929F92AF92BF92CF92AB
:101DF000DF92EF92FF920F931F93982E862E290168
:101E00003A016FE10E94B10D682D70E06A62892D80
:101E10000E94C10D892DB301A2010E94E00D892D00
:101E2000B801A7010E94E00D892DB601A5010E940D
:101E3000E00D1F910F91FF90EF90DF90CF90BF903A
:101E4000AF909F908F907F906F905F904F9008958C
:101E50008F929F92AF92BF92CF92DF92EF92FF92BA
:101E60000F931F93DF93CF9300D00F92CDB7DEB7C0
:101E70001ABA15BA8FEF84BB1092650083E0809385
:101E80006400E0E89E2E72E0A72E64E8B62E6E0194
:101E90000894C11CD11C85B3856085BB83E39BE29C
:101EA0000197F1F785B38A7F85BBECECFCE13197B4
:101EB000F1F700C00000809165008D7F8093650080
:101EC000AB9885B3887F85BB29B32983A89A99B33A
:101ED0009A8385B3887F826085BB89B38B83243CDA
:101EE00011F02438C1F5943C11F09438A1F5843CEC
:101EF00011F0843881F595BEA0926D00B0926C000F
:101F0000760100E010E28E2C8C18882D6DE10E9485
:101F1000B10D882D60E070E00E94C10DF801808154
:101F2000F70181937F0100501F4FF3E200301F073C
:101F300051F78981803C11F0803851F48A81803CCE
:101F400011F0803829F48B81803C69F0803859F099
:101F500085B78F7385BF15BA80E060E045E951E031
:101F60000E94D30098CF80E060E044EA51E00E94F4
:101F7000D30083E098B3976098BB2FEF3FEB46E028
:101F8000215030404040E1F700C0000098B3987FF6
:101F900098BB2FEF3FEB46E0215030404040E1F747
:101FA00000C00000815031F70E9444010F900F9053
:101FB0000F90CF91DF911F910F91FF90EF90DF90E5
:101FC000CF90BF90AF909F908F90089580E061E098
:101FD0000E94B10D81E061E00E94B10D82E061E0FC
:101FE0000E94B10D08951F93CF93DF93182F80E0C7
:101FF0006FE10E94B10DC1E0D0E002C0CC0FDD1F47
:102000001A95E2F780E0BE010E94C10D81E06FE108
:102010000E94B10D81E0BE010E94C10D82E06FE11E
:102020000E94B10D82E0BE010E94C10D80E061E01E
:102030000E94B10D81E061E00E94B10D82E061E09B
:102040000E94B10DDF91CF911F910895AF92BF9281
:10205000CF92DF92EF92FF920F931F93DF93CF9374
:10206000CDB7DEB72C970FB6F894DEBF0FBECDBF4D
:1020700059016A010E94A41469837A838B839C832B
:10208000C601B5010E94A4146D837E838F83988757
:10209000C801B7010E94A41469877A878B879C873F
:1020A0008E010F5F1F4FEE24F801608171818281E4
:1020B000938121E73CEA4BE85EE30E94EA129B0130
:1020C000AC01F80121933193419351938F0120E0AA
:1020D00030E040E857E40E94EA120E940415AB0188
:1020E000BC018E2D0E94B80EE394FE2DF330E1F674
:1020F0000E94E60F2C960FB6F894DEBF0FBECDBF40
:10210000CF91DF911F910F91FF90EF90DF90CF90D3
:10211000BF90AF9008958BE00E94A7008091C0020D
:102120008823E1F30E949E008823A9F381E10E94A5
:10213000A7008FEF0E94A7008091C0028823E1F3DF
:102140000E949E00882391F30895DF93CF9300D0DF
:10215000CDB7DEB719821A82880F982F990F990F81
:10216000980F690F6A838A810E94A7008091C0023C
:102170008823E1F30E949E00898389810F900F904C
:10218000CF91DF91089582B1837E82B9E4E6F0E0D9
:102190008081877E80831BB888E98AB986E0809336
:1021A0009500109290008FE089B9789408951F925D
:1021B0000F920FB60F920BB60F9211242F933F93ED
:1021C0008F939F93EF93FF939CB18BB1887BE9F33F
:1021D0009F3F21F481E08093FD0247C08091FD0282
:1021E000813009F042C08091FC02E82FF0E0E0511C
:1021F000FD4F90838F5F8093FC028091FC028B30B7
:10220000A0F11092FC028091FC028093FD0280E01C
:1022100090E03091FB02FC01E051FD4F2081230F43
:102220002093FB0201968A30910599F78091FB0279
:102230008F3F29F48091FB028F5F8093FB02909186
:10224000FB028091FA02981771F480E090E0FC01A3
:10225000E051FD4F2081FC01EE5FFC4F2083019691
:102260008A309105A1F71092FB02FF91EF919F91A7
:102270008F913F912F910F900BBE0F900FBE0F903B
:102280001F901895A0E0B0E0E8E4F1E10C94C817C5
:10229000FC01EA018081823008F438C1DB019C91A5
:1022A000923008F430C1843059F4943009F02EC1D2
:1022B000918111968C911197981709F021C126C12F
:1022C000943009F420C19230B1F4823009F01EC17B
:1022D000CA01AF0128E0DA010D90AD01DC010D92D9
:1022E000CD012150C1F7DB0111968C91119791819D
:1022F000892389830AC1823009F405C1C280D38051
:10230000DB0112966D907C90139724813581468174
:1023100057811496ED90FD900D911C911797C60171
:10232000861997095C0197FF04C0AA24BB24A81A48
:10233000B90AB0E2AB16B1040CF061C01816190668
:102340006CF5370148010A2C04C096948794779461
:1023500067940A94D2F781E090E0A0E0B0E00A2C04
:1023600004C0880F991FAA1FBB1F0A94D2F70197B8
:10237000A109B1098E219F21A023B123EE24FF24BE
:102380008701E3940097A105B10519F4EE24FF2419
:102390008701E628F728082919293CC00097D1F1C0
:1023A000CA0CDB1C39014A010A2C04C0969487949C
:1023B000779467940A94D2F781E090E0A0E0B0E0CF
:1023C0000A2C04C0880F991FAA1FBB1F0A94D2F7BA
:1023D0000197A109B10982239323A423B52321E006
:1023E00030E040E050E00097A105B10519F420E08D
:1023F00030E0A90126293729482959290BC06C1436
:102400007D0424F4EE24FF24870104C0630120E04E
:1024100030E0A9018181FB019181891709F445C050
:10242000882349F0D801C701821B930BA40BB50B7D
:102430009C01AD0104C02E193F09400B510B57FD03
:1024400004C01982DB82CA820BC081E08983DB82EF
:10245000CA8250954095309521953F4F4F4F5F4F21
:102460002C833D834E835F830DC0880F991FAA1F65
:10247000BB1F8C839D83AE83BF838A819B81019721
:102480009B838A838C819D81AE81BF819C01AD013C
:1024900021503040404050402F3FEFEF3E07EFEFDC
:1024A0004E07EFE35E0708F30BC08983DB82CA8225
:1024B0002E0D3F1D401F511F2C833D834E835F8394
:1024C00083E088832C813D814E815F8157FF1DC051
:1024D000DA01C90181709070A070B070569547956F
:1024E00037952795822B932BA42BB52B8C839D831B
:1024F000AE83BF838A819B8101969B838A8305C0BB
:10250000E8EBF1E003C0FB0101C0FE01CF01CDB754
:10251000DEB7EEE00C94E417A0E2B0E0E2E9F2E10D
:102520000C94D01769837A838B839C832D833E839D
:102530004F83588789E0E82EF12CEC0EFD1ECE016A
:102540000196B7010E94F6168E010F5E1F4FCE0155
:102550000596B8010E94F616C701B801AE01475EA4
:102560005F4F0E9442110E942816A096E6E00C944C
:10257000EC17A0E2B0E0EFEBF2E10C94D017698326
:102580007A838B839C832D833E834F8358878E0170
:10259000075F1F4FCE010196B8010E94F61691E128
:1025A000E92EF12CEC0EFD1ECE010596B7010E941E
:1025B000F6168A8991E089278A8BC801B701AE0196
:1025C000475E5F4F0E9442110E942816A096E6E0E7
:1025D0000C94EC17A0E2B0E0E0EFF2E10C94C41729
:1025E00069837A838B839C832D833E834F835887B3
:1025F000CE010196BE01675F7F4F0E94F616CE01A5
:102600000596BE016F5E7F4F0E94F6169985923047
:1026100078F089898230C0F0943019F4823041F426
:10262000CBC0843019F4923079F4C6C0923051F4A2
:1026300081E02A859A89291709F480E08A87CE01EA
:102640000996BCC0823051F481E02A859A89291705
:1026500009F480E08A8BCE014196B0C06D847E84FF
:102660008F849888ED88FE880F89188DE0E2F0E06D
:1026700080E090E0DC01AA24BB24650120E030E08A
:10268000A901B3016170707061157105D1F02E0D53
:102690003F1D401F511F15012601280E391E4A1EDD
:1026A0005B1E81E090E0A0E0B0E02E153F05400702
:1026B000510718F080E090E0DC01820D931DA41D0D
:1026C000B51DAA0CBB1CCC1CDD1C17FF09C061E0AA
:1026D000262E312C412C512CA228B328C428D528D1
:1026E000319749F0EE0CFF1C001F111F9694879440
:1026F00077946794C6CF6B897C89EB85FC856E0FD8
:102700007F1F6E5F7F4F7C8F6B8F61E0EA857A89D8
:10271000E71709F460E06A8F6B8D7C8D10C0FC01B7
:10272000E170F070309729F05695479537952795C9
:102730005068B695A795979587956F5F7F4FB7FDC2
:10274000EECF0CC0880F991FAA1FBB1F57FD8160D9
:10275000220F331F441F551F615070408030E0E04E
:102760009E07E0E0AE07E0E4BE0760F36B8F7C8F6E
:102770006FE7E62EF12C012D112DE822F9220A2314
:102780001B2360E4E616F1040105110561F487FDE1
:102790000AC0211531054105510529F0805C9F4F84
:1027A000AF4FBF4F80788D8F9E8FAF8FB8A383E0E0
:1027B000898FCE01499602C088EB91E00E942816CD
:1027C000A096E2E10C94E017A8E1B0E0EAEEF3E1B4
:1027D0000C94D01769837A838B839C832D833E83EB
:1027E0004F8358878E01075F1F4FCE010196B801B6
:1027F0000E94F61681E1E82EF12CEC0EFD1ECE01B2
:102800000596B7010E94F6168985823040F08989C5
:10281000823028F0C801B7010E945F1701C08FEF16
:102820006896E6E00C94EC17A8E1B0E0EAE1F4E188
:102830000C94D01769837A838B839C832D833E838A
:102840004F8358878E01075F1F4FCE010196B80155
:102850000E94F61681E1E82EF12CEC0EFD1ECE0151
:102860000596B7010E94F6168985823040F0898965
:10287000823028F0C801B7010E945F1701C08FEFB6
:102880006896E6E00C94EC17A8E1B0E0EAE4F4E125
:102890000C94D01769837A838B839C832D833E832A
:1028A0004F8358878E01075F1F4FCE010196B801F5
:1028B0000E94F61681E1E82EF12CEC0EFD1ECE01F1
:1028C0000596B7010E94F6168985823040F0898905
:1028D000823028F0C801B7010E945F1701C081E073
:1028E0006896E6E00C94EC17A8E1B0E0EAE7F4E1C2
:1028F0000C94D01769837A838B839C832D833E83CA
:102900004F8358878E01075F1F4FCE010196B80194
:102910000E94F61681E1E82EF12CEC0EFD1ECE0190
:102920000596B7010E94F6168985823040F08989A4
:10293000823028F0C801B7010E945F1701C081E012
:102940006896E6E00C94EC17A8E0B0E0EAEAF4E15F
:102950000C94D0177B018C0183E08983D801C701D7
:102960008827B7FD83959927AA27BB27282F8A8315
:10297000E114F1040105110519F482E0898337C0DF
:102980008EE190E09C838B83222389F080E0E8161F
:1029900080E0F80680E0080780E8180769F11095E4
:1029A0000095F094E094E11CF11C011D111DED82D5
:1029B000FE820F831887C801B7010E94CE159C01C3
:1029C000215030401216130694F4022E04C0EE0C6F
:1029D000FF1C001F111F0A94D2F7ED82FE820F83A5
:1029E00018878EE190E0821B930B9C838B83CE0132
:1029F00001960E94281604C060E070E080E09FEC21
:102A00002896E6E00C94EC17ACE0B0E0EAE0F5E1E3
:102A10000C94D41769837A838B839C83CE010196AF
:102A2000BE016B5F7F4F0E94F6168D81823081F16F
:102A3000823070F1843021F48E81882369F10AC0DC
:102A40002F81388537FD24C06E812F3131053CF050
:102A5000662311F120E030E040E050E821C08EE133
:102A600090E0821B930B29853A854B855C8504C0D9
:102A700056954795379527958A95D2F7662381F025
:102A800050954095309521953F4F4F4F5F4F08C06F
:102A900020E030E0A90104C02FEF3FEF4FEF5FE7E8
:102AA000B901CA012C96E2E00C94F017A8E0B0E05E
:102AB000ECE5F5E10C94CE177B018C011A826115CF
:102AC00071058105910519F482E089835FC083E077
:102AD00089838EE1C82ED12CDC82CB82ED82FE82EE
:102AE0000F831887C801B7010E94CE15FC013197EA
:102AF000F7FF3AC0AA27BB27AE1BBF0B21E030E08F
:102B000040E050E00A2E04C0220F331F441F551F1F
:102B10000A94D2F721503040404050402E213F21AE
:102B20004023512361E070E080E090E02115310501
:102B30004105510519F460E070E0CB0104C0169521
:102B40000795F794E794AA95D2F7E62AF72A082B77
:102B5000192BED82FE820F8318878EE190E08E1B89
:102B60009F0B9C838B8312C0309781F00E2E04C084
:102B7000EE0CFF1C001F111F0A94D2F7ED82FE829B
:102B80000F831887CE1ADF0ADC82CB82CE01019632
:102B90000E9428162896E8E00C94EA17AF92BF929C
:102BA000CF92DF92EF92FF920F931F937B018C01E4
:102BB00080E0E81680E0F80681E0080780E018076A
:102BC00058F4EFEFEE16F1040105110509F090F449
:102BD00080E090E0DC0117C0F0E0EF16F0E0FF06C7
:102BE000F0E00F07F1E01F0750F480E190E0A0E073
:102BF000B0E009C088E090E0A0E0B0E004C088E167
:102C000090E0A0E0B0E020E230E040E050E0281B9F
:102C1000390B4A0B5B0B5701680104C0D694C7946B
:102C2000B794A7948A95D2F7D601C50180549E4FD8
:102C3000FC018081281B310941095109C9011F91FB
:102C40000F91FF90EF90DF90CF90BF90AF900895DD
:102C5000EF92FF920F931F93CF93DF93FC01248198
:102C600035814681578161818081823020F44061C5
:102C7000EFEFF0E0A3C0843009F49BC0823009F488
:102C800092C0211531054105510509F48FC002801C
:102C9000F381E02D8FEFE238F8070CF05AC0C2E85C
:102CA000DFEFCE1BDF0BCA31D1056CF579018A014C
:102CB0000C2E04C016950795F794E7940A94D2F762
:102CC00081E090E0A0E0B0E00C2E04C0880F991FD6
:102CD000AA1FBB1F0A94D2F70197A109B109822349
:102CE0009323A423B52321E030E040E050E0009797
:102CF000A105B10519F420E030E0A9012E293F29F2
:102D0000402B512B03C020E030E0A901DA01C901BA
:102D10008F779070A070B07080349105A105B105D7
:102D200039F427FF09C0205C3F4F4F4F5F4F04C06D
:102D3000215C3F4F4F4F5F4FE1E0F0E0203080E0FB
:102D4000380780E0480780E4580728F5E0E0F0E025
:102D500022C0E038F1056CF5E158FF4FDA01C901F6
:102D60008F779070A070B07080349105A105B10587
:102D700039F427FF09C0205C3F4F4F4F5F4F04C01D
:102D8000215C3F4F4F4F5F4F57FF05C0569547950A
:102D900037952795319687E056954795379527952E
:102DA0008A95D1F70BC0E0E0F0E005C0E0E0F0E08C
:102DB00005C0EFEFF0E020E030E0A9018E2F87950D
:102DC00088278795942F9F77679566276795E6955F
:102DD000E22EA92FA82BFE2FF62B622F732F8A2FFE
:102DE0009F2FCDB7DEB7E6E00C94EC17DC01FB01BA
:102DF0002C9111963C91119712968C911297482F15
:102E00004F7750E0982F991F9927991F13966C912F
:102E10001397862F880F892B90E0661F6627661F01
:102E20006183009739F5211531054105510511F4EC
:102E300082E029C082E89FEF9383828367E0220FBC
:102E4000331F441F551F6A95D1F783E0808309C063
:102E5000220F331F441F551F828193810197938353
:102E60008283203080E0380780E0480780E45807FC
:102E700078F320C08F3F910579F421153105410584
:102E8000510519F484E08083089544FF03C081E074
:102E9000808310C010820EC08F579040938382832E
:102EA00083E0808387E0220F331F441F551F8A95DC
:102EB000D1F7506424833583468357830895FC01FA
:102EC000DB019081923008F449C08C91823008F483
:102ED00045C0943051F461818430B1F511962C9144
:102EE000119730E0261B310941C0843021F0923027
:102EF00041F48230B1F111968C9111978823A1F1A0
:102F00002DC06181823001F111968C911197681763
:102F1000D9F42281338112968D919C911397821757
:102F2000930794F028173907BCF024813581468136
:102F3000578114968D919D910D90BC91A02D821773
:102F40009307A407B50718F4662341F00DC02817AE
:102F500039074A075B0728F4662331F021E030E0A7
:102F600005C020E030E002C02FEF3FEFC901089517
:102F7000991B79E004C0991F961708F0961B881FCB
:102F80007A95C9F7809508952F923F924F925F925C
:102F90006F927F928F929F92AF92BF92CF92DF9269
:102FA000EF92FF920F931F93CF93DF93CDB7DEB7CE
:102FB000CA1BDB0B0FB6F894DEBF0FBECDBF099462
:102FC0002A88398848885F846E847D848C849B84B9
:102FD000AA84B984C884DF80EE80FD800C811B81C7
:102FE000AA81B981CE0FD11D0FB6F894DEBF0FBEF6
:102FF000CDBFED010895FB01DC0101900D92002091
:10300000E1F7089503D0E39528C0CEC03FD0E8F3A0
:10301000E894E0E0BB279F57F0F02AED3FE049EC51
:1030200006C0EE0FBB0F661F771F881F28F0B23A4D
:1030300062077307840728F0B25A620B730B840B84
:10304000E3959A9572F7803830F49A95BB0F661F16
:10305000771F881FD2F790489BC0EF93E0FF06C010
:10306000A2EA2AED3FE049EC5FEB37D0BFD00F90EA
:10307000039401FC9058ECE8F0E099C057FD90589B
:10308000440F551F59F05F3F71F04795880F97FB2C
:10309000991F61F09F3F79F08795089512161306E6
:1030A0001406551FF2CF4695F1DF08C01616170615
:1030B0001806991FF1CF869571056105089408954A
:1030C00087D030F08CD020F031F49F3F11F41EF403
:1030D0006BC00EF4E095E7FB53C0E92FCFDF80F320
:1030E000BA17620773078407950718F071F49EF505
:1030F0008EC00EF4E0950B2EBA2FA02D0B01B90156
:1031000090010C01CA01A0011124FF27591B99F05D
:10311000593F50F4503E68F11A16F040A22F232F69
:10312000342F4427585FF3CF469537952795A795B9
:10313000F0405395C9F77EF41F16BA0B620B730B60
:10314000840BBAF09150A1F0FF0FBB1F661F771FD1
:10315000881FC2F70EC0BA0F621F731F841F48F486
:10316000879577956795B795F7959E3F08F0B3CF0C
:103170009395880F08F09927EE0F979587950895F6
:1031800097F99F6780E870E060E008959F3F31F015
:10319000915020F4879577956795B795880F911D85
:1031A0009695879597F908959FEF80EC08959F93E2
:1031B0008F937F936F93FF93EF939B01AC010ADA98
:1031C000EF91FF912BD02F913F914F915F9102CAC8
:1031D00000240A94161617061806090608950024F6
:1031E0000A9412161306140605060895092E039470
:1031F000000C11F4882352F0BB0F40F4BF2B11F4E4
:1032000060FF04C06F5F7F4F8F4F9F4F0895E8941A
:10321000BB2766277727CB0197F90895DF93CF93D4
:103220001F930F93FF92EF92DF927B018C016894C2
:1032300005C0DA2EEF0121D0FE01E894A591259179
:10324000359145915591AEF3EF0147DFFE019701AE
:10325000A801DA9479F7DF90EF90FF900F911F911A
:10326000CF91DF910895B4DF28F0B9DF18F09523EE
:1032700009F086CF99CF1124CBCF00DFA0F3959F23
:10328000D1F3950F50E0551F629FF001729FBB274D
:10329000F00DB11D639FAA27F00DB11DAA1F649FF9
:1032A0006627B00DA11D661F829F2227B00DA11DAC
:1032B000621F739FB00DA11D621F839FA00D611D32
:1032C000221F749F3327A00D611D231F849F600D53
:1032D000211D822F762F6A2F11249F5750408AF08C
:1032E000E1F088234AF0EE0FFF1FBB1F661F771F18
:1032F000881F91505040A9F79E3F510570F040CF74
:1033000087CF5F3FECF3983EDCF386957795679522
:10331000B795F795E7959F5FC1F7FE2B880F911D35
:0C3320009695879597F90895F894FFCFD3
:10332C004D6F76654C696E65000000A04000008012
:10333C004001000000000004000200000001000534
:10334C00000300000002000600000000000300075C
:10335C00000800040000000B000900050008000C28
:10336C00000A00060009000D00000007000A000E0C
:10337C00000F000B000000000010000C000F0000FC
:10338C000011000D001000000000000E00110000E4
:10339C0000640000000000000000000000000000BD
:1033AC000000000000000000000000000000000011
:1033BC0000000000004572726F722E20526573740B
:1033CC0061727400496E697469616C697A65207305
:1033DC007563636573732E0000000000000000002D
:1033EC0000010202030303030404040404040404A0
:1033FC000505050505050505050505050505050571
:10340C000606060606060606060606060606060650
:10341C000606060606060606060606060606060640
:10342C000707070707070707070707070707070720
:10343C000707070707070707070707070707070710
:10344C000707070707070707070707070707070700
:10345C0007070707070707070707070707070707F0
:10346C0008080808080808080808080808080808D0
:10347C0008080808080808080808080808080808C0
:10348C0008080808080808080808080808080808B0
:10349C0008080808080808080808080808080808A0
:1034AC000808080808080808080808080808080890
:1034BC000808080808080808080808080808080880
:1034CC000808080808080808080808080808080870
:1034DC000808080808080808080808080808080860
:00000001FF
