:100000000C9455000C9474000C9474000C947400BF
:100010000C9474000C9474000C9474000C94740090
:100020000C9474000C9474000C9474000C94740080
:100030000C9474000C9474000C947A060C94740064
:100040000C9474000C9474000C94C4090C94740007
:100050000C9474000C9474000C9474000C94740050
:100060000C9474000C9474000C9474000C94740040
:100070000C9474000C9474000C9485000C9474001F
:100080000C9474000C9474000C94740005A84CCD6E
:10009000B2D44EB93836A9020C50B9918688083CC2
:1000A000A6AAAA2ABE000000803F11241FBECFEFDF
:1000B000D0E1DEBFCDBF12E0A0E0B1E0E8E4F3E2C2
:1000C00000E00BBF02C007900D92AC32B107D9F728
:1000D00012E0ACE2B2E001C01D92AA34B107E1F730
:1000E0000E9497010C94A2110C94000010929B00A6
:1000F00088E980939A0086E080939D001092980092
:100100008FE580939900789408951F920F920FB60F
:100110000F9211248F939F9390919C0080919B004C
:10012000887BE1F381E080932C0290932D029F91D4
:100130008F910F900FBE0F901F90189580912D02F8
:1001400010922D02F89410922C02789408959091B8
:100150009B0095FFFCCF80939C0008958FEF8093C8
:10016000730088E480937000089594EA909374007B
:100170009091740097FFFCCF9EE09093730094E8F9
:10018000909374009091740097FFFCCF809373005C
:1001900084E8809374008091740087FFFCCF84E929
:1001A000809374000895EF92FF920F931F93DF9353
:1001B000CF9300D0CDB7DEB7082F162F843070F55F
:1001C000643160F58BE149835A830E94B5008CE469
:1001D0000E94B500812F0E94B500802F0E94B500BB
:1001E00080E791E00197F1F700C0E12EFF244981FB
:1001F0005A81042F152F06C00E94B50094EC9A95E1
:10020000F1F700C0E4E1EE16F10444F4F801819145
:100210008F010894E11CF11C882371F70F900F9057
:10022000CF91DF911F910F91FF90EF9008951F9351
:10023000DF93CF9300D0CDB7DEB7182F8430F0F422
:100240006431E0F48BE12A8369830E94B5008CE479
:100250000E94B5006981862F0E94B500812F0E94FF
:10026000B50080E791E00197F1F700C02A81822F65
:100270000E94B50094EC9A95F1F700C00F900F9092
:10028000CF91DF911F9108958BE10E94B50083E427
:100290000E94B50086E696EEA0E081509040A04016
:1002A000E1F70895EF92FF920F931F93182FF62E08
:1002B000E42E842F64E60E94CD0F082F282F30E013
:1002C000205D3F4F442737FD4095542F812F6F2DE0
:1002D0000E9417018CE9089F002D11240E0D802F1C
:1002E0006AE00E94CD0FE82E6F2D6F5F282F30E05F
:1002F000205D3F4F442737FD4095542F812F0E94AA
:1003000017016F2D6E5F26EFE29E202D1124200F26
:1003100030E0205D3F4F442737FD4095542F812F1B
:100320000E9417011F910F91FF90EF9008950E9476
:10033000AE000E9415080E9476000E9474070E9479
:10034000B0098FE087BB1FBC85E08EBD8FEF8DBDF0
:1003500080E78CBD84E087BF789480E090E00895CA
:100360002F923F924F925F926F927F928F929F92C5
:10037000AF92BF92CF92DF92EF92FF920F931F93B3
:10038000DF93CF93CDB7DEB760970FB6F894DEBF9B
:100390000FBECDBF8C017B011A01853B91051CF47A
:1003A00064EB70E002C06CE172E0601B710B8827A7
:1003B00077FD8095982F0E94310D5B016C0160E004
:1003C00070E084E393E4A60195010E94A60B28E95E
:1003D00039EF4EE85CE30E94D70B0E9410103B01FE
:1003E0004C0160E070E084EB92E4A60195010E946C
:1003F000A60B28E939EF4EE85CE30E94D70B0E9478
:1004000010105B016C0181E00836180728F5B70170
:10041000882777FD8095982F0E94310D7B018C01F4
:10042000A40193010E94D70B0E94910D662E772E96
:10043000882E992EC801B701A60195010E94D70BFD
:100440000E94910DE62EF72E082F192F5101CC2472
:10045000B7FCC094DC2C11C017FF04C0F094E194E9
:10046000F108F3945701CC24B7FCC094DC2CEE24A3
:10047000FF248701662477244301C401B3010E944D
:10048000310D6D877E878F87988BC801B7010E94D9
:10049000310D1B012C0122E03BE247E05DE30E94AD
:1004A000D70B162FF72E982E892EC601B5010E9464
:1004B000310D2EE432E640E15EE30E94D70BA62E1A
:1004C000E72E082F692E6D857E858F85988925ED0D
:1004D00038E749E65DE30E94D70BF401212F3F2D59
:1004E0004F2F5E2F0E94790B2A2D3E2D402F562D27
:1004F0000E94790B69837A838B839C83C201B1014B
:1005000028EB3EE145E85DEB0E94D70B2A2D3E2DFE
:10051000402F562D0E94790B6D837E838F839887A1
:100520006D857E858F85988925ED38E749E65DEBF9
:100530000E94D70BF401212F3F2D4F2F5E2F0E94D9
:10054000790B2A2D3E2D402F562D0E94790B69875D
:100550007A878B879C878E010F5F1F4FEE2458018F
:10056000F801608171818281938120E030E040E276
:1005700052E40E94D10C87FD09C080E090E0A0E227
:10058000B2E4F80180839183A283B383F801608190
:1005900071818281938120E030E040E252EC0E9440
:1005A000010D18164CF080E090E0A0E2B2ECF801EA
:1005B00080839183A283B3830C5F1F4FF501608119
:1005C00071818281938120E030E040E857E40E940D
:1005D000D70B0E94910DAB01BC018E2D0E94A50787
:1005E000E394FE2DF33009F0BACF0E94D308609651
:1005F0000FB6F894DEBF0FBECDBFCF91DF911F9134
:100600000F91FF90EF90DF90CF90BF90AF909F90B1
:100610008F907F906F905F904F903F902F900895B4
:100620002F923F924F925F926F927F928F929F9202
:10063000AF92BF92CF92DF92EF92FF920F931F93F0
:10064000DF93CF93CDB7DEB72D970FB6F894DEBF0B
:100650000FBECDBF3B014C0159016A0180E090E023
:10066000DC0189839A83AB83BC838D839E83AF83B4
:10067000B88789879A87AB87BC8761147104810426
:10068000910471F4211531054105510549F4E11436
:10069000F1040105110521F489E090E00E94E008D1
:1006A000C401B3010E94310D1B012C01C601B5012B
:1006B0000E94310D3B014C0122E03BE247E05DE34B
:1006C0000E94D70BD62EC72EB82E9D87C801B70122
:1006D0000E94310D29E23CE54FE05EE30E94D70B1A
:1006E000A62EE72E8C01C201B10122E430E645E6D8
:1006F0005DE30E94D70BD601ED852B2F3A2F4B2DB2
:100700005E2F0E94790B2A2D3E2D402F512F0E94E3
:10071000790B69837A838B839C83C401B30128EBB3
:100720003EE145E85DEB0E94D70B2A2D3E2D402F80
:10073000512F0E94790B6D837E838F839887C2012E
:10074000B10122E430E645E65DEB0E94D70BD6010D
:10075000ED852B2F3A2F4B2D5E2F0E94790B2A2DE2
:100760003E2D402F512F0E94790B69877A878B8706
:100770009C878E010F5F1F4FEE245801F8016081A6
:1007800071818281938120E030E040E252E40E9456
:10079000D10C87FD09C080E090E0A0E2B2E4F8014E
:1007A00080839183A283B383F80160817181828108
:1007B000938120E030E040E252EC0E94010D1816D7
:1007C0004CF080E090E0A0E2B2ECF80180839183ED
:1007D000A283B3830C5F1F4FF50160817181828119
:1007E000938120E030E040E857E40E94D70B0E945C
:1007F000910DAB01BC018E2D0E94A507E394FE2D47
:10080000F33009F0BACF0E94D3082D960FB6F894B2
:10081000DEBF0FBECDBFCF91DF911F910F91FF9033
:10082000EF90DF90CF90BF90AF909F908F907F9090
:100830006F905F904F903F902F900895CF92DF92EE
:10084000EF92FF920F931F93CF93DF936B01813051
:10085000910539F5C6E9D0E04091430280E060E0BF
:100860000E94520180914402873940F080914502F4
:10087000873920F081E0C816D104B9F18091430294
:100880007E01E81AF1080027F7FC0095102F68E3B5
:100890007FEF8FEF9FEF20E030E0A9010E9410036F
:1008A000DBCFCCE8D0E0809140028A3520F481E0B3
:1008B000C816D104D1F080914802843620F482E039
:1008C000C816D10491F04091480280E060E00E9497
:1008D000520180914102AE01481B510980E090E035
:1008E00068EC70E00E94B001DECF60E070E0CB0108
:1008F00020E030E0A901EE24FF2487010E941003CC
:10090000DF91CF911F910F91FF90EF90DF90CF90EB
:100910000895EF92FF920F931F934091410280E060
:1009200060E00E9452014091480280E065E00E9430
:10093000520168EC70E080E090E020E030E0A90136
:1009400008C068EC70E080E090E026E930E040E02C
:1009500050E0EE24FF2487010E94100380914102A1
:10096000853678F70DC068EC70E080E090E02AE60C
:100970003FEF4FEF5FEFEE24FF2487010E9410034B
:1009800080914802813548F2EECFAF92BF92CF926C
:10099000DF92EF92FF920F931F935C01409144020C
:1009A00083E065E00E9452014091450283E068E0E7
:1009B0000E94520180914502893D20F080914502BC
:1009C0008C3DE8F06091450220914402409145023F
:1009D00070E0695D7040882777FD8095982F30E042
:1009E0002E513040241B310979010027F7FC009576
:1009F000102F20E030E0A9010E941003CFCFC39A4E
:100A00008FEF9FE7A4E081509040A040E1F700C045
:100A10000000C39860E070E0CB0120E030E0A90165
:100A2000EE24FF2487010E941003CC24B7FCC0945D
:100A3000DC2C809147028739E0F4609145022091D7
:100A400044024091450270E0675D7040882777FD61
:100A50008095982F30E02E513040241B31097901C8
:100A60000027F7FC0095102FA60195010E941003A6
:100A7000E0CF60E070E0CB0120E030E0A901EE249F
:100A8000FF2487010E941003C39A8FEF9FE7A4E021
:100A900081509040A040E1F700C00000C3981F9132
:100AA0000F91FF90EF90DF90CF90BF90AF9008959F
:100AB000EF92FF920F931F93CF93DF93EB0181305F
:100AC000910501F5809140028A3518F4C130D105B5
:100AD000D9F180914102843618F4C230D105A1F1D8
:100AE0004091410280E060E00E9452014091410249
:100AF00050E04758504080E090E068EC70E00E9481
:100B0000B001E0CF07E810E0809140028A3518F488
:100B1000C130D105C9F080914802843618F4C23042
:100B2000D10591F04091480280E060E00E945201BE
:100B300080914802A801481B510980E090E068ECD0
:100B400070E00E94B001E0CF60E070E0CB0120E0F7
:100B500030E0A901EE24FF2487010E941003DF91F9
:100B6000CF911F910F91FF90EF900895EF92FF9218
:100B70000F931F93CF93DF93EC014091410281E0EB
:100B800060E00E9452014091430282E060E00E94D6
:100B900052014091440283E065E00E94520140917D
:100BA000450283E068E00E94520160914402209176
:100BB0004102E0914102A091430270E06A5F7040FF
:100BC000882777FD8095982F30E02C1B3D0B44271C
:100BD00037FD4095542FF0E0F496EA1BF1097F01B0
:100BE0000027F7FC0095102F0E9410038FEF9FE85D
:100BF0000197F1F700C0000080914102893808F0A8
:100C0000BCCF80914102883808F4B7CF809143026D
:100C10008C3B08F0B2CF809143028B3B08F4ADCF00
:100C2000809144028A3F08F0A8CF80914402883F17
:100C300008F4A3CF809145028D3D08F49ECF8091AA
:100C400045028F3D08F099CFC39A8FEF9FE7A4E04C
:100C500081509040A040E1F700C00000C398C39AC3
:100C60008FEF9FE7A4E081509040A040E1F700C0E3
:100C70000000C39860E070E0CB0120E030E0A90103
:100C8000EE24FF2487010E941003DF91CF911F9172
:100C90000F91FF90EF900895EF92FF920F931F93A3
:100CA000CF93DF93EB018A0120E4E22E22E0F22EC3
:100CB000E80EF91E07C080E090E0B80140E050E087
:100CC0000E94B001F701808190E08C179D079CF392
:100CD00060E070E0CB0120E030E0A901EE24FF24C9
:100CE00087010E941003DF91CF911F910F91FF9018
:100CF000EF9008951F920F920FB60F9211248F93C9
:100D00008FEF8DBD80E78CBD8F910F900FBE0F9040
:100D10001F90189590E0FC01B096FE2FEE272081E1
:100D200020933C0220FDFBCF8896B82FAA278C91F8
:100D3000908190933C0290FDFBCF089590E08096C7
:100D4000F82FEE27808180933C0280FDFBCF6083EB
:100D5000808180933C0280FDFBCF0895A82FB0E0F6
:100D6000FD01B096FE2FEE27808180933C0280FD2E
:100D7000FBCF9896BA2FAA27872F992787FD9A9598
:100D80008C93808180933C0280FDFBCF6C938081AB
:100D900080933C0280FDFBCF0895DF92EF92FF929B
:100DA0000F931F93D82E7A018B019B01552737FD96
:100DB0005095452FB9010E94AE068D2DB7010E94B6
:100DC000AE061F910F91FF90EF90DF9008951F9353
:100DD000182F60E00E949E068CEC9CE10197F1F7D1
:100DE00000C00000812F6DE10E949E06812F60E00F
:100DF00070E00E94AE061F910895AF92BF92CF920D
:100E0000DF92EF92FF920F931F93CF93DF93F82E11
:100E10006B01EA018901AA24A3946115710509F403
:100E2000AA24BB24B394209709F4BB24EE24E394B2
:100E30000115110509F4EE248F2D6EE10E949E0626
:100E40006B2D70E0660F771F660F771F8A2D90E07D
:100E500043E0880F991F4A95E1F7682B792B8E2D77
:100E600090E0880F991F682B792B8F2D0E94AE067A
:100E7000AA2021F08F2DB6010E94AE06BB2021F0E2
:100E80008F2DBE010E94AE06EE2021F08F2DB801FD
:100E90000E94AE068F2D64E00E949E06DF91CF91E6
:100EA0001F910F91FF90EF90DF90CF90BF90AF9088
:100EB0000895DF92EF92FF920F931F93D82E7A013D
:100EC0008B016FE10E949E068D2D60E270E00E9412
:100ED000AE068D2DB801A7010E94CD061F910F917E
:100EE000FF90EF90DF90089580E067E070E043E0CE
:100EF00050E021E030E00E94FD0681E067E070E014
:100F000043E050E021E030E00E94FD0682E067E02F
:100F100070E043E050E021E030E00E94FD0680E018
:100F20004FEF5FEF6FEF7FE30E94590781E04FEFD4
:100F30005FEF6FEF7FE30E94590782E04FEF5FEFB3
:100F40006FEF7FE30E9459070895DF92EF92FF92BF
:100F50000F931F93DF93CF930F92CDB7DEB7D82EA9
:100F60007A018B0177FF0AC010950095F094E09408
:100F7000E11CF11C011D111D90E001C091E08D2DBF
:100F80006FE199830E949E069981792F7295707FF7
:100F900060E0686078608D2D0E94AE068D2DB801EE
:100FA000A7010E94CD060F90CF91DF911F910F9165
:100FB000FF90EF90DF9008954F925F926F927F9233
:100FC0008F929F92AF92BF92CF92DF92EF92FF9259
:100FD0000F931F93982E862E29013A016FE10E94EC
:100FE0009E06682D70E06A62892D0E94AE06892DEA
:100FF000B301A2010E94CD06892DB801A7010E946C
:10100000CD06892DB601A5010E94CD061F910F9135
:10101000FF90EF90DF90CF90BF90AF909F908F9018
:101020007F906F905F904F9008958F929F92AF92B4
:10103000BF92CF92DF92EF92FF920F931F93DF93B5
:10104000CF9300D00F92CDB7DEB71ABA15BA8FEF93
:1010500084BB1092650083E080936400E0E89E2EDC
:1010600072E0A72E64E8B62E6E010894C11CD11C54
:1010700085B3856085BB83E39BE20197F1F785B378
:101080008A7F85BBECECFCE13197F1F700C00000F2
:10109000809165008D7F80936500AB9885B3887FD4
:1010A00085BB29B32983A89A99B39A8385B3887F8E
:1010B000826085BB89B38B83243C11F02438C1F551
:1010C000943C11F09438A1F5843C11F0843881F5FA
:1010D00095BEA0926D00B0926C00760100E010E227
:1010E0008E2C8C18882D6DE10E949E06882D60E064
:1010F00070E00E94AE06F8018081F70181937F01C4
:1011000000501F4FF3E200301F0751F78981803CE8
:1011100011F0803851F48A81803C11F0803829F434
:101120008B81803C69F0803859F085B78F7385BF1B
:1011300015BA80E060E040E051E00E94D30098CF13
:1011400080E060E04FE051E00E94D30083E098B37C
:10115000976098BB2FEF3FEB46E021503040404076
:10116000E1F700C0000098B3987F98BB2FEF3FEBEA
:1011700046E0215030404040E1F700C0000081507F
:1011800031F70E9444010F900F900F90CF91DF91A3
:101190001F910F91FF90EF90DF90CF90BF90AF9095
:1011A0009F908F90089580E061E00E949E0681E00C
:1011B00061E00E949E0682E061E00E949E06089522
:1011C0001F93CF93DF93182F80E06FE10E949E065C
:1011D000C1E0D0E002C0CC0FDD1F1A95E2F780E03D
:1011E000BE010E94AE0681E06FE10E949E0681E092
:1011F000BE010E94AE0682E06FE10E949E0682E080
:10120000BE010E94AE0680E061E00E949E0681E081
:1012100061E00E949E0682E061E00E949E06DF91EE
:10122000CF911F910895AF92BF92CF92DF92EF922C
:10123000FF920F931F93DF93CF93CDB7DEB72C9719
:101240000FB6F894DEBF0FBECDBF59016A010E94F0
:10125000310D69837A838B839C83C601B5010E941B
:10126000310D6D837E838F839887C801B7010E94FB
:10127000310D69877A878B879C878E010F5F1F4F9F
:10128000EE24F801608171818281938121E73CEA3B
:101290004BE85EE30E94D70B9B01AC01F801219360
:1012A0003193419351938F0120E030E040E857E4BF
:1012B0000E94D70B0E94910DAB01BC018E2D0E94A4
:1012C000A507E394FE2DF330E1F60E94D3082C9697
:1012D0000FB6F894DEBF0FBECDBFCF91DF911F9147
:1012E0000F91FF90EF90DF90CF90BF90AF90089557
:1012F0008BE00E94A70080912C028823E1F30E94DA
:101300009E008823A9F381E10E94A7008FEF0E942D
:10131000A70080912C028823E1F30E949E0088237D
:1013200091F30895DF93CF9300D0CDB7DEB7198244
:101330001A82880F982F990F990F980F690F6A8357
:101340008A810E94A70080912C028823E1F30E94E9
:101350009E00898389810F900F90CF91DF9108952E
:1013600082B1837E82B9E4E6F0E08081877E80836B
:101370001BB888E98AB986E08093950010929000A6
:101380008FE089B9789408951F920F920FB60F924B
:101390000BB60F9211242F933F938F939F93EF934C
:1013A000FF939CB18BB1887BE9F39F3F21F481E0EF
:1013B00080933B0247C080913B02813009F042C0DC
:1013C00080913A02E82FF0E0E25DFD4F90838F5F5D
:1013D00080933A0280913A028B30A0F110923A0247
:1013E00080913A0280933B0280E090E03091390294
:1013F000FC01E25DFD4F2081230F2093390201960D
:101400008A30910599F7809139028F3F29F48091B4
:1014100039028F5F809339029091390280913802AE
:10142000981771F480E090E0FC01E25DFD4F2081AF
:10143000FC01E05CFD4F208301968A309105A1F705
:1014400010923902FF91EF919F918F913F912F91CF
:101450000F900BBE0F900FBE0F901F901895A0E03D
:10146000B0E0E5E3FAE00C94DD0FFC01EA018081D5
:10147000823008F438C1DB019C91923008F430C10D
:10148000843059F4943009F02EC1918111968C91D9
:101490001197981709F021C126C1943009F420C191
:1014A0009230B1F4823009F01EC1CA01AF0128E0C8
:1014B000DA010D90AD01DC010D92CD012150C1F793
:1014C000DB0111968C9111979181892389830AC13F
:1014D000823009F405C1C280D380DB0112966D9081
:1014E0007C90139724813581468157811496ED9025
:1014F000FD900D911C911797C601861997095C0103
:1015000097FF04C0AA24BB24A81AB90AB0E2AB16FC
:10151000B1040CF061C0181619066CF537014801CA
:101520000A2C04C096948794779467940A94D2F70F
:1015300081E090E0A0E0B0E00A2C04C0880F991F81
:10154000AA1FBB1F0A94D2F70197A109B1098E21E6
:101550009F21A023B123EE24FF248701E394009769
:10156000A105B10519F4EE24FF248701E628F72828
:10157000082919293CC00097D1F1CA0CDB1C39019C
:101580004A010A2C04C096948794779467940A942D
:10159000D2F781E090E0A0E0B0E00A2C04C0880F10
:1015A000991FAA1FBB1F0A94D2F70197A109B1097D
:1015B00082239323A423B52321E030E040E050E0D0
:1015C0000097A105B10519F420E030E0A901262912
:1015D0003729482959290BC06C147D0424F4EE24C2
:1015E000FF24870104C0630120E030E0A90181816C
:1015F000FB019181891709F445C0882349F0D8017E
:10160000C701821B930BA40BB50B9C01AD0104C059
:101610002E193F09400B510B57FD04C01982DB8284
:10162000CA820BC081E08983DB82CA8250954095D3
:10163000309521953F4F4F4F5F4F2C833D834E8315
:101640005F830DC0880F991FAA1FBB1F8C839D83CA
:10165000AE83BF838A819B8101979B838A838C8120
:101660009D81AE81BF819C01AD0121503040404041
:1016700050402F3FEFEF3E07EFEF4E07EFE35E07DF
:1016800008F30BC08983DB82CA822E0D3F1D401FE9
:10169000511F2C833D834E835F8383E088832C819D
:1016A0003D814E815F8157FF1DC0DA01C901817004
:1016B0009070A070B0705695479537952795822BFE
:1016C000932BA42BB52B8C839D83AE83BF838A8100
:1016D0009B8101969B838A8305C0E3E2F1E003C00E
:1016E000FB0101C0FE01CF01CDB7DEB7EEE00C94E7
:1016F000F90FA0E2B0E0EFE7FBE00C94E50F69839F
:101700007A838B839C832D833E834F83588789E024
:10171000E82EF12CEC0EFD1ECE010196B7010E94C1
:101720000B0F8E010F5E1F4FCE010596B8010E9470
:101730000B0FC701B801AE01475E5F4F0E942F0A31
:101740000E943D0EA096E6E00C940110A0E2B0E0ED
:10175000ECEAFBE00C94E50F69837A838B839C832E
:101760002D833E834F8358878E01075F1F4FCE0125
:101770000196B8010E940B0F91E1E92EF12CEC0EBD
:10178000FD1ECE010596B7010E940B0F8A8991E0DC
:1017900089278A8BC801B701AE01475E5F4F0E945F
:1017A0002F0A0E943D0EA096E6E00C940110A0E2E4
:1017B000B0E0EDEDFBE00C94D90F69837A838B8365
:1017C0009C832D833E834F835887CE010196BE01B3
:1017D000675F7F4F0E940B0FCE010596BE016F5EC3
:1017E0007F4F0E940B0F9985923078F08989823063
:1017F000C0F0943019F4823041F4CBC0843019F435
:10180000923079F4C6C0923051F481E02A859A89E9
:10181000291709F480E08A87CE010996BCC082307E
:1018200051F481E02A859A89291709F480E08A8B8E
:10183000CE014196B0C06D847E848F849888ED88F7
:10184000FE880F89188DE0E2F0E080E090E0DC0196
:10185000AA24BB24650120E030E0A901B301617036
:10186000707061157105D1F02E0D3F1D401F511F85
:1018700015012601280E391E4A1E5B1E81E090E0EC
:10188000A0E0B0E02E153F054007510718F080E0BA
:1018900090E0DC01820D931DA41DB51DAA0CBB1C9C
:1018A000CC1CDD1C17FF09C061E0262E312C412C19
:1018B000512CA228B328C428D528319749F0EE0C22
:1018C000FF1C001F111F9694879477946794C6CFCE
:1018D0006B897C89EB85FC856E0F7F1F6E5F7F4F68
:1018E0007C8F6B8F61E0EA857A89E71709F460E005
:1018F0006A8F6B8D7C8D10C0FC01E170F0703097A9
:1019000029F056954795379527955068B695A79530
:10191000979587956F5F7F4FB7FDEECF0CC0880F0F
:10192000991FAA1FBB1F57FD8160220F331F441F41
:10193000551F615070408030E0E09E07E0E0AE0748
:10194000E0E4BE0760F36B8F7C8F6FE7E62EF12C2F
:10195000012D112DE822F9220A231B2360E4E6164B
:10196000F1040105110561F487FD0AC02115310557
:101970004105510529F0805C9F4FAF4FBF4F8078E4
:101980008D8F9E8FAF8FB8A383E0898FCE0149964C
:1019900002C083E291E00E943D0EA096E2E10C9429
:1019A000F50FA8E1B0E0E7EDFCE00C94E50F6983EA
:1019B0007A838B839C832D833E834F8358878E014C
:1019C000075F1F4FCE010196B8010E940B0F81E106
:1019D000E82EF12CEC0EFD1ECE010596B7010E94FB
:1019E0000B0F8985823040F08989823028F0C80148
:1019F000B7010E94740F01C08FEF6896E6E00C9467
:101A00000110A8E1B0E0E7E0FDE00C94E50F698388
:101A10007A838B839C832D833E834F8358878E01EB
:101A2000075F1F4FCE010196B8010E940B0F81E1A5
:101A3000E82EF12CEC0EFD1ECE010596B7010E949A
:101A40000B0F8985823040F08989823028F0C801E7
:101A5000B7010E94740F01C081E06896E6E00C9423
:101A60000110A8E0B0E0E7E3FDE00C94E50F7B0196
:101A70008C0183E08983D801C7018827B7FD83954E
:101A80009927AA27BB27282F8A83E114F10401058F
:101A9000110519F482E0898337C08EE190E09C83C0
:101AA0008B83222389F080E0E81680E0F80680E04E
:101AB000080780E8180769F110950095F094E09404
:101AC000E11CF11C011D111DED82FE820F831887A0
:101AD000C801B7010E94E30D9C012150304012164D
:101AE000130694F4022E04C0EE0CFF1C001F111FFD
:101AF0000A94D2F7ED82FE820F8318878EE190E080
:101B0000821B930B9C838B83CE0101960E943D0E1A
:101B100004C060E070E080E09FEC2896E6E00C9462
:101B20000110ACE0B0E0E7E9FDE00C94E90F698357
:101B30007A838B839C83CE010196BE016B5F7F4FBE
:101B40000E940B0F8D81823081F1823070F18430E0
:101B500021F48E81882369F10AC02F81388537FDF1
:101B600024C06E812F3131053CF0662311F120E055
:101B700030E040E050E821C08EE190E0821B930B02
:101B800029853A854B855C8504C0569547953795E0
:101B900027958A95D2F7662381F050954095309528
:101BA00021953F4F4F4F5F4F08C020E030E0A90123
:101BB00004C02FEF3FEF4FEF5FE7B901CA012C964A
:101BC000E2E00C940510AF92BF92CF92DF92EF92B9
:101BD000FF920F931F937B018C0180E0E81680E059
:101BE000F80681E0080780E0180758F4EFEFEE16DA
:101BF000F1040105110509F090F480E090E0DC01AA
:101C000017C0F0E0EF16F0E0FF06F0E00F07F1E09C
:101C10001F0750F480E190E0A0E0B0E009C088E048
:101C200090E0A0E0B0E004C088E190E0A0E0B0E087
:101C300020E230E040E050E0281B390B4A0B5B0B00
:101C40005701680104C0D694C794B794A7948A95A5
:101C5000D2F7D601C501855D9E4FFC018081281B0E
:101C6000310941095109C9011F910F91FF90EF906E
:101C7000DF90CF90BF90AF900895EF92FF920F93B7
:101C80001F93CF93DF93FC012481358146815781D7
:101C900061818081823020F44061EFEFF0E0A3C0E9
:101CA000843009F49BC0823009F492C021153105BB
:101CB0004105510509F48FC00280F381E02D8FEFBB
:101CC000E238F8070CF05AC0C2E8DFEFCE1BDF0B9A
:101CD000CA31D1056CF579018A010C2E04C0169524
:101CE0000795F794E7940A94D2F781E090E0A0E09A
:101CF000B0E00C2E04C0880F991FAA1FBB1F0A94C6
:101D0000D2F70197A109B10982239323A423B52314
:101D100021E030E040E050E00097A105B10519F462
:101D200020E030E0A9012E293F29402B512B03C090
:101D300020E030E0A901DA01C9018F779070A0702E
:101D4000B07080349105A105B10539F427FF09C0B1
:101D5000205C3F4F4F4F5F4F04C0215C3F4F4F4FC0
:101D60005F4FE1E0F0E0203080E0380780E0480796
:101D700080E4580728F5E0E0F0E022C0E038F10503
:101D80006CF5E158FF4FDA01C9018F779070A070B0
:101D9000B07080349105A105B10539F427FF09C061
:101DA000205C3F4F4F4F5F4F04C0215C3F4F4F4F70
:101DB0005F4F57FF05C05695479537952795319644
:101DC00087E056954795379527958A95D1F70BC0AB
:101DD000E0E0F0E005C0E0E0F0E005C0EFEFF0E0AB
:101DE00020E030E0A9018E2F879588278795942FD2
:101DF0009F77679566276795E695E22EA92FA82B12
:101E0000FE2FF62B622F732F8A2F9F2FCDB7DEB7B1
:101E1000E6E00C940110DC01FB012C9111963C9141
:101E2000119712968C911297482F4F7750E0982F68
:101E3000991F9927991F13966C911397862F880FD6
:101E4000892B90E0661F6627661F6183009739F52E
:101E5000211531054105510511F482E029C082E8C0
:101E60009FEF9383828367E0220F331F441F551F28
:101E70006A95D1F783E0808309C0220F331F441F86
:101E8000551F82819381019793838283203080E064
:101E9000380780E0480780E4580778F320C08F3F78
:101EA000910579F4211531054105510519F484E0B6
:101EB0008083089544FF03C081E0808310C01082B6
:101EC0000EC08F5790409383828383E0808387E0A6
:101ED000220F331F441F551F8A95D1F75064248366
:101EE0003583468357830895FC01DB01908192304E
:101EF00008F449C08C91823008F445C0943051F404
:101F000061818430B1F511962C91119730E0261B38
:101F1000310941C0843021F0923041F48230B1F176
:101F200011968C9111978823A1F12DC06181823087
:101F300001F111968C9111976817D9F422813381A0
:101F400012968D919C9113978217930794F02817FE
:101F50003907BCF0248135814681578114968D91D3
:101F60009D910D90BC91A02D82179307A407B507F2
:101F700018F4662341F00DC0281739074A075B079C
:101F800028F4662331F021E030E005C020E030E0A5
:101F900002C02FEF3FEFC9010895991B79E004C0FB
:101FA000991F961708F0961B881F7A95C9F7809598
:101FB00008952F923F924F925F926F927F928F92ED
:101FC0009F92AF92BF92CF92DF92EF92FF920F93C8
:101FD0001F93CF93DF93CDB7DEB7CA1BDB0B0FB6D2
:101FE000F894DEBF0FBECDBF09942A88398848888F
:101FF0005F846E847D848C849B84AA84B984C88425
:10200000DF80EE80FD800C811B81AA81B981CE0F1B
:10201000D11D0FB6F894DEBF0FBECDBFED01089500
:1020200003D0E39528C0CEC03FD0E8F3E894E0E0C9
:10203000BB279F57F0F02AED3FE049EC06C0EE0FBA
:10204000BB0F661F771F881F28F0B23A620773071D
:10205000840728F0B25A620B730B840BE3959A95B0
:1020600072F7803830F49A95BB0F661F771F881F70
:10207000D2F790489BC0EF93E0FF06C0A2EA2AED9A
:102080003FE049EC5FEB37D0BFD00F90039401FCE9
:102090009058ECE8F0E099C057FD9058440F551F58
:1020A00059F05F3F71F04795880F97FB991F61F0DA
:1020B0009F3F79F087950895121613061406551F51
:1020C000F2CF4695F1DF08C0161617061806991FBD
:1020D000F1CF8695710561050894089587D030F099
:1020E0008CD020F031F49F3F11F41EF46BC00EF43D
:1020F000E095E7FB53C0E92FCFDF80F3BA17620703
:1021000073078407950718F071F49EF58EC00EF4DE
:10211000E0950B2EBA2FA02D0B01B90190010C01F7
:10212000CA01A0011124FF27591B99F0593F50F40F
:10213000503E68F11A16F040A22F232F342F442767
:10214000585FF3CF469537952795A795F04053955F
:10215000C9F77EF41F16BA0B620B730B840BBAF02F
:102160009150A1F0FF0FBB1F661F771F881FC2F79A
:102170000EC0BA0F621F731F841F48F487957795AE
:102180006795B795F7959E3F08F0B3CF9395880F65
:1021900008F09927EE0F97958795089597F99F670F
:1021A00080E870E060E008959F3F31F0915020F4A6
:1021B000879577956795B795880F911D9695879523
:1021C00097F908959FEF80EC08959F938F937F93E5
:1021D0006F93FF93EF939B01AC01E9DAEF91FF91CD
:1021E0002BD02F913F914F915F91E1CA00240A9427
:1021F0001616170618060906089500240A941216E2
:102200001306140605060895092E0394000C11F414
:10221000882352F0BB0F40F4BF2B11F460FF04C0C1
:102220006F5F7F4F8F4F9F4F0895E894BB276627BE
:102230007727CB0197F90895DF93CF931F930F93DF
:10224000FF92EF92DF927B018C01689405C0DA2E39
:10225000EF0121D0FE01E894A5912591359145919A
:102260005591AEF3EF0147DFFE019701A801DA9423
:1022700079F7DF90EF90FF900F911F91CF91DF9151
:102280000895B4DF28F0B9DF18F0952309F086CF60
:1022900099CF1124CBCF00DFA0F3959FD1F3950FF9
:1022A00050E0551F629FF001729FBB27F00DB11DDA
:1022B000639FAA27F00DB11DAA1F649F6627B00D6A
:1022C000A11D661F829F2227B00DA11D621F739F53
:1022D000B00DA11D621F839FA00D611D221F749F61
:1022E0003327A00D611D231F849F600D211D822FA8
:1022F000762F6A2F11249F5750408AF0E1F08823EF
:102300004AF0EE0FFF1FBB1F661F771F881F9150FB
:102310005040A9F79E3F510570F040CF87CF5F3FF7
:10232000ECF3983EDCF3869577956795B795F7952E
:10233000E7959F5FC1F7FE2B880F911D96958795B6
:0823400097F90895F894FFCF0E
:102348004572726F722E20526573746172740049FF
:102358006E697469616C697A652073756363657306
:10236800732E0000000000000000000001020203BC
:102378000303030404040404040404050505050513
:1023880005050505050505050505050606060606F0
:1023980006060606060606060606060606060606D5
:1023A80006060606060606060606060707070707C0
:1023B80007070707070707070707070707070707A5
:1023C8000707070707070707070707070707070795
:1023D8000707070707070707070707070707070785
:1023E8000707070707070707070707080808080870
:1023F8000808080808080808080808080808080855
:102408000808080808080808080808080808080844
:102418000808080808080808080808080808080834
:102428000808080808080808080808080808080824
:102438000808080808080808080808080808080814
:102448000808080808080808080808080808080804
:1024580008080808080808080808080808080808F4
:0C24680008080808080808080808080010
:00000001FF
