:100000000C9455000C9474000C9474000C947400BF
:100010000C9474000C9474000C9474000C94740090
:100020000C9474000C9474000C9474000C94740080
:100030000C9474000C9474000C94670D0C94740070
:100040000C9474000C9474000C94AB120C94740017
:100050000C9474000C9474000C9474000C94740050
:100060000C9474000C9474000C9474000C94740040
:100070000C9474000C9474000C9485000C9474001F
:100080000C9474000C9474000C94740005A84CCD6E
:10009000B2D44EB93836A9020C50B9918688083CC2
:1000A000A6AAAA2ABE000000803F11241FBECFEFDF
:1000B000D0E1DEBFCDBF12E0A0E0B1E0E6ECF6E3B8
:1000C00000E00BBF02C007900D92A83BB107D9F723
:1000D00013E0A8EBB2E001C01D92A430B107E1F734
:1000E0000E946A070C94611B0C94000010929B0004
:1000F00088E980939A0086E080939D001092980092
:1001000087E080939900789408951F920F920FB61C
:100110000F9211248F939F9390919C0080919B004C
:10012000887BE1F381E08093B8029093B9029F91BC
:100130008F910F900FBE0F901F9018958091B9026C
:100140001092B902F8941092B802789408959091A0
:100150009B0095FFFCCF80939C0008958FEF8093C8
:10016000730088E480937000089594EA909374007B
:100170009091740097FFFCCF9EE09093730094E8F9
:10018000909374009091740097FFFCCF809373005C
:1001900084E8809374008091740087FFFCCF84E929
:1001A000809374000895EF92FF920F931F93DF9353
:1001B000CF9300D0CDB7DEB7082F162F843070F55F
:1001C000643160F58BE149835A830E94B5008CE469
:1001D0000E94B500812F0E94B500802F0E94B500BB
:1001E00080E791E00197F1F700C0E12EFF244981FB
:1001F0005A81042F152F06C00E94B50094EC9A95E1
:10020000F1F700C0E4E1EE16F10444F4F801819145
:100210008F010894E11CF11C882371F70F900F9057
:10022000CF91DF911F910F91FF90EF9008951F9351
:10023000DF93CF9300D0CDB7DEB7182F8430F0F422
:100240006431E0F48BE12A8369830E94B5008CE479
:100250000E94B5006981862F0E94B500812F0E94FF
:10026000B50080E791E00197F1F700C02A81822F65
:100270000E94B50094EC9A95F1F700C00F900F9092
:10028000CF91DF911F9108958BE10E94B50083E427
:100290000E94B50086E696EEA0E081509040A04016
:1002A000E1F70895EF92FF920F931F93182FF62E08
:1002B000E42E842F64E60E948C19082F282F30E04A
:1002C000205D3F4F442737FD4095542F812F6F2DE0
:1002D0000E9417018CE9089F002D11240E0D802F1C
:1002E0006AE00E948C19E82E6F2D6F5F282F30E096
:1002F000205D3F4F442737FD4095542F812F0E94AA
:1003000017016F2D6E5F26EFE29E202D1124200F26
:1003100030E0205D3F4F442737FD4095542F812F1B
:100320000E9417011F910F91FF90EF9008952F9257
:100330003F924F925F926F927F928F929F92AF9275
:10034000BF92CF92DF92EF92FF920F931F93DF93B2
:10035000CF93CDB7DEB760970FB6F894DEBF0FBE70
:10036000CDBF8C017B011A01853B91051CF464EB28
:1003700070E002C06CE172E0601B710B882777FDB2
:100380008095982F0E9478165B016C0160E070E008
:1003900084E393E4A60195010E948D1428E939EFC6
:1003A0004EE85CE30E94BE140E94CF193B014C0151
:1003B00060E070E084EB92E4A60195010E948D1448
:1003C00028E939EF4EE85CE30E94BE140E94CF1981
:1003D0005B016C0181E00836180728F5B701882712
:1003E00077FD8095982F0E9478167B018C01A401DF
:1003F00093010E94BE140E94D816662E772E882E76
:10040000992EC801B701A60195010E94BE140E9451
:10041000D816E62EF72E082F192F5101CC24B7FC41
:10042000C094DC2C11C017FF04C0F094E194F108D3
:10043000F3945701CC24B7FCC094DC2CEE24FF24A9
:100440008701662477244301C401B3010E94781612
:100450006D877E878F87988BC801B7010E947816B9
:100460001B012C0122E03BE247E05DE30E94BE1449
:10047000162FF72E982E892EC601B5010E947816E8
:100480002EE432E640E15EE30E94BE14A62EE72E83
:10049000082F692E6D857E858F85988925ED38E733
:1004A00049E65DE30E94BE14F401212F3F2D4F2F3A
:1004B0005E2F0E9460142A2D3E2D402F562D0E9443
:1004C000601469837A838B839C83C201B10128EB1A
:1004D0003EE145E85DEB0E94BE142A2D3E2D402FE3
:1004E000562D0E9460146D837E838F8398876D855F
:1004F0007E858F85988925ED38E749E65DEB0E947A
:10050000BE14F401212F3F2D4F2F5E2F0E94601447
:100510002A2D3E2D402F562D0E94601469877A8720
:100520008B879C878E010F5F1F4FEE245801F801C7
:10053000608171818281938120E030E040E252E469
:100540000E94E81587FD09C080E090E0A0E2B2E4D7
:10055000F80180839183A283B383F8016081718164
:100560008281938120E030E040E252EC0E94481604
:1005700018164CF080E090E0A0E2B2ECF801808325
:100580009183A283B3830C5F1F4FF501608171815A
:100590008281938120E030E040E857E40E94BE145D
:1005A0000E94D816AB01BC018E2D0E948910E394E5
:1005B000FE2DF33009F0BACF0E94B71160960FB646
:1005C000F894DEBF0FBECDBFCF91DF911F910F9189
:1005D000FF90EF90DF90CF90BF90AF909F908F9063
:1005E0007F906F905F904F903F902F9008952F9243
:1005F0003F924F925F926F927F928F929F92AF92B3
:10060000BF92CF92DF92EF92FF920F931F93DF93EF
:10061000CF9300D0CDB7DEB79A8389831A017901D1
:10062000882777FD8095982F0E9478166093C002E6
:100630007093C1028093C2029093C30280E090E065
:10064000A0EAB0E48093000190930101A09302011D
:10065000B09303018FEF8DBD80E78CBD1092BB027C
:100660001092BA0280E090E0DC018093D80290936F
:10067000D902A093DA02B093DB0244245524570137
:10068000CC24DD240F2EF0E06F2EF0E07F2EF8E476
:100690008F2EF2E49F2EF02D6091BC027091BD026E
:1006A0008091BE029091BF020E94D8169B01AC01BE
:1006B00089819A81B90140E050E00E949701E09061
:1006C000D802F090D9020091DA021091DB02C20147
:1006D000B1010E942A179B01AC01C801B7010E9419
:1006E000E81587FF1DC0E090D802F090D902009174
:1006F000DA021091DB02C601B5010E942A179B01A4
:10070000AC01C801B7010E94E81587FDC5CF609212
:10071000C0027092C1028092C2029092C302BCCF0A
:100720000F900F90CF91DF911F910F91FF90EF905D
:10073000DF90CF90BF90AF909F908F907F906F9001
:100740005F904F903F902F9008952F923F924F923D
:100750005F926F927F928F929F92AF92BF92CF9251
:10076000DF92EF92FF920F931F93DF93CF93CDB75A
:10077000DEB7A6970FB6F894DEBF0FBECDBF962E9C
:10078000872E782E692E2901DC86CB86BE86AD8623
:100790008FEF8DBD80E78CBD81E090E09093BB0230
:1007A0008093BA0280E090E0A0EAB0E48093000178
:1007B00090930101A0930201B093030180E090E0C7
:1007C000A0E4B0E48093040190930501A093060196
:1007D000B0930701BA01882777FD8095982F0E9472
:1007E00078166093C0027093C1028093C202909306
:1007F000C302B201882777FD8095982F0E94781652
:100800006093C8027093C9028093CA029093CB028E
:100810001A86198680E090E0DC018D839E83AF8389
:10082000B88789839A83AB83BC83AB85BC85CD01B4
:10083000A0E0B0E08F8B988FA98FBA8FAD85BE8571
:10084000CD01A0E0B0E08B8F9C8FAD8FBE8FC80133
:10085000A0E0B0E08F8F98A3A9A3BAA3C701AA27ED
:1008600097FDA095BA2F8BA39CA3ADA3BEA38091A7
:10087000BA029091BB02009709F482C11092BB02A8
:100880001092BA026091BC027091BD028091BE02CA
:100890009091BF022AE037ED43E25CE30E94BE1470
:1008A0006B8B7C8B8D8B9E8B6091C4027091C5028B
:1008B0008091C6029091C7022AE037ED43E25CE3E3
:1008C0000E94BE14562E472E382E292EA4019301C5
:1008D000652F782D832F962DD201F1012B2F3A2FE2
:1008E0004F2F5E2F0E948D14962E872E782E692E04
:1008F000A4019301652F742F832F922F20E030E005
:10090000A9010E94181687FF0DC0A4019301652F4D
:10091000742F832F922F20E030E044EB53E40E94A9
:1009200060141AC0A4019301652F742F832F922F96
:1009300020E030E044EB53E40E94E81587FD10C04E
:10094000A4019301652F742F832F922F20E030E0B4
:1009500044EB53E40E948D14962E872E782E692E38
:10096000E090BC02F090BD020091BE021091BF0267
:10097000A090C402B090C502C090C602D090C70239
:10098000A4019301652F782D832F962D0E94D816F0
:100990006F87788B898B9A8BC801B7010E94D81614
:1009A0007B018C01C601B5010E94D8169B01AC01E8
:1009B0008F859889B701A9010E94970169817A8181
:1009C0008B819C81BB89AC891D890E892B2F3A2F85
:1009D000412F502F0E946014162F072FE82EA92EAA
:1009E000862F902FAE2DBA2D89839A83AB83BC833B
:1009F0006D817E818F819885D201F1012B2F342D5D
:100A00004F2F522D0E946014262F372F482F592F19
:100A10002D833E834F8358876F89788D898D9A8D7A
:100A20000E942A179B01AC01612F702F8E2D9A2DE9
:100A30000E94E81587FD10C0AB85BC85109761F05A
:100A400080E090E0A8ECB2E48093C0029093C102F1
:100A5000A093C202B093C302AD80BE80CF80D88481
:100A6000E894D7F86B8D7C8D8D8D9E8D0E942A1712
:100A70009B01AC01C601B5010E94E81587FD2BC0A2
:100A8000AD85BE85109739F180E090E0A0EAB1E431
:100A90008093C8029093C902A093CA02B093CB027C
:100AA0006091C4027091C5028091C6029091C70204
:100AB00020E030E0A9010E944816181664F080E09A
:100AC00090E0A0EAB1EC8093C8029093C902A09391
:100AD000CA02B093CB026F8D78A189A19AA10E941E
:100AE0002A177B018C0169817A818B819C81A80105
:100AF00097010E94E81587FF0BC069817A818B817D
:100B00009C819058A80197010E94E81587FD15C0A7
:100B100080E090E0DC018093C0029093C102A0933A
:100B2000C202B093C3028093BC029093BD02A09313
:100B3000BE02B093BF0291E099876BA17CA18DA109
:100B40009EA10E9478169B01AC01C601B5010E94CE
:100B5000E81587FD15C080E090E0DC018093C802B5
:100B60009093C902A093CA02B093CB028093C402AF
:100B70009093C502A093C602B093C702A1E0AA87D2
:100B8000B985BB2309F473CEEA85EE2309F46FCE51
:100B9000A6960FB6F894DEBF0FBECDBFCF91DF9102
:100BA0001F910F91FF90EF90DF90CF90BF90AF908B
:100BB0009F908F907F906F905F904F903F902F907D
:100BC00008952F923F924F925F926F927F928F92F1
:100BD0009F92AF92BF92CF92DF92EF92FF920F93CC
:100BE0001F93DF93CF93CDB7DEB72D970FB6F89451
:100BF000DEBF0FBECDBF3B014C0159016A0180E051
:100C000090E0DC0189839A83AB83BC838D839E83D0
:100C1000AF83B88789879A87AB87BC8761147104D3
:100C20008104910471F4211531054105510549F400
:100C3000E114F1040105110521F489E090E00E941E
:100C4000C411C401B3010E9478161B012C01C60116
:100C5000B5010E9478163B014C0122E03BE247E0DF
:100C60005DE30E94BE14D62EC72EB82E9D87C80104
:100C7000B7010E94781629E23CE54FE05EE30E944E
:100C8000BE14A62EE72E8C01C201B10122E430E68B
:100C900045E65DE30E94BE14D601ED852B2F3A2F69
:100CA0004B2D5E2F0E9460142A2D3E2D402F512F78
:100CB0000E94601469837A838B839C83C401B3018F
:100CC00028EB3EE145E85DEB0E94BE142A2D3E2D47
:100CD000402F512F0E9460146D837E838F839887ED
:100CE000C201B10122E430E645E65DEB0E94BE148C
:100CF000D601ED852B2F3A2F4B2D5E2F0E946014CD
:100D00002A2D3E2D402F512F0E94601469877A872B
:100D10008B879C878E010F5F1F4FEE245801F801CF
:100D2000608171818281938120E030E040E252E471
:100D30000E94E81587FD09C080E090E0A0E2B2E4DF
:100D4000F80180839183A283B383F801608171816C
:100D50008281938120E030E040E252EC0E9448160C
:100D600018164CF080E090E0A0E2B2ECF80180832D
:100D70009183A283B3830C5F1F4FF5016081718162
:100D80008281938120E030E040E857E40E94BE1465
:100D90000E94D816AB01BC018E2D0E948910E394ED
:100DA000FE2DF33009F0BACF0E94B7112D960FB681
:100DB000F894DEBF0FBECDBFCF91DF911F910F9191
:100DC000FF90EF90DF90CF90BF90AF909F908F906B
:100DD0007F906F905F904F903F902F900895EF928B
:100DE000FF920F931F931092BB021092BA0213C08E
:100DF0002091FC028091010330E0281B3109442737
:100E000037FD4095542F60E070E0CB01EE24FF24C5
:100E100087010E94E1058091BA029091BB0221E016
:100E20008C32920729F71F910F91FF90EF90089550
:100E3000EF92FF920F931F93CF93DF93EB018130DB
:100E40009105D1F48091FA02813518F0C130D105B5
:100E500079F18091FB028A3518F4C230D10541F155
:100E60004091FB0250E04258504080E090E068EC36
:100E700070E00E949701E6CF02E810E08091FA024C
:100E8000813518F0C130D10599F080910203843684
:100E900018F4C230D10561F080910203A801481B0B
:100EA000510980E090E068EC70E00E949701E6CF85
:100EB00060E070E0CB0120E030E0A901EE24FF24E7
:100EC00087010E94E105DF91CF911F910F91FF9063
:100ED000EF900895AF92BF92CF92DF92EF92FF9280
:100EE0000F931F930E94AE000E94F9100E9476009B
:100EF0000E9458100E9497128FE087BB1FBC85E0AC
:100F00008EBD8FEF8DBD80E78CBD84E087BF789468
:100F1000B4992FC482E090E061E070E00E9418076D
:100F200060E070E0CB0146E950E02CE93FEF06E9D4
:100F300010E0BAE5EB2EF12CCC24DD24AA24BB244E
:100F40000E94A50360E070E0CB0120E030E0A90141
:100F5000EE24FF2487010E94E10582E090E061E039
:100F600070E00E94180781E066E60E9479128823EB
:100F700019F041E050E002C042E050E081E065E05D
:100F80000E94520160E070E084EB92EC46E950E090
:100F90002CE93FEF04E610E0AAE5EA2EF12CCC2480
:100FA000DD24AA24BB240E94A5031092BB02109248
:100FB000BA0226C081E066E60E947912D82E682F18
:100FC00070E060587040882777FD8095982F0E94C8
:100FD000781620E030E040EC5FE30E94BE140E94EF
:100FE000D8169B01AC0160E070E0CB01EE24FF2439
:100FF00087010E94E10580E062E04D2D0E945201D0
:101000008091BA029091BB0221E0843F920791F651
:1010100060E070E0CB0146E950E020E030E001EE16
:1010200010E0EE24FF24CC24DD24AA24BB240E945B
:10103000A50360E070E087E893E446E950E020E033
:1010400030E006E410E00E94A50360E070E0CB0110
:1010500046E950E020E030E00DE210E00E94A503F8
:1010600060E070E084EB92E446E950E020E030E09C
:1010700002E810E00E94A50360E070E084E393E4DE
:1010800046E950E020E030E002E211E00E94A503D2
:1010900060E070E0CB0120E030E0A901EE24FF2405
:1010A00087010E94E10560E070E084EB92E446E98C
:1010B00050E020E030E00AEF10E0EE24FF240E9430
:1010C000A50360E070E0CB0146E950E020E030E0AD
:1010D0000E94A50360E070E087E893E446E950E0F1
:1010E00020E030E003E710E00E94A50360E070E03C
:1010F00084E393E446E950E020E030E004EB10E0C4
:101100000E94A5031092BB021092BA0214C082E0A2
:1011100066E60E94791290E0805890409C01442736
:1011200037FD4095542F60E070E0CB01EE24FF24A2
:1011300087010E94E1058091BA029091BB02883C30
:10114000910529F760E070E0CB0146E950E020E02E
:1011500030E001EE10E0EE24FF24CC24DD24AA24AC
:10116000BB240E94A50360E070E0CB0120E030E0EA
:10117000A90107C060E070E0CB012FEA30E040E059
:1011800050E0EE24FF2487010E94E10580910203D4
:10119000843680F360E070E0CB0146E950E020E067
:1011A00030E00EE511E0EE24FF24CC24DD24AA2457
:1011B000BB240E94A50360E070E0CB0146E950E04B
:1011C00028E230E00AE411E0FAE5EF2EF12C0E946B
:1011D000A50360E070E0CB0146E950E02EE130E08D
:1011E00006E212E00E94A50360E070E0CB0120E07F
:1011F00030E0A901EE24FF2487010E94E10582E08E
:1012000090E061E070E00E94180782E066E60E94CC
:101210007912882319F042E050E002C041E050E02A
:1012200081E060E00E94520160E070E084E393E4BA
:1012300046E950E02EEC3FEF08EC10E0EAE5EE2E38
:10124000F12CCC24DD24AA24BB240E94A5031092F7
:10125000BB021092BA0226C082E066E60E947912B2
:10126000D82E682F70E060587040882777FD8095F1
:10127000982F0E94781620E030E040EC5FE30E9457
:10128000BE140E94D8169B01AC0160E070E0CB0157
:10129000EE24FF2487010E94E10580E062E04D2DED
:1012A0000E9452018091BA029091BB0221E0843FDA
:1012B000920791F660E070E0CB0146E950E020E053
:1012C00030E005E411E0EE24FF24CC24DD24AA2440
:1012D000BB240E94A50360E070E087E893E446E940
:1012E00050E020E030E006E410E00E94A50360E05A
:1012F00070E0CB0146E950E020E030E00DE210E084
:101300000E94A50360E070E084EB92E446E950E0BF
:1013100020E030E002E810E00E94A50360E070E009
:1013200084E393E446E950E020E030E002E211E09B
:101330000E94A50326C081E066E60E947912D82E9D
:10134000682F70E060587040882777FD8095982F4F
:101350000E94781626E636E646EE5FE30E94BE144B
:101360000E94D8169B01AC0160E070E0CB01EE2436
:10137000FF2487010E94E10580E062E04D2D0E947C
:1013800052018091BA029091BB0221E0843F920702
:1013900091F660E070E084EB92E446E950E020E0F2
:1013A00030E004E610E0EE24FF24CC24DD24AA245F
:1013B000BB240E94A50360E070E0CB0146E950E049
:1013C00020E030E00CE211E00E94A50360E070E054
:1013D00087E893E446E950E020E030E00AEA10E0D4
:1013E0000E94A50360E070E084E393E446E950E0E6
:1013F00020E030E004EB10E00E94A50326C081E06D
:1014000066E60E947912D82E682F70E0605870400E
:10141000882777FD8095982F0E94781626E636E675
:1014200046EE5FE30E94BE140E94D8169B01AC01F9
:1014300060E070E0CB01EE24FF2487010E94E1050B
:1014400080E062E04D2D0E9452018091BA0290919D
:10145000BB0221E0843F920791F660E070E0CB018F
:1014600046E950E020E030E00FEA10E0EE24FF24EF
:10147000CC24DD24AA24BB240E94A50360E070E0F4
:10148000CB0120E030E0A901EE24FF2487010E9477
:10149000E10560E070E084E393E448EC50E020E094
:1014A00030E002E310E0EE24FF240E94A50360E098
:1014B00070E084E393E448EC50E025EB3FEF08EC68
:1014C00010E0BAE5EB2EF12C0E94A50360E070E07D
:1014D000CB014CE251E02BE430E000E911E00E9446
:1014E000A50360E070E0CB0148EC50E020E030E084
:1014F00000E213E0EE24FF240E94A50360E070E008
:10150000CB0146E950E029EC3FEF04EF11E0AAE5FA
:10151000EA2EF12C0E94A50360E070E080EF91ECD0
:1015200046E950E020E030E008EC10E0EE24FF2433
:101530000E94A50381E090E061E070E00E9418073E
:1015400082E066E60E947912882319F042E050E0BA
:1015500002C041E050E081E060E00E94520160E0A2
:1015600070E084E393E448EC50E020E030E005E4F0
:1015700011E0EE24FF24CC24DD24AA24BB240E9405
:10158000A5030E94EF0660E070E084E393E446E97F
:1015900050E020E030E00CE211E00E94A50360E0A2
:1015A00070E084EB92E446E950E020E030E001E8AE
:1015B00011E00E94A50360E070E084E393E446E953
:1015C00050E020E030E008EC10E00E94A5038FE03E
:1015D00090E00E9476121092BB021092BA0226C0CE
:1015E00081E066E60E947912D82E682F70E060587C
:1015F0007040882777FD8095982F0E94781626E600
:1016000036E646EE5FE30E94BE140E94D8169B01A8
:10161000AC0160E070E0CB01EE24FF2487010E9462
:10162000E10580E062E04D2D0E9452018091BA02F6
:101630009091BB0221E08C32920791F660E070E05D
:10164000CB0146E950E020E030E00EEB10E0EE2464
:10165000FF24CC24DD24AA24BB240E94A50360E03F
:1016600070E084E393E446E950E020E030E00BE9E9
:1016700010E00E94A50360E070E084EB92E446E98C
:1016800050E020E030E000EF10E00E94A50360E0B1
:1016900070E0CB0146E950E020E030E00DE710E0DB
:1016A0000E94A50360E070E087E893E446E950E01B
:1016B00020E030E006E910E00E94A50360E070E061
:1016C00084E393E446E950E020E030E004E610E0F3
:1016D0000E94A5031092BB021092BA0226C082E0BB
:1016E00066E60E947912D82E682F70E0605870402C
:1016F000882777FD8095982F0E94781626E636E693
:1017000046EE5FE30E94BE140E94D8169B01AC0116
:1017100060E070E0CB01EE24FF2487010E94E10528
:1017200080E062E04D2D0E9452018091BA029091BA
:10173000BB0221E08C32920791F660E070E0CB01B1
:1017400046E950E020E030E00CED10E0EE24FF240C
:10175000CC24DD24AA24BB240E94A50360E070E011
:10176000CB0120E030E0A901EE24FF2487010E9494
:10177000E105B59907C04091FA0280E060E00E945F
:101780005201F9CFB699C4CB60E070E084E393E4F2
:1017900048EC50E020E030E002E310E0EE24FF24CB
:1017A000CC24DD24AA24BB240E94A50360E070E0C1
:1017B00084E393E448EC50E025EB3FEF08EC10E0C5
:1017C000FAE5EF2EF12C0E94A50360E070E0CB015A
:1017D0004CE251E02BE430E000E911E00E94A50367
:1017E00060E070E0CB0148EC50E020E030E000E247
:1017F00013E0EE24FF240E94A50360E070E0CB011B
:1018000046E950E029EC3FEF04EF11E0EAE5EE2E67
:10181000F12C0E94A50360E070E080EF91EC46E9B6
:1018200050E020E030E008EC10E0EE24FF240E94BD
:10183000A50381E090E061E070E00E94180782E07B
:1018400066E60E947912882319F042E050E002C057
:1018500041E050E081E060E00E94520160E070E011
:1018600084E393E448EC50E020E030E005E411E04C
:10187000EE24FF24CC24DD24AA24BB240E94A5034B
:101880000E94EF0660E070E084E393E446E950E0F4
:1018900020E030E00CE211E00E94A50360E070E07F
:1018A00084EB92E446E950E020E030E001E811E00A
:1018B0000E94A50360E070E084E393E446E950E011
:1018C00020E030E008EC10E00E94A5038FE090E0FB
:1018D0000E9476121092BB021092BA0226C081E0DA
:1018E00066E60E947912D82E682F70E0605870402A
:1018F000882777FD8095982F0E94781626E636E691
:1019000046EE5FE30E94BE140E94D8169B01AC0114
:1019100060E070E0CB01EE24FF2487010E94E10526
:1019200080E062E04D2D0E9452018091BA029091B8
:10193000BB0221E08C32920791F660E070E0CB01AF
:1019400046E950E020E030E004EB10E0EE24FF2414
:10195000CC24DD24AA24BB240E94A50360E070E00F
:1019600084E393E446E950E020E030E00BE910E046
:101970000E94A50360E070E084EB92E446E950E049
:1019800020E030E000EF10E00E94A50360E070E08E
:10199000CB0146E950E020E030E000E510E00E9495
:1019A000A50360E070E087E893E446E950E020E0BA
:1019B00030E006E910E00E94A50360E070E084E3F7
:1019C00093E446E950E020E030E000E510E00E94BA
:1019D000A5031092BB021092BA0226C082E066E60E
:1019E0000E947912D82E682F70E0605870408827C6
:1019F00077FD8095982F0E94781626E636E646EE0B
:101A00005FE30E94BE140E94D8169B01AC0160E007
:101A100070E0CB01EE24FF2487010E94E10580E005
:101A200062E04D2D0E9452018091BA029091BB025A
:101A300021E08C32920791F660E070E0CB0146E93C
:101A400050E020E030E002E211E0EE24FF24CC245C
:101A5000DD24AA24BB240E94A50360E070E0CB0132
:101A600020E030E0A901EE24FF2487010E94E10577
:101A70004FCAEF92FF920F931F93CF93DF93EB0127
:101A80008A012AEFE22E22E0F22EE80EF91E07C0AC
:101A900080E090E0B80140E050E00E949701F7013B
:101AA000808190E08C179D079CF360E070E0CB0193
:101AB00020E030E0A901EE24FF2487010E94E10527
:101AC000DF91CF911F910F91FF90EF9008951F929A
:101AD0000F920FB60F920BB60F921124EF92FF9256
:101AE0000F931F932F933F934F935F936F937F9326
:101AF0008F939F93AF93BF93EF93FF938FEF8DBD22
:101B000080E78CBD8091BA029091BB0201969093C0
:101B1000BB028093BA02E090D802F090D902009103
:101B2000DA021091DB026091BC027091BD028091DB
:101B3000BE029091BF022AE037ED43E25CE30E94CF
:101B4000BE149B01AC01C801B7010E9460149B0147
:101B5000AC012093D8023093D9024093DA0250931B
:101B6000DB02E090D402F090D5020091D6021091F1
:101B7000D7026091E4027091E5028091E6029091B3
:101B8000E7022AE037ED43E25CE30E94BE149B01CA
:101B9000AC01C801B7010E9460149B01AC01209305
:101BA000D4023093D5024093D6025093D702E090EE
:101BB000CC02F090CD020091CE021091CF02609144
:101BC000DC027091DD028091DE029091DF022AE05A
:101BD00037ED43E25CE30E94BE149B01AC01C801F7
:101BE000B7010E9460149B01AC012093CC0230939A
:101BF000CD024093CE025093CF02E090D002F090FD
:101C0000D1020091D2021091D3026091E002709152
:101C1000E1028091E2029091E3022AE037ED43E293
:101C20005CE30E94BE149B01AC01C801B7010E9495
:101C300060149B01AC012093D0023093D1024093F9
:101C4000D2025093D3026091C0027091C102809180
:101C5000C2029091C3022091BC023091BD0240911A
:101C6000BE025091BF020E94B815181694F56091FB
:101C7000BC027091BD028091BE029091BF02209182
:101C800000013091010140910201509103010E9435
:101C900060149B01AC012093BC023093BD024093C1
:101CA000BE025093BF026091C0027091C102809148
:101CB000C2029091C3022091BC023091BD024091BA
:101CC000BE025091BF020E94481618160CF455C06F
:101CD00044C06091C0027091C1028091C202909193
:101CE000C3022091BC023091BD024091BE025091CE
:101CF000BF020E94181687FF40C06091BC0270911D
:101D0000BD028091BE029091BF02209100013091EE
:101D1000010140910201509103010E948D149B0129
:101D2000AC012093BC023093BD024093BE0250939D
:101D3000BF026091C0027091C1028091C202909175
:101D4000C3022091BC023091BD024091BE0250916D
:101D5000BF020E94E81587FD10C08091C0029091DB
:101D6000C102A091C202B091C3028093BC029093C1
:101D7000BD02A093BE02B093BF026091C8027091F1
:101D8000C9028091CA029091CB022091C402309185
:101D9000C5024091C6025091C7020E94B81518169C
:101DA00094F56091C4027091C5028091C602909131
:101DB000C702209104013091050140910601509124
:101DC00007010E9460149B01AC012093C402309370
:101DD000C5024093C6025093C7026091C802709139
:101DE000C9028091CA029091CB022091C402309125
:101DF000C5024091C6025091C7020E9448161816AB
:101E00000CF455C044C06091C8027091C902809121
:101E1000CA029091CB022091C4023091C502409138
:101E2000C6025091C7020E94181687FF40C06091F9
:101E3000C4027091C5028091C6029091C7022091A0
:101E400004013091050140910601509107010E9463
:101E50008D149B01AC012093C4023093C5024093C2
:101E6000C6025093C7026091C8027091C902809166
:101E7000CA029091CB022091C4023091C5024091D8
:101E8000C6025091C7020E94E81587FD10C08091DC
:101E9000C8029091C902A091CA02B091CB0280936E
:101EA000C4029093C502A093C602B093C702FF91EB
:101EB000EF91BF91AF919F918F917F916F915F91C2
:101EC0004F913F912F911F910F91FF90EF900F90A5
:101ED0000BBE0F900FBE0F901F90189590E0FC0165
:101EE000B096FE2FEE2720812093F60220FDFBCF37
:101EF0008896B82FAA278C9190819093F60290FD36
:101F0000FBCF089590E08096F82FEE278081809394
:101F1000F60280FDFBCF608380818093F60280FD16
:101F2000FBCF0895A82FB0E0FD01B096FE2FEE275D
:101F300080818093F60280FDFBCF9896BA2FAA2766
:101F4000872F992787FD9A958C9380818093F6023D
:101F500080FDFBCF6C9380818093F60280FDFBCFE8
:101F60000895DF92EF92FF920F931F93D82E7A017C
:101F70008B019B01552737FD5095452FB9010E94D4
:101F8000920F8D2DB7010E94920F1F910F91FF901C
:101F9000EF90DF9008951F93182F60E00E94820F4A
:101FA0008CEC9CE10197F1F700C00000812F6DE1FE
:101FB0000E94820F812F60E070E00E94920F1F91BB
:101FC0000895AF92BF92CF92DF92EF92FF920F935C
:101FD0001F93CF93DF93F82E6B01EA018901AA24A6
:101FE000A3946115710509F4AA24BB24B394209726
:101FF00009F4BB24EE24E3940115110509F4EE2441
:102000008F2D6EE10E94820F6B2D70E0660F771F9F
:10201000660F771F8A2D90E043E0880F991F4A953D
:10202000E1F7682B792B8E2D90E0880F991F682B94
:10203000792B8F2D0E94920FAA2021F08F2DB601AF
:102040000E94920FBB2021F08F2DBE010E94920FA3
:10205000EE2021F08F2DB8010E94920F8F2D64E0A9
:102060000E94820FDF91CF911F910F91FF90EF900F
:10207000DF90CF90BF90AF900895DF92EF92FF92E4
:102080000F931F93D82E7A018B016FE10E94820F6C
:102090008D2D60E270E00E94920F8D2DB801A70196
:1020A0000E94B10F1F910F91FF90EF90DF90089564
:1020B00080E067E070E043E050E021E030E00E9423
:1020C000E10F81E067E070E043E050E021E030E0C4
:1020D0000E94E10F82E067E070E043E050E021E021
:1020E00030E00E94E10F80E04FEF5FEF6FEF7FE3A2
:1020F0000E943D1081E04FEF5FEF6FEF7FE30E94A2
:102100003D1082E04FEF5FEF6FEF7FE30E943D10E5
:102110000895DF92EF92FF920F931F93DF93CF9377
:102120000F92CDB7DEB7D82E7A018B0177FF0AC0A8
:1021300010950095F094E094E11CF11C011D111D17
:1021400090E001C091E08D2D6FE199830E94820F94
:102150009981792F7295707F60E0686078608D2D2D
:102160000E94920F8D2DB801A7010E94B10F0F9010
:10217000CF91DF911F910F91FF90EF90DF90089525
:102180004F925F926F927F928F929F92AF92BF9287
:10219000CF92DF92EF92FF920F931F93982E862E8D
:1021A00029013A016FE10E94820F682D70E06A6296
:1021B000892D0E94920F892DB301A2010E94B10FB7
:1021C000892DB801A7010E94B10F892DB601A50183
:1021D0000E94B10F1F910F91FF90EF90DF90CF9071
:1021E000BF90AF909F908F907F906F905F904F9037
:1021F00008958F929F92AF92BF92CF92DF92EF920B
:10220000FF920F931F93DF93CF9300D00F92CDB720
:10221000DEB71ABA15BA8FEF84BB1092650083E05F
:1022200080936400E0E89E2E72E0A72E64E8B62E4C
:102230006E010894C11CD11C85B3856085BB83E306
:102240009BE20197F1F785B38A7F85BBECECFCE15B
:102250003197F1F700C00000809165008D7F809379
:102260006500AB9885B3887F85BB29B32983A89A7D
:1022700099B39A8385B3887F826085BB89B38B834A
:10228000243C11F02438C1F5943C11F09438A1F5A8
:10229000843C11F0843881F595BEA0926D00B09217
:1022A0006C00760100E010E28E2C8C18882D6DE118
:1022B0000E94820F882D60E070E00E94920FF8016A
:1022C0008081F70181937F0100501F4FF3E20030BE
:1022D0001F0751F78981803C11F0803851F48A81C1
:1022E000803C11F0803829F48B81803C69F0803883
:1022F00059F085B78F7385BF15BA80E060E04CE870
:1023000051E00E94D30098CF80E060E04BE951E0BB
:102310000E94D30083E098B3976098BB2FEF3FEB08
:1023200046E0215030404040E1F700C0000098B343
:10233000987F98BB2FEF3FEB46E021503040404064
:10234000E1F700C00000815031F70E9444010F9076
:102350000F900F90CF91DF911F910F91FF90EF9011
:10236000DF90CF90BF90AF909F908F90089580E0C6
:1023700061E00E94820F81E061E00E94820F82E0B2
:1023800061E00E94820F08951F93CF93DF93182F6F
:1023900080E06FE10E94820FC1E0D0E002C0CC0F6C
:1023A000DD1F1A95E2F780E0BE010E94920F81E0E6
:1023B0006FE10E94820F81E0BE010E94920F82E0D5
:1023C0006FE10E94820F82E0BE010E94920F80E0C6
:1023D00061E00E94820F81E061E00E94820F82E052
:1023E00061E00E94820FDF91CF911F910895AF921B
:1023F000BF92CF92DF92EF92FF920F931F93DF93E2
:10240000CF93CDB7DEB72C970FB6F894DEBF0FBED3
:10241000CDBF59016A010E94781669837A838B8344
:102420009C83C601B5010E9478166D837E838F83DD
:102430009887C801B7010E94781669877A878B87C9
:102440009C878E010F5F1F4FEE24F8016081718120
:102450008281938121E73CEA4BE85EE30E94BE144F
:102460009B01AC01F80121933193419351938F016A
:1024700020E030E040E857E40E94BE140E94D816E5
:10248000AB01BC018E2D0E948910E394FE2DF33028
:10249000E1F60E94B7112C960FB6F894DEBF0FBE7E
:1024A000CDBFCF91DF911F910F91FF90EF90DF9003
:1024B000CF90BF90AF9008958BE00E94A7008091CD
:1024C000B8028823E1F30E949E008823A9F381E1EA
:1024D0000E94A7008FEF0E94A7008091B802882376
:1024E000E1F30E949E00882391F308950E94A700C3
:1024F0000895DF93CF9300D0CDB7DEB719821A824B
:10250000880F982F990F990F980F690F6A838A8106
:102510000E94A7008091B8028823E1F30E949E00E8
:10252000898389810F900F90CF91DF91089582B1B7
:10253000837E82B9E4E6F0E08081877E80831BB8E9
:1025400088E98AB986E080939500109290008FE028
:1025500089B9789408951F920F920FB60F920BB617
:102560000F9211242F933F938F939F93EF93FF9399
:102570009CB18BB1887BE9F39F3F21F481E080938C
:10258000F50247C08091F502813009F042C0809188
:10259000F402E82FF0E0E851FD4F90838F5F8093C5
:1025A000F4028091F4028B30A0F11092F402809139
:1025B000F4028093F50280E090E03091F302FC0198
:1025C000E851FD4F2081230F2093F30201968A30BA
:1025D000910599F78091F3028F3F29F48091F302DE
:1025E0008F5F8093F3029091F3028091F20298172B
:1025F00071F480E090E0FC01E851FD4F2081FC0186
:10260000E650FD4F208301968A309105A1F7109284
:10261000F302FF91EF919F918F913F912F910F9036
:102620000BBE0F900FBE0F901F901895A0E0B0E06A
:10263000ECE1F3E10C949C19FC01EA018081823009
:1026400008F438C1DB019C91923008F430C1843029
:1026500059F4943009F02EC1918111968C91119703
:10266000981709F021C126C1943009F420C1923095
:10267000B1F4823009F01EC1CA01AF0128E0DA01CD
:102680000D90AD01DC010D92CD012150C1F7DB01B0
:1026900011968C9111979181892389830AC1823087
:1026A00009F405C1C280D380DB0112966D907C9045
:1026B000139724813581468157811496ED90FD90C2
:1026C0000D911C911797C601861997095C0197FF18
:1026D00004C0AA24BB24A81AB90AB0E2AB16B104FC
:1026E0000CF061C0181619066CF5370148010A2C68
:1026F00004C096948794779467940A94D2F781E003
:1027000090E0A0E0B0E00A2C04C0880F991FAA1F37
:10271000BB1F0A94D2F70197A109B1098E219F210D
:10272000A023B123EE24FF248701E3940097A105A1
:10273000B10519F4EE24FF248701E628F7280829BB
:1027400019293CC00097D1F1CA0CDB1C39014A01A0
:102750000A2C04C096948794779467940A94D2F7CD
:1027600081E090E0A0E0B0E00A2C04C0880F991F3F
:10277000AA1FBB1F0A94D2F70197A109B1098223AE
:102780009323A423B52321E030E040E050E00097FC
:10279000A105B10519F420E030E0A9012629372967
:1027A000482959290BC06C147D0424F4EE24FF241D
:1027B000870104C0630120E030E0A9018181FB01B1
:1027C0009181891709F445C0882349F0D801C701D0
:1027D000821B930BA40BB50B9C01AD0104C02E19F9
:1027E0003F09400B510B57FD04C01982DB82CA829E
:1027F0000BC081E08983DB82CA8250954095309579
:1028000021953F4F4F4F5F4F2C833D834E835F8316
:102810000DC0880F991FAA1FBB1F8C839D83AE8399
:10282000BF838A819B8101979B838A838C819D8151
:10283000AE81BF819C01AD012150304040405040ED
:102840002F3FEFEF3E07EFEF4E07EFE35E0708F392
:102850000BC08983DB82CA822E0D3F1D401F511F92
:102860002C833D834E835F8383E088832C813D816D
:102870004E815F8157FF1DC0DA01C90181709070E0
:10288000A070B0705695479537952795822B932B5E
:10289000A42BB52B8C839D83AE83BF838A819B81C0
:1028A00001969B838A8305C0EFEAF1E003C0FB0138
:1028B00001C0FE01CF01CDB7DEB7EEE00C94B81930
:1028C000A0E2B0E0E6E6F4E10C94A41969837A830F
:1028D0008B839C832D833E834F83588789E0E82E2A
:1028E000F12CEC0EFD1ECE010196B7010E94CA1814
:1028F0008E010F5E1F4FCE010596B8010E94CA18C7
:10290000C701B801AE01475E5F4F0E9416130E94D7
:10291000FC17A096E6E00C94C019A0E2B0E0E3E951
:10292000F4E10C94A41969837A838B839C832D83AF
:102930003E834F8358878E01075F1F4FCE0101965C
:10294000B8010E94CA1891E1E92EF12CEC0EFD1E8F
:10295000CE010596B7010E94CA188A8991E089279D
:102960008A8BC801B701AE01475E5F4F0E94161304
:102970000E94FC17A096E6E00C94C019A0E2B0E01B
:10298000E4ECF4E10C94981969837A838B839C833B
:102990002D833E834F835887CE010196BE01675F2A
:1029A0007F4F0E94CA18CE010596BE016F5E7F4F11
:1029B0000E94CA189985923078F089898230C0F0D7
:1029C000943019F4823041F4CBC0843019F4923041
:1029D00079F4C6C0923051F481E02A859A8929178A
:1029E00009F480E08A87CE010996BCC0823051F498
:1029F00081E02A859A89291709F480E08A8BCE0123
:102A00004196B0C06D847E848F849888ED88FE885E
:102A10000F89188DE0E2F0E080E090E0DC01AA246C
:102A2000BB24650120E030E0A901B3016170707042
:102A300061157105D1F02E0D3F1D401F511F15016D
:102A40002601280E391E4A1E5B1E81E090E0A0E0A0
:102A5000B0E02E153F054007510718F080E090E0E8
:102A6000DC01820D931DA41DB51DAA0CBB1CCC1C42
:102A7000DD1C17FF09C061E0262E312C412C512CA2
:102A8000A228B328C428D528319749F0EE0CFF1CA2
:102A9000001F111F9694879477946794C6CF6B8913
:102AA0007C89EB85FC856E0F7F1F6E5F7F4F7C8F6F
:102AB0006B8F61E0EA857A89E71709F460E06A8F35
:102AC0006B8D7C8D10C0FC01E170F070309729F0A7
:102AD00056954795379527955068B695A79597953C
:102AE00087956F5F7F4FB7FDEECF0CC0880F991FA2
:102AF000AA1FBB1F57FD8160220F331F441F551FA4
:102B0000615070408030E0E09E07E0E0AE07E0E416
:102B1000BE0760F36B8F7C8F6FE7E62EF12C012DE3
:102B2000112DE822F9220A231B2360E4E616F104A2
:102B30000105110561F487FD0AC021153105410524
:102B4000510529F0805C9F4FAF4FBF4F80788D8F2C
:102B50009E8FAF8FB8A383E0898FCE01499602C0C4
:102B60008FEA91E00E94FC17A096E2E10C94B41960
:102B7000A8E1B0E0EEEBF5E10C94A41969837A8347
:102B80008B839C832D833E834F8358878E01075F01
:102B90001F4FCE010196B8010E94CA1881E1E82EAC
:102BA000F12CEC0EFD1ECE010596B7010E94CA184D
:102BB0008985823040F08989823028F0C801B701C8
:102BC0000E94331901C08FEF6896E6E00C94C0199B
:102BD000A8E1B0E0EEEEF5E10C94A41969837A83E4
:102BE0008B839C832D833E834F8358878E01075FA1
:102BF0001F4FCE010196B8010E94CA1881E1E82E4C
:102C0000F12CEC0EFD1ECE010596B7010E94CA18EC
:102C10008985823040F08989823028F0C801B70167
:102C20000E94331901C08FEF6896E6E00C94C0193A
:102C3000A8E1B0E0EEE1F6E10C94A41969837A838F
:102C40008B839C832D833E834F8358878E01075F40
:102C50001F4FCE010196B8010E94CA1881E1E82EEB
:102C6000F12CEC0EFD1ECE010596B7010E94CA188C
:102C70008985823040F08989823028F0C801B70107
:102C80000E94331901C081E06896E6E00C94C019F7
:102C9000A8E1B0E0EEE4F6E10C94A41969837A832C
:102CA0008B839C832D833E834F8358878E01075FE0
:102CB0001F4FCE010196B8010E94CA1881E1E82E8B
:102CC000F12CEC0EFD1ECE010596B7010E94CA182C
:102CD0008985823040F08989823028F0C801B701A7
:102CE0000E94331901C081E06896E6E00C94C01997
:102CF000A8E0B0E0EEE7F6E10C94A4197B018C01AA
:102D000083E08983D801C7018827B7FD8395992778
:102D1000AA27BB27282F8A83E114F1040105110596
:102D200019F482E0898337C08EE190E09C838B8325
:102D3000222389F080E0E81680E0F80680E00807AA
:102D400080E8180769F110950095F094E094E11C73
:102D5000F11C011D111DED82FE820F831887C80131
:102D6000B7010E94A2179C01215030401216130691
:102D700094F4022E04C0EE0CFF1C001F111F0A94D5
:102D8000D2F7ED82FE820F8318878EE190E0821BDE
:102D9000930B9C838B83CE0101960E94FC1704C089
:102DA00060E070E080E09FEC2896E6E00C94C019AB
:102DB000ACE0B0E0EEEDF6E10C94A81969837A83FB
:102DC0008B839C83CE010196BE016B5F7F4F0E9477
:102DD000CA188D81823081F1823070F1843021F403
:102DE0008E81882369F10AC02F81388537FD24C080
:102DF0006E812F3131053CF0662311F120E030E087
:102E000040E050E821C08EE190E0821B930B2985C1
:102E10003A854B855C8504C056954795379527952F
:102E20008A95D2F7662381F050954095309521958B
:102E30003F4F4F4F5F4F08C020E030E0A90104C072
:102E40002FEF3FEF4FEF5FE7B901CA012C96E2E0A9
:102E50000C94C419A8E0B0E0E0E3F7E10C94A219E7
:102E60007B018C011A82611571058105910519F4A8
:102E700082E089835FC083E089838EE1C82ED12CF4
:102E8000DC82CB82ED82FE820F831887C801B701F6
:102E90000E94A217FC013197F7FF3AC0AA27BB276F
:102EA000AE1BBF0B21E030E040E050E00A2E04C032
:102EB000220F331F441F551F0A94D2F72150304070
:102EC000404050402E213F214023512361E070E0DB
:102ED00080E090E0211531054105510519F460E0CD
:102EE00070E0CB0104C016950795F794E794AA9576
:102EF000D2F7E62AF72A082B192BED82FE820F83E0
:102F000018878EE190E08E1B9F0B9C838B8312C0F1
:102F1000309781F00E2E04C0EE0CFF1C001F111F15
:102F20000A94D2F7ED82FE820F831887CE1ADF0A49
:102F3000DC82CB82CE0101960E94FC172896E8E045
:102F40000C94BE19AF92BF92CF92DF92EF92FF9294
:102F50000F931F937B018C0180E0E81680E0F80658
:102F600081E0080780E0180758F4EFEFEE16F1044F
:102F70000105110509F090F480E090E0DC0117C034
:102F8000F0E0EF16F0E0FF06F0E00F07F1E01F07BA
:102F900050F480E190E0A0E0B0E009C088E090E06B
:102FA000A0E0B0E004C088E190E0A0E0B0E020E262
:102FB00030E040E050E0281B390B4A0B5B0B570117
:102FC000680104C0D694C794B794A7948A95D2F7A1
:102FD000D601C50189549E4FFC018081281B31090F
:102FE00041095109C9011F910F91FF90EF90DF90A6
:102FF000CF90BF90AF900895EF92FF920F931F93E1
:10300000CF93DF93FC012481358146815781618113
:103010008081823020F44061EFEFF0E0A3C0843083
:1030200009F49BC0823009F492C021153105410595
:10303000510509F48FC00280F381E02D8FEFE23853
:10304000F8070CF05AC0C2E8DFEFCE1BDF0BCA3125
:10305000D1056CF579018A010C2E04C016950795EF
:10306000F794E7940A94D2F781E090E0A0E0B0E012
:103070000C2E04C0880F991FAA1FBB1F0A94D2F7F9
:103080000197A109B10982239323A423B52321E049
:1030900030E040E050E00097A105B10519F420E0D0
:1030A00030E0A9012E293F29402B512B03C020E0FD
:1030B00030E0A901DA01C9018F779070A070B0707B
:1030C00080349105A105B10539F427FF09C0205CC2
:1030D0003F4F4F4F5F4F04C0215C3F4F4F4F5F4FFB
:1030E000E1E0F0E0203080E0380780E0480780E44D
:1030F000580728F5E0E0F0E022C0E038F1056CF573
:10310000E158FF4FDA01C9018F779070A070B0705D
:1031100080349105A105B10539F427FF09C0205C71
:103120003F4F4F4F5F4F04C0215C3F4F4F4F5F4FAA
:1031300057FF05C05695479537952795319687E0F7
:1031400056954795379527958A95D1F70BC0E0E0BE
:10315000F0E005C0E0E0F0E005C0EFEFF0E020E0D7
:1031600030E0A9018E2F879588278795942F9F7728
:10317000679566276795E695E22EA92FA82BFE2F67
:10318000F62B622F732F8A2F9F2FCDB7DEB7E6E085
:103190000C94C019DC01FB012C9111963C91119704
:1031A00012968C911297482F4F7750E0982F991FC5
:1031B0009927991F13966C911397862F880F892B47
:1031C00090E0661F6627661F6183009739F5211519
:1031D00031054105510511F482E029C082E89FEFD5
:1031E0009383828367E0220F331F441F551F6A9524
:1031F000D1F783E0808309C0220F331F441F551F7E
:1032000082819381019793838283203080E0380705
:1032100080E0480780E4580778F320C08F3F91058D
:1032200079F4211531054105510519F484E08083B5
:10323000089544FF03C081E0808310C010820EC057
:103240008F5790409383828383E0808387E0220FAF
:10325000331F441F551F8A95D1F75064248335834B
:10326000468357830895FC01DB019081923008F476
:1032700049C08C91823008F445C0943051F461818A
:103280008430B1F511962C91119730E0261B31094D
:1032900041C0843021F0923041F48230B1F1119676
:1032A0008C9111978823A1F12DC06181823001F1A9
:1032B00011968C9111976817D9F422813381129657
:1032C0008D919C9113978217930794F028173907D3
:1032D000BCF0248135814681578114968D919D9152
:1032E0000D90BC91A02D82179307A407B50718F481
:1032F000662341F00DC0281739074A075B0728F4F9
:10330000662331F021E030E005C020E030E002C06B
:103310002FEF3FEFC9010895991B79E004C0991F71
:10332000961708F0961B881F7A95C9F7809508951F
:103330002F923F924F925F926F927F928F929F92C5
:10334000AF92BF92CF92DF92EF92FF920F931F93B3
:10335000CF93DF93CDB7DEB7CA1BDB0B0FB6F89464
:10336000DEBF0FBECDBF09942A88398848885F84A4
:103370006E847D848C849B84AA84B984C884DF8015
:10338000EE80FD800C811B81AA81B981CE0FD11DF9
:103390000FB6F894DEBF0FBECDBFED01089503D088
:1033A000E39528C0CEC03FD0E8F3E894E0E0BB2727
:1033B0009F57F0F02AED3FE049EC06C0EE0FBB0F3F
:1033C000661F771F881F28F0B23A620773078407C9
:1033D00028F0B25A620B730B840BE3959A9572F73F
:1033E000803830F49A95BB0F661F771F881FD2F77D
:1033F00090489BC0EF93E0FF06C0A2EA2AED3FE0B1
:1034000049EC5FEB37D0BFD00F90039401FC90588C
:10341000ECE8F0E099C057FD9058440F551F59F063
:103420005F3F71F04795880F97FB991F61F09F3FB1
:1034300079F087950895121613061406551FF2CFDA
:103440004695F1DF08C0161617061806991FF1CF2A
:103450008695710561050894089587D030F08CD069
:1034600020F031F49F3F11F41EF46BC00EF4E09590
:10347000E7FB53C0E92FCFDF80F3BA17620773076A
:103480008407950718F071F49EF58EC00EF4E09550
:103490000B2EBA2FA02D0B01B90190010C01CA010E
:1034A000A0011124FF27591B99F0593F50F4503EB9
:1034B00068F11A16F040A22F232F342F4427585FAB
:1034C000F3CF469537952795A795F0405395C9F7C3
:1034D0007EF41F16BA0B620B730B840BBAF091507B
:1034E000A1F0FF0FBB1F661F771F881FC2F70EC01A
:1034F000BA0F621F731F841F48F4879577956795ED
:10350000B795F7959E3F08F0B3CF9395880F08F0D5
:103510009927EE0F97958795089597F99F6780E80B
:1035200070E060E008959F3F31F0915020F487955E
:1035300077956795B795880F911D9695879597F91B
:1035400008959FEF80EC08959F938F937F936F93DF
:10355000FF93EF939B01AC0111DAEF91FF912BD018
:103560002F913F914F915F9109CA00240A9416163A
:10357000170618060906089500240A941216130661
:10358000140605060895092E0394000C11F48823EF
:1035900052F0BB0F40F4BF2B11F460FF04C06F5F0B
:1035A0007F4F8F4F9F4F0895E894BB27662777275B
:1035B000CB0197F90895DF93CF931F930F93FF9259
:1035C000EF92DF927B018C01689405C0DA2EEF0147
:1035D00021D0FE01E894A591259135914591559111
:1035E000AEF3EF0147DFFE019701A801DA9479F706
:1035F000DF90EF90FF900F911F91CF91DF91089591
:10360000B4DF28F0B9DF18F0952309F086CF99CF01
:103610001124CBCF00DFA0F3959FD1F3950F50E09D
:10362000551F629FF001729FBB27F00DB11D639F74
:10363000AA27F00DB11DAA1F649F6627B00DA11D1A
:10364000661F829F2227B00DA11D621F739FB00DC0
:10365000A11D621F839FA00D611D221F749F332730
:10366000A00D611D231F849F600D211D822F762FC9
:103670006A2F11249F5750408AF0E1F088234AF0C6
:10368000EE0FFF1FBB1F661F771F881F9150504012
:10369000A9F79E3F510570F040CF87CF5F3FECF315
:1036A000983EDCF3869577956795B795F795E795FE
:1036B0009F5FC1F7FE2B880F911D9695879597F90F
:0636C0000895F894FFCF0D
:1036C6000000A0400000804001000000000004004F
:1036D60002000000010005000300000002000600D1
:1036E60000000000030007000800040000000B00B3
:1036F6000900050008000C000A00060009000D007C
:10370600000007000A000E000F000B00000000007A
:1037160010000C000F00000011000D00100000004A
:1037260000000E0011000000640000000000000010
:103736000000000000000000000000000000000083
:103746000000000000000000000000004572726FDB
:10375600722E205265737461727400496E697469C1
:10376600616C697A6520737563636573732E0000F7
:10377600000000000000000001020203030303042E
:1037860004040404040404050505050505050505EA
:1037960005050505050505060606060606060606CA
:1037A60006060606060606060606060606060606B3
:1037B600060606060606060707070707070707079A
:1037C6000707070707070707070707070707070783
:1037D6000707070707070707070707070707070773
:1037E6000707070707070707070707070707070763
:1037F600070707070707070808080808080808084A
:103806000808080808080808080808080808080832
:103816000808080808080808080808080808080822
:103826000808080808080808080808080808080812
:103836000808080808080808080808080808080802
:1038460008080808080808080808080808080808F2
:1038560008080808080808080808080808080808E2
:1038660008080808080808080808080808080808D2
:08387600080808080808080012
:00000001FF
